{"contracts/BaserootMarketplace.sol":{"BaserootMarketplace":{"abi":[{"inputs":[{"internalType":"address","name":"initialOwner","type":"address"}],"stateMutability":"nonpayable","type":"constructor"},{"inputs":[{"internalType":"address","name":"owner","type":"address"}],"name":"OwnableInvalidOwner","type":"error"},{"inputs":[{"internalType":"address","name":"account","type":"address"}],"name":"OwnableUnauthorizedAccount","type":"error"},{"inputs":[],"name":"ReentrancyGuardReentrantCall","type":"error"},{"anonymous":false,"inputs":[{"indexed":true,"internalType":"string","name":"agentId","type":"string"},{"indexed":true,"internalType":"address","name":"creator","type":"address"},{"indexed":false,"internalType":"uint256","name":"price","type":"uint256"},{"indexed":false,"internalType":"string","name":"metadata","type":"string"}],"name":"AgentRegistered","type":"event"},{"anonymous":false,"inputs":[{"indexed":true,"internalType":"string","name":"agentId","type":"string"},{"indexed":false,"internalType":"uint256","name":"price","type":"uint256"},{"indexed":false,"internalType":"string","name":"metadata","type":"string"},{"indexed":false,"internalType":"bool","name":"isActive","type":"bool"}],"name":"AgentUpdated","type":"event"},{"anonymous":false,"inputs":[{"indexed":true,"internalType":"string","name":"datasetId","type":"string"},{"indexed":true,"internalType":"address","name":"provider","type":"address"},{"indexed":false,"internalType":"uint256","name":"price","type":"uint256"}],"name":"DatasetRegistered","type":"event"},{"anonymous":false,"inputs":[{"indexed":true,"internalType":"address","name":"previousOwner","type":"address"},{"indexed":true,"internalType":"address","name":"newOwner","type":"address"}],"name":"OwnershipTransferred","type":"event"},{"anonymous":false,"inputs":[{"indexed":false,"internalType":"uint256","name":"newFeePercent","type":"uint256"}],"name":"PlatformFeeUpdated","type":"event"},{"anonymous":false,"inputs":[{"indexed":true,"internalType":"string","name":"agentId","type":"string"},{"indexed":true,"internalType":"address","name":"user","type":"address"},{"indexed":false,"internalType":"uint256","name":"amount","type":"uint256"},{"indexed":false,"internalType":"uint256","name":"creditId","type":"uint256"}],"name":"ServicePaid","type":"event"},{"inputs":[],"name":"agentCount","outputs":[{"internalType":"uint256","name":"","type":"uint256"}],"stateMutability":"view","type":"function"},{"inputs":[{"internalType":"string","name":"","type":"string"}],"name":"agents","outputs":[{"internalType":"string","name":"id","type":"string"},{"internalType":"address payable","name":"creator","type":"address"},{"internalType":"uint256","name":"price","type":"uint256"},{"internalType":"string","name":"metadata","type":"string"},{"internalType":"bool","name":"isActive","type":"bool"}],"stateMutability":"view","type":"function"},{"inputs":[{"internalType":"string","name":"","type":"string"}],"name":"datasets","outputs":[{"internalType":"string","name":"id","type":"string"},{"internalType":"address payable","name":"provider","type":"address"},{"internalType":"uint256","name":"pricePerUse","type":"uint256"},{"internalType":"bool","name":"isActive","type":"bool"}],"stateMutability":"view","type":"function"},{"inputs":[],"name":"owner","outputs":[{"internalType":"address","name":"","type":"address"}],"stateMutability":"view","type":"function"},{"inputs":[{"internalType":"string","name":"_agentId","type":"string"},{"internalType":"address payable","name":"_creator","type":"address"}],"name":"pay","outputs":[],"stateMutability":"payable","type":"function"},{"inputs":[{"internalType":"string","name":"_agentId","type":"string"}],"name":"payForService","outputs":[],"stateMutability":"payable","type":"function"},{"inputs":[],"name":"platformFeePercent","outputs":[{"internalType":"uint256","name":"","type":"uint256"}],"stateMutability":"view","type":"function"},{"inputs":[{"internalType":"string","name":"_agentId","type":"string"},{"internalType":"uint256","name":"_price","type":"uint256"},{"internalType":"string","name":"_metadata","type":"string"},{"internalType":"string[]","name":"_datasetIds","type":"string[]"}],"name":"registerAgent","outputs":[],"stateMutability":"nonpayable","type":"function"},{"inputs":[{"internalType":"string","name":"_datasetId","type":"string"},{"internalType":"uint256","name":"_pricePerUse","type":"uint256"}],"name":"registerDataset","outputs":[],"stateMutability":"nonpayable","type":"function"},{"inputs":[],"name":"renounceOwnership","outputs":[],"stateMutability":"nonpayable","type":"function"},{"inputs":[{"internalType":"uint256","name":"_percent","type":"uint256"}],"name":"setPlatformFee","outputs":[],"stateMutability":"nonpayable","type":"function"},{"inputs":[{"internalType":"address","name":"newOwner","type":"address"}],"name":"transferOwnership","outputs":[],"stateMutability":"nonpayable","type":"function"},{"inputs":[{"internalType":"string","name":"_agentId","type":"string"},{"internalType":"uint256","name":"_price","type":"uint256"},{"internalType":"string","name":"_metadata","type":"string"},{"internalType":"bool","name":"_isActive","type":"bool"}],"name":"updateAgent","outputs":[],"stateMutability":"nonpayable","type":"function"},{"inputs":[],"name":"withdraw","outputs":[],"stateMutability":"nonpayable","type":"function"}],"evm":{"bytecode":{"linkReferences":{},"object":"6080604052600a6003553480156200001657600080fd5b506040516200286b3803806200286b83398181016040528101906200003c919062000200565b80600073ffffffffffffffffffffffffffffffffffffffff168173ffffffffffffffffffffffffffffffffffffffff1603620000b25760006040517f1e4fbdf7000000000000000000000000000000000000000000000000000000008152600401620000a9919062000243565b60405180910390fd5b620000c381620000d260201b60201c565b50600180819055505062000260565b60008060009054906101000a900473ffffffffffffffffffffffffffffffffffffffff169050816000806101000a81548173ffffffffffffffffffffffffffffffffffffffff021916908373ffffffffffffffffffffffffffffffffffffffff1602179055508173ffffffffffffffffffffffffffffffffffffffff168173ffffffffffffffffffffffffffffffffffffffff167f8be0079c531659141344cd1fd0a4f28419497f9722a3daafe3b4186f6b6457e060405160405180910390a35050565b600080fd5b600073ffffffffffffffffffffffffffffffffffffffff82169050919050565b6000620001c8826200019b565b9050919050565b620001da81620001bb565b8114620001e657600080fd5b50565b600081519050620001fa81620001cf565b92915050565b60006020828403121562000219576200021862000196565b5b60006200022984828501620001e9565b91505092915050565b6200023d81620001bb565b82525050565b60006020820190506200025a600083018462000232565b92915050565b6125fb80620002706000396000f3fe6080604052600436106100dd5760003560e01c80638da5cb5b1161007f578063b7dc128411610059578063b7dc128414610242578063cf6ee0cb1461026d578063de570c97146102ae578063f2fde38b146102ee576100dd565b80638da5cb5b146101df578063a5a4fe4c1461020a578063a9ce953a14610226576100dd565b80634e2754f2116100bb5780634e2754f21461014b578063715018a614610174578063737d9a111461018b5780638c639a85146101b4576100dd565b806312e8e2c3146100e257806330b0d2c21461010b5780633ccfd60b14610134575b600080fd5b3480156100ee57600080fd5b506101096004803603810190610104919061145d565b610317565b005b34801561011757600080fd5b50610132600480360381019061012d9190611608565b6103a4565b005b34801561014057600080fd5b50610149610504565b005b34801561015757600080fd5b50610172600480360381019061016d91906116a7565b61055c565b005b34801561018057600080fd5b506101896106a6565b005b34801561019757600080fd5b506101b260048036038101906101ad91906117e9565b6106ba565b005b3480156101c057600080fd5b506101c961090f565b6040516101d691906118b3565b60405180910390f35b3480156101eb57600080fd5b506101f4610915565b604051610201919061190f565b60405180910390f35b610224600480360381019061021f9190611968565b61093e565b005b610240600480360381019061023b91906119c4565b610b5d565b005b34801561024e57600080fd5b50610257610cf2565b60405161026491906118b3565b60405180910390f35b34801561027957600080fd5b50610294600480360381019061028f91906119c4565b610cf8565b6040516102a5959493929190611aaa565b60405180910390f35b3480156102ba57600080fd5b506102d560048036038101906102d091906119c4565b610e81565b6040516102e59493929190611b0b565b60405180910390f35b3480156102fa57600080fd5b5061031560048036038101906103109190611b83565b610f7c565b005b61031f611002565b601e811115610363576040517f08c379a000000000000000000000000000000000000000000000000000000000815260040161035a90611bfc565b60405180910390fd5b806003819055507f45610d581145924dd7090a5017e5f2b1d6f42213bb2e95707ff86846bbfcb1ca8160405161039991906118b3565b60405180910390a150565b3373ffffffffffffffffffffffffffffffffffffffff166004856040516103cb9190611c58565b908152602001604051809103902060010160009054906101000a900473ffffffffffffffffffffffffffffffffffffffff1673ffffffffffffffffffffffffffffffffffffffff1614610453576040517f08c379a000000000000000000000000000000000000000000000000000000000815260040161044a90611cbb565b60405180910390fd5b60006004856040516104659190611c58565b908152602001604051809103902090508381600201819055508281600301908161048f9190611ee7565b50818160040160006101000a81548160ff021916908315150217905550846040516104ba9190611c58565b60405180910390207fc9b6fabf949b5af9645b3253b9e795b3b6740b7b56447269584cadf9f4bd63238585856040516104f593929190611fb9565b60405180910390a25050505050565b61050c611002565b610514610915565b73ffffffffffffffffffffffffffffffffffffffff166108fc479081150290604051600060405180830381858888f19350505050158015610559573d6000803e3d6000fd5b50565b60405180608001604052808381526020013373ffffffffffffffffffffffffffffffffffffffff168152602001828152602001600115158152506005836040516105a69190611c58565b908152602001604051809103902060008201518160000190816105c99190611ee7565b5060208201518160010160006101000a81548173ffffffffffffffffffffffffffffffffffffffff021916908373ffffffffffffffffffffffffffffffffffffffff1602179055506040820151816002015560608201518160030160006101000a81548160ff0219169083151502179055509050503373ffffffffffffffffffffffffffffffffffffffff16826040516106639190611c58565b60405180910390207f495b93f154d2531fecac92f68a6c980915501066b8469b2e290667ee8fb520658360405161069a91906118b3565b60405180910390a35050565b6106ae611002565b6106b86000611089565b565b600073ffffffffffffffffffffffffffffffffffffffff166004856040516106e29190611c58565b908152602001604051809103902060010160009054906101000a900473ffffffffffffffffffffffffffffffffffffffff1673ffffffffffffffffffffffffffffffffffffffff161461076a576040517f08c379a000000000000000000000000000000000000000000000000000000000815260040161076190612043565b60405180910390fd5b6002600081548092919061077d90612092565b91905055506040518060c001604052808581526020013373ffffffffffffffffffffffffffffffffffffffff168152602001848152602001838152602001600115158152602001828152506004856040516107d89190611c58565b908152602001604051809103902060008201518160000190816107fb9190611ee7565b5060208201518160010160006101000a81548173ffffffffffffffffffffffffffffffffffffffff021916908373ffffffffffffffffffffffffffffffffffffffff1602179055506040820151816002015560608201518160030190816108629190611ee7565b5060808201518160040160006101000a81548160ff02191690831515021790555060a082015181600501908051906020019061089f929190611339565b509050503373ffffffffffffffffffffffffffffffffffffffff16846040516108c89190611c58565b60405180910390207f9b790d370d8c9bf68b39af740742782615635030a791cea37af1660ee47428ab85856040516109019291906120da565b60405180910390a350505050565b60035481565b60008060009054906101000a900473ffffffffffffffffffffffffffffffffffffffff16905090565b61094661114d565b60003411610989576040517f08c379a00000000000000000000000000000000000000000000000000000000081526004016109809061217c565b60405180910390fd5b600073ffffffffffffffffffffffffffffffffffffffff166004836040516109b19190611c58565b908152602001604051809103902060010160009054906101000a900473ffffffffffffffffffffffffffffffffffffffff1673ffffffffffffffffffffffffffffffffffffffff1614610aae578073ffffffffffffffffffffffffffffffffffffffff16600483604051610a259190611c58565b908152602001604051809103902060010160009054906101000a900473ffffffffffffffffffffffffffffffffffffffff1673ffffffffffffffffffffffffffffffffffffffff1614610aad576040517f08c379a0000000000000000000000000000000000000000000000000000000008152600401610aa49061220e565b60405180910390fd5b5b610ab83482611193565b6000338342604051602001610acf93929190612297565b6040516020818303038152906040528051906020012060001c90503373ffffffffffffffffffffffffffffffffffffffff1683604051610b0f9190611c58565b60405180910390207fc5ec0595f8f5c7d42b6cb931ab91838a58e8fadf7fb0d2eec444b10f170006513484604051610b489291906122d0565b60405180910390a350610b59611328565b5050565b610b6561114d565b6000600482604051610b779190611c58565b908152602001604051809103902090508060040160009054906101000a900460ff16610bd8576040517f08c379a0000000000000000000000000000000000000000000000000000000008152600401610bcf90612345565b60405180910390fd5b8060020154341015610c1f576040517f08c379a0000000000000000000000000000000000000000000000000000000008152600401610c16906123b1565b60405180910390fd5b610c4d348260010160009054906101000a900473ffffffffffffffffffffffffffffffffffffffff16611193565b6000338342604051602001610c6493929190612297565b6040516020818303038152906040528051906020012060001c90503373ffffffffffffffffffffffffffffffffffffffff1683604051610ca49190611c58565b60405180910390207fc5ec0595f8f5c7d42b6cb931ab91838a58e8fadf7fb0d2eec444b10f170006513484604051610cdd9291906122d0565b60405180910390a35050610cef611328565b50565b60025481565b600481805160208101820180518482526020830160208501208183528095505050505050600091509050806000018054610d3190611d0a565b80601f0160208091040260200160405190810160405280929190818152602001828054610d5d90611d0a565b8015610daa5780601f10610d7f57610100808354040283529160200191610daa565b820191906000526020600020905b815481529060010190602001808311610d8d57829003601f168201915b5050505050908060010160009054906101000a900473ffffffffffffffffffffffffffffffffffffffff1690806002015490806003018054610deb90611d0a565b80601f0160208091040260200160405190810160405280929190818152602001828054610e1790611d0a565b8015610e645780601f10610e3957610100808354040283529160200191610e64565b820191906000526020600020905b815481529060010190602001808311610e4757829003601f168201915b5050505050908060040160009054906101000a900460ff16905085565b600581805160208101820180518482526020830160208501208183528095505050505050600091509050806000018054610eba90611d0a565b80601f0160208091040260200160405190810160405280929190818152602001828054610ee690611d0a565b8015610f335780601f10610f0857610100808354040283529160200191610f33565b820191906000526020600020905b815481529060010190602001808311610f1657829003601f168201915b5050505050908060010160009054906101000a900473ffffffffffffffffffffffffffffffffffffffff16908060020154908060030160009054906101000a900460ff16905084565b610f84611002565b600073ffffffffffffffffffffffffffffffffffffffff168173ffffffffffffffffffffffffffffffffffffffff1603610ff65760006040517f1e4fbdf7000000000000000000000000000000000000000000000000000000008152600401610fed919061190f565b60405180910390fd5b610fff81611089565b50565b61100a611331565b73ffffffffffffffffffffffffffffffffffffffff16611028610915565b73ffffffffffffffffffffffffffffffffffffffff16146110875761104b611331565b6040517f118cdaa700000000000000000000000000000000000000000000000000000000815260040161107e919061190f565b60405180910390fd5b565b60008060009054906101000a900473ffffffffffffffffffffffffffffffffffffffff169050816000806101000a81548173ffffffffffffffffffffffffffffffffffffffff021916908373ffffffffffffffffffffffffffffffffffffffff1602179055508173ffffffffffffffffffffffffffffffffffffffff168173ffffffffffffffffffffffffffffffffffffffff167f8be0079c531659141344cd1fd0a4f28419497f9722a3daafe3b4186f6b6457e060405160405180910390a35050565b600260015403611189576040517f3ee5aeb500000000000000000000000000000000000000000000000000000000815260040160405180910390fd5b6002600181905550565b60006064600354846111a591906123d1565b6111af9190612442565b9050600081846111bf9190612473565b905060006111cb610915565b73ffffffffffffffffffffffffffffffffffffffff16836040516111ee906124d8565b60006040518083038185875af1925050503d806000811461122b576040519150601f19603f3d011682016040523d82523d6000602084013e611230565b606091505b5050905080611274576040517f08c379a000000000000000000000000000000000000000000000000000000000815260040161126b90612539565b60405180910390fd5b60008473ffffffffffffffffffffffffffffffffffffffff168360405161129a906124d8565b60006040518083038185875af1925050503d80600081146112d7576040519150601f19603f3d011682016040523d82523d6000602084013e6112dc565b606091505b5050905080611320576040517f08c379a0000000000000000000000000000000000000000000000000000000008152600401611317906125a5565b60405180910390fd5b505050505050565b60018081905550565b600033905090565b828054828255906000526020600020908101928215611381579160200282015b828111156113805782518290816113709190611ee7565b5091602001919060010190611359565b5b50905061138e9190611392565b5090565b5b808211156113b257600081816113a991906113b6565b50600101611393565b5090565b5080546113c290611d0a565b6000825580601f106113d457506113f3565b601f0160209004906000526020600020908101906113f291906113f6565b5b50565b5b8082111561140f5760008160009055506001016113f7565b5090565b6000604051905090565b600080fd5b600080fd5b6000819050919050565b61143a81611427565b811461144557600080fd5b50565b60008135905061145781611431565b92915050565b6000602082840312156114735761147261141d565b5b600061148184828501611448565b91505092915050565b600080fd5b600080fd5b6000601f19601f8301169050919050565b7f4e487b7100000000000000000000000000000000000000000000000000000000600052604160045260246000fd5b6114dd82611494565b810181811067ffffffffffffffff821117156114fc576114fb6114a5565b5b80604052505050565b600061150f611413565b905061151b82826114d4565b919050565b600067ffffffffffffffff82111561153b5761153a6114a5565b5b61154482611494565b9050602081019050919050565b82818337600083830152505050565b600061157361156e84611520565b611505565b90508281526020810184848401111561158f5761158e61148f565b5b61159a848285611551565b509392505050565b600082601f8301126115b7576115b661148a565b5b81356115c7848260208601611560565b91505092915050565b60008115159050919050565b6115e5816115d0565b81146115f057600080fd5b50565b600081359050611602816115dc565b92915050565b600080600080608085870312156116225761162161141d565b5b600085013567ffffffffffffffff8111156116405761163f611422565b5b61164c878288016115a2565b945050602061165d87828801611448565b935050604085013567ffffffffffffffff81111561167e5761167d611422565b5b61168a878288016115a2565b925050606061169b878288016115f3565b91505092959194509250565b600080604083850312156116be576116bd61141d565b5b600083013567ffffffffffffffff8111156116dc576116db611422565b5b6116e8858286016115a2565b92505060206116f985828601611448565b9150509250929050565b600067ffffffffffffffff82111561171e5761171d6114a5565b5b602082029050602081019050919050565b600080fd5b600061174761174284611703565b611505565b9050808382526020820190506020840283018581111561176a5761176961172f565b5b835b818110156117b157803567ffffffffffffffff81111561178f5761178e61148a565b5b80860161179c89826115a2565b8552602085019450505060208101905061176c565b5050509392505050565b600082601f8301126117d0576117cf61148a565b5b81356117e0848260208601611734565b91505092915050565b600080600080608085870312156118035761180261141d565b5b600085013567ffffffffffffffff81111561182157611820611422565b5b61182d878288016115a2565b945050602061183e87828801611448565b935050604085013567ffffffffffffffff81111561185f5761185e611422565b5b61186b878288016115a2565b925050606085013567ffffffffffffffff81111561188c5761188b611422565b5b611898878288016117bb565b91505092959194509250565b6118ad81611427565b82525050565b60006020820190506118c860008301846118a4565b92915050565b600073ffffffffffffffffffffffffffffffffffffffff82169050919050565b60006118f9826118ce565b9050919050565b611909816118ee565b82525050565b60006020820190506119246000830184611900565b92915050565b6000611935826118ce565b9050919050565b6119458161192a565b811461195057600080fd5b50565b6000813590506119628161193c565b92915050565b6000806040838503121561197f5761197e61141d565b5b600083013567ffffffffffffffff81111561199d5761199c611422565b5b6119a9858286016115a2565b92505060206119ba85828601611953565b9150509250929050565b6000602082840312156119da576119d961141d565b5b600082013567ffffffffffffffff8111156119f8576119f7611422565b5b611a04848285016115a2565b91505092915050565b600081519050919050565b600082825260208201905092915050565b60005b83811015611a47578082015181840152602081019050611a2c565b60008484015250505050565b6000611a5e82611a0d565b611a688185611a18565b9350611a78818560208601611a29565b611a8181611494565b840191505092915050565b611a958161192a565b82525050565b611aa4816115d0565b82525050565b600060a0820190508181036000830152611ac48188611a53565b9050611ad36020830187611a8c565b611ae060408301866118a4565b8181036060830152611af28185611a53565b9050611b016080830184611a9b565b9695505050505050565b60006080820190508181036000830152611b258187611a53565b9050611b346020830186611a8c565b611b4160408301856118a4565b611b4e6060830184611a9b565b95945050505050565b611b60816118ee565b8114611b6b57600080fd5b50565b600081359050611b7d81611b57565b92915050565b600060208284031215611b9957611b9861141d565b5b6000611ba784828501611b6e565b91505092915050565b7f46656520746f6f20686967680000000000000000000000000000000000000000600082015250565b6000611be6600c83611a18565b9150611bf182611bb0565b602082019050919050565b60006020820190508181036000830152611c1581611bd9565b9050919050565b600081905092915050565b6000611c3282611a0d565b611c3c8185611c1c565b9350611c4c818560208601611a29565b80840191505092915050565b6000611c648284611c27565b915081905092915050565b7f4f6e6c792063726561746f722063616e20757064617465206167656e74000000600082015250565b6000611ca5601d83611a18565b9150611cb082611c6f565b602082019050919050565b60006020820190508181036000830152611cd481611c98565b9050919050565b7f4e487b7100000000000000000000000000000000000000000000000000000000600052602260045260246000fd5b60006002820490506001821680611d2257607f821691505b602082108103611d3557611d34611cdb565b5b50919050565b60008190508160005260206000209050919050565b60006020601f8301049050919050565b600082821b905092915050565b600060088302611d9d7fffffffffffffffffffffffffffffffffffffffffffffffffffffffffffffffff82611d60565b611da78683611d60565b95508019841693508086168417925050509392505050565b6000819050919050565b6000611de4611ddf611dda84611427565b611dbf565b611427565b9050919050565b6000819050919050565b611dfe83611dc9565b611e12611e0a82611deb565b848454611d6d565b825550505050565b600090565b611e27611e1a565b611e32818484611df5565b505050565b5b81811015611e5657611e4b600082611e1f565b600181019050611e38565b5050565b601f821115611e9b57611e6c81611d3b565b611e7584611d50565b81016020851015611e84578190505b611e98611e9085611d50565b830182611e37565b50505b505050565b600082821c905092915050565b6000611ebe60001984600802611ea0565b1980831691505092915050565b6000611ed78383611ead565b9150826002028217905092915050565b611ef082611a0d565b67ffffffffffffffff811115611f0957611f086114a5565b5b611f138254611d0a565b611f1e828285611e5a565b600060209050601f831160018114611f515760008415611f3f578287015190505b611f498582611ecb565b865550611fb1565b601f198416611f5f86611d3b565b60005b82811015611f8757848901518255600182019150602085019450602081019050611f62565b86831015611fa45784890151611fa0601f891682611ead565b8355505b6001600288020188555050505b505050505050565b6000606082019050611fce60008301866118a4565b8181036020830152611fe08185611a53565b9050611fef6040830184611a9b565b949350505050565b7f4167656e7420494420616c726561647920657869737473000000000000000000600082015250565b600061202d601783611a18565b915061203882611ff7565b602082019050919050565b6000602082019050818103600083015261205c81612020565b9050919050565b7f4e487b7100000000000000000000000000000000000000000000000000000000600052601160045260246000fd5b600061209d82611427565b91507fffffffffffffffffffffffffffffffffffffffffffffffffffffffffffffffff82036120cf576120ce612063565b5b600182019050919050565b60006040820190506120ef60008301856118a4565b81810360208301526121018184611a53565b90509392505050565b7f5061796d656e7420616d6f756e74206d7573742062652067726561746572207460008201527f68616e2030000000000000000000000000000000000000000000000000000000602082015250565b6000612166602583611a18565b91506121718261210a565b604082019050919050565b6000602082019050818103600083015261219581612159565b9050919050565b7f43726561746f72206d69736d617463682077697468207265676973746572656460008201527f206167656e740000000000000000000000000000000000000000000000000000602082015250565b60006121f8602683611a18565b91506122038261219c565b604082019050919050565b60006020820190508181036000830152612227816121eb565b9050919050565b60008160601b9050919050565b60006122468261222e565b9050919050565b60006122588261223b565b9050919050565b61227061226b826118ee565b61224d565b82525050565b6000819050919050565b61229161228c82611427565b612276565b82525050565b60006122a3828661225f565b6014820191506122b38285611c27565b91506122bf8284612280565b602082019150819050949350505050565b60006040820190506122e560008301856118a4565b6122f260208301846118a4565b9392505050565b7f4167656e74206973206e6f742061637469766500000000000000000000000000600082015250565b600061232f601383611a18565b915061233a826122f9565b602082019050919050565b6000602082019050818103600083015261235e81612322565b9050919050565b7f496e73756666696369656e74207061796d656e74000000000000000000000000600082015250565b600061239b601483611a18565b91506123a682612365565b602082019050919050565b600060208201905081810360008301526123ca8161238e565b9050919050565b60006123dc82611427565b91506123e783611427565b92508282026123f581611427565b9150828204841483151761240c5761240b612063565b5b5092915050565b7f4e487b7100000000000000000000000000000000000000000000000000000000600052601260045260246000fd5b600061244d82611427565b915061245883611427565b92508261246857612467612413565b5b828204905092915050565b600061247e82611427565b915061248983611427565b92508282039050818111156124a1576124a0612063565b5b92915050565b600081905092915050565b50565b60006124c26000836124a7565b91506124cd826124b2565b600082019050919050565b60006124e3826124b5565b9150819050919050565b7f506c6174666f726d20666565207472616e73666572206661696c656400000000600082015250565b6000612523601c83611a18565b915061252e826124ed565b602082019050919050565b6000602082019050818103600083015261255281612516565b9050919050565b7f43726561746f72207368617265207472616e73666572206661696c6564000000600082015250565b600061258f601d83611a18565b915061259a82612559565b602082019050919050565b600060208201905081810360008301526125be81612582565b905091905056fea2646970667358221220cabaff5954ec15f4d2523a2edefd9b7778f2080fb5d7a373a7d9e95c95b0f6df64736f6c63430008140033","opcodes":"PUSH1 0x80 PUSH1 0x40 MSTORE PUSH1 0xA PUSH1 0x3 SSTORE CALLVALUE DUP1 ISZERO PUSH3 0x16 JUMPI PUSH1 0x0 DUP1 REVERT JUMPDEST POP PUSH1 0x40 MLOAD PUSH3 0x286B CODESIZE SUB DUP1 PUSH3 0x286B DUP4 CODECOPY DUP2 DUP2 ADD PUSH1 0x40 MSTORE DUP2 ADD SWAP1 PUSH3 0x3C SWAP2 SWAP1 PUSH3 0x200 JUMP JUMPDEST DUP1 PUSH1 0x0 PUSH20 0xFFFFFFFFFFFFFFFFFFFFFFFFFFFFFFFFFFFFFFFF AND DUP2 PUSH20 0xFFFFFFFFFFFFFFFFFFFFFFFFFFFFFFFFFFFFFFFF AND SUB PUSH3 0xB2 JUMPI PUSH1 0x0 PUSH1 0x40 MLOAD PUSH32 0x1E4FBDF700000000000000000000000000000000000000000000000000000000 DUP2 MSTORE PUSH1 0x4 ADD PUSH3 0xA9 SWAP2 SWAP1 PUSH3 0x243 JUMP JUMPDEST PUSH1 0x40 MLOAD DUP1 SWAP2 SUB SWAP1 REVERT JUMPDEST PUSH3 0xC3 DUP2 PUSH3 0xD2 PUSH1 0x20 SHL PUSH1 0x20 SHR JUMP JUMPDEST POP PUSH1 0x1 DUP1 DUP2 SWAP1 SSTORE POP POP PUSH3 0x260 JUMP JUMPDEST PUSH1 0x0 DUP1 PUSH1 0x0 SWAP1 SLOAD SWAP1 PUSH2 0x100 EXP SWAP1 DIV PUSH20 0xFFFFFFFFFFFFFFFFFFFFFFFFFFFFFFFFFFFFFFFF AND SWAP1 POP DUP2 PUSH1 0x0 DUP1 PUSH2 0x100 EXP DUP2 SLOAD DUP2 PUSH20 0xFFFFFFFFFFFFFFFFFFFFFFFFFFFFFFFFFFFFFFFF MUL NOT AND SWAP1 DUP4 PUSH20 0xFFFFFFFFFFFFFFFFFFFFFFFFFFFFFFFFFFFFFFFF AND MUL OR SWAP1 SSTORE POP DUP2 PUSH20 0xFFFFFFFFFFFFFFFFFFFFFFFFFFFFFFFFFFFFFFFF AND DUP2 PUSH20 0xFFFFFFFFFFFFFFFFFFFFFFFFFFFFFFFFFFFFFFFF AND PUSH32 0x8BE0079C531659141344CD1FD0A4F28419497F9722A3DAAFE3B4186F6B6457E0 PUSH1 0x40 MLOAD PUSH1 0x40 MLOAD DUP1 SWAP2 SUB SWAP1 LOG3 POP POP JUMP JUMPDEST PUSH1 0x0 DUP1 REVERT JUMPDEST PUSH1 0x0 PUSH20 0xFFFFFFFFFFFFFFFFFFFFFFFFFFFFFFFFFFFFFFFF DUP3 AND SWAP1 POP SWAP2 SWAP1 POP JUMP JUMPDEST PUSH1 0x0 PUSH3 0x1C8 DUP3 PUSH3 0x19B JUMP JUMPDEST SWAP1 POP SWAP2 SWAP1 POP JUMP JUMPDEST PUSH3 0x1DA DUP2 PUSH3 0x1BB JUMP JUMPDEST DUP2 EQ PUSH3 0x1E6 JUMPI PUSH1 0x0 DUP1 REVERT JUMPDEST POP JUMP JUMPDEST PUSH1 0x0 DUP2 MLOAD SWAP1 POP PUSH3 0x1FA DUP2 PUSH3 0x1CF JUMP JUMPDEST SWAP3 SWAP2 POP POP JUMP JUMPDEST PUSH1 0x0 PUSH1 0x20 DUP3 DUP5 SUB SLT ISZERO PUSH3 0x219 JUMPI PUSH3 0x218 PUSH3 0x196 JUMP JUMPDEST JUMPDEST PUSH1 0x0 PUSH3 0x229 DUP5 DUP3 DUP6 ADD PUSH3 0x1E9 JUMP JUMPDEST SWAP2 POP POP SWAP3 SWAP2 POP POP JUMP JUMPDEST PUSH3 0x23D DUP2 PUSH3 0x1BB JUMP JUMPDEST DUP3 MSTORE POP POP JUMP JUMPDEST PUSH1 0x0 PUSH1 0x20 DUP3 ADD SWAP1 POP PUSH3 0x25A PUSH1 0x0 DUP4 ADD DUP5 PUSH3 0x232 JUMP JUMPDEST SWAP3 SWAP2 POP POP JUMP JUMPDEST PUSH2 0x25FB DUP1 PUSH3 0x270 PUSH1 0x0 CODECOPY PUSH1 0x0 RETURN INVALID PUSH1 0x80 PUSH1 0x40 MSTORE PUSH1 0x4 CALLDATASIZE LT PUSH2 0xDD JUMPI PUSH1 0x0 CALLDATALOAD PUSH1 0xE0 SHR DUP1 PUSH4 0x8DA5CB5B GT PUSH2 0x7F JUMPI DUP1 PUSH4 0xB7DC1284 GT PUSH2 0x59 JUMPI DUP1 PUSH4 0xB7DC1284 EQ PUSH2 0x242 JUMPI DUP1 PUSH4 0xCF6EE0CB EQ PUSH2 0x26D JUMPI DUP1 PUSH4 0xDE570C97 EQ PUSH2 0x2AE JUMPI DUP1 PUSH4 0xF2FDE38B EQ PUSH2 0x2EE JUMPI PUSH2 0xDD JUMP JUMPDEST DUP1 PUSH4 0x8DA5CB5B EQ PUSH2 0x1DF JUMPI DUP1 PUSH4 0xA5A4FE4C EQ PUSH2 0x20A JUMPI DUP1 PUSH4 0xA9CE953A EQ PUSH2 0x226 JUMPI PUSH2 0xDD JUMP JUMPDEST DUP1 PUSH4 0x4E2754F2 GT PUSH2 0xBB JUMPI DUP1 PUSH4 0x4E2754F2 EQ PUSH2 0x14B JUMPI DUP1 PUSH4 0x715018A6 EQ PUSH2 0x174 JUMPI DUP1 PUSH4 0x737D9A11 EQ PUSH2 0x18B JUMPI DUP1 PUSH4 0x8C639A85 EQ PUSH2 0x1B4 JUMPI PUSH2 0xDD JUMP JUMPDEST DUP1 PUSH4 0x12E8E2C3 EQ PUSH2 0xE2 JUMPI DUP1 PUSH4 0x30B0D2C2 EQ PUSH2 0x10B JUMPI DUP1 PUSH4 0x3CCFD60B EQ PUSH2 0x134 JUMPI JUMPDEST PUSH1 0x0 DUP1 REVERT JUMPDEST CALLVALUE DUP1 ISZERO PUSH2 0xEE JUMPI PUSH1 0x0 DUP1 REVERT JUMPDEST POP PUSH2 0x109 PUSH1 0x4 DUP1 CALLDATASIZE SUB DUP2 ADD SWAP1 PUSH2 0x104 SWAP2 SWAP1 PUSH2 0x145D JUMP JUMPDEST PUSH2 0x317 JUMP JUMPDEST STOP JUMPDEST CALLVALUE DUP1 ISZERO PUSH2 0x117 JUMPI PUSH1 0x0 DUP1 REVERT JUMPDEST POP PUSH2 0x132 PUSH1 0x4 DUP1 CALLDATASIZE SUB DUP2 ADD SWAP1 PUSH2 0x12D SWAP2 SWAP1 PUSH2 0x1608 JUMP JUMPDEST PUSH2 0x3A4 JUMP JUMPDEST STOP JUMPDEST CALLVALUE DUP1 ISZERO PUSH2 0x140 JUMPI PUSH1 0x0 DUP1 REVERT JUMPDEST POP PUSH2 0x149 PUSH2 0x504 JUMP JUMPDEST STOP JUMPDEST CALLVALUE DUP1 ISZERO PUSH2 0x157 JUMPI PUSH1 0x0 DUP1 REVERT JUMPDEST POP PUSH2 0x172 PUSH1 0x4 DUP1 CALLDATASIZE SUB DUP2 ADD SWAP1 PUSH2 0x16D SWAP2 SWAP1 PUSH2 0x16A7 JUMP JUMPDEST PUSH2 0x55C JUMP JUMPDEST STOP JUMPDEST CALLVALUE DUP1 ISZERO PUSH2 0x180 JUMPI PUSH1 0x0 DUP1 REVERT JUMPDEST POP PUSH2 0x189 PUSH2 0x6A6 JUMP JUMPDEST STOP JUMPDEST CALLVALUE DUP1 ISZERO PUSH2 0x197 JUMPI PUSH1 0x0 DUP1 REVERT JUMPDEST POP PUSH2 0x1B2 PUSH1 0x4 DUP1 CALLDATASIZE SUB DUP2 ADD SWAP1 PUSH2 0x1AD SWAP2 SWAP1 PUSH2 0x17E9 JUMP JUMPDEST PUSH2 0x6BA JUMP JUMPDEST STOP JUMPDEST CALLVALUE DUP1 ISZERO PUSH2 0x1C0 JUMPI PUSH1 0x0 DUP1 REVERT JUMPDEST POP PUSH2 0x1C9 PUSH2 0x90F JUMP JUMPDEST PUSH1 0x40 MLOAD PUSH2 0x1D6 SWAP2 SWAP1 PUSH2 0x18B3 JUMP JUMPDEST PUSH1 0x40 MLOAD DUP1 SWAP2 SUB SWAP1 RETURN JUMPDEST CALLVALUE DUP1 ISZERO PUSH2 0x1EB JUMPI PUSH1 0x0 DUP1 REVERT JUMPDEST POP PUSH2 0x1F4 PUSH2 0x915 JUMP JUMPDEST PUSH1 0x40 MLOAD PUSH2 0x201 SWAP2 SWAP1 PUSH2 0x190F JUMP JUMPDEST PUSH1 0x40 MLOAD DUP1 SWAP2 SUB SWAP1 RETURN JUMPDEST PUSH2 0x224 PUSH1 0x4 DUP1 CALLDATASIZE SUB DUP2 ADD SWAP1 PUSH2 0x21F SWAP2 SWAP1 PUSH2 0x1968 JUMP JUMPDEST PUSH2 0x93E JUMP JUMPDEST STOP JUMPDEST PUSH2 0x240 PUSH1 0x4 DUP1 CALLDATASIZE SUB DUP2 ADD SWAP1 PUSH2 0x23B SWAP2 SWAP1 PUSH2 0x19C4 JUMP JUMPDEST PUSH2 0xB5D JUMP JUMPDEST STOP JUMPDEST CALLVALUE DUP1 ISZERO PUSH2 0x24E JUMPI PUSH1 0x0 DUP1 REVERT JUMPDEST POP PUSH2 0x257 PUSH2 0xCF2 JUMP JUMPDEST PUSH1 0x40 MLOAD PUSH2 0x264 SWAP2 SWAP1 PUSH2 0x18B3 JUMP JUMPDEST PUSH1 0x40 MLOAD DUP1 SWAP2 SUB SWAP1 RETURN JUMPDEST CALLVALUE DUP1 ISZERO PUSH2 0x279 JUMPI PUSH1 0x0 DUP1 REVERT JUMPDEST POP PUSH2 0x294 PUSH1 0x4 DUP1 CALLDATASIZE SUB DUP2 ADD SWAP1 PUSH2 0x28F SWAP2 SWAP1 PUSH2 0x19C4 JUMP JUMPDEST PUSH2 0xCF8 JUMP JUMPDEST PUSH1 0x40 MLOAD PUSH2 0x2A5 SWAP6 SWAP5 SWAP4 SWAP3 SWAP2 SWAP1 PUSH2 0x1AAA JUMP JUMPDEST PUSH1 0x40 MLOAD DUP1 SWAP2 SUB SWAP1 RETURN JUMPDEST CALLVALUE DUP1 ISZERO PUSH2 0x2BA JUMPI PUSH1 0x0 DUP1 REVERT JUMPDEST POP PUSH2 0x2D5 PUSH1 0x4 DUP1 CALLDATASIZE SUB DUP2 ADD SWAP1 PUSH2 0x2D0 SWAP2 SWAP1 PUSH2 0x19C4 JUMP JUMPDEST PUSH2 0xE81 JUMP JUMPDEST PUSH1 0x40 MLOAD PUSH2 0x2E5 SWAP5 SWAP4 SWAP3 SWAP2 SWAP1 PUSH2 0x1B0B JUMP JUMPDEST PUSH1 0x40 MLOAD DUP1 SWAP2 SUB SWAP1 RETURN JUMPDEST CALLVALUE DUP1 ISZERO PUSH2 0x2FA JUMPI PUSH1 0x0 DUP1 REVERT JUMPDEST POP PUSH2 0x315 PUSH1 0x4 DUP1 CALLDATASIZE SUB DUP2 ADD SWAP1 PUSH2 0x310 SWAP2 SWAP1 PUSH2 0x1B83 JUMP JUMPDEST PUSH2 0xF7C JUMP JUMPDEST STOP JUMPDEST PUSH2 0x31F PUSH2 0x1002 JUMP JUMPDEST PUSH1 0x1E DUP2 GT ISZERO PUSH2 0x363 JUMPI PUSH1 0x40 MLOAD PUSH32 0x8C379A000000000000000000000000000000000000000000000000000000000 DUP2 MSTORE PUSH1 0x4 ADD PUSH2 0x35A SWAP1 PUSH2 0x1BFC JUMP JUMPDEST PUSH1 0x40 MLOAD DUP1 SWAP2 SUB SWAP1 REVERT JUMPDEST DUP1 PUSH1 0x3 DUP2 SWAP1 SSTORE POP PUSH32 0x45610D581145924DD7090A5017E5F2B1D6F42213BB2E95707FF86846BBFCB1CA DUP2 PUSH1 0x40 MLOAD PUSH2 0x399 SWAP2 SWAP1 PUSH2 0x18B3 JUMP JUMPDEST PUSH1 0x40 MLOAD DUP1 SWAP2 SUB SWAP1 LOG1 POP JUMP JUMPDEST CALLER PUSH20 0xFFFFFFFFFFFFFFFFFFFFFFFFFFFFFFFFFFFFFFFF AND PUSH1 0x4 DUP6 PUSH1 0x40 MLOAD PUSH2 0x3CB SWAP2 SWAP1 PUSH2 0x1C58 JUMP JUMPDEST SWAP1 DUP2 MSTORE PUSH1 0x20 ADD PUSH1 0x40 MLOAD DUP1 SWAP2 SUB SWAP1 KECCAK256 PUSH1 0x1 ADD PUSH1 0x0 SWAP1 SLOAD SWAP1 PUSH2 0x100 EXP SWAP1 DIV PUSH20 0xFFFFFFFFFFFFFFFFFFFFFFFFFFFFFFFFFFFFFFFF AND PUSH20 0xFFFFFFFFFFFFFFFFFFFFFFFFFFFFFFFFFFFFFFFF AND EQ PUSH2 0x453 JUMPI PUSH1 0x40 MLOAD PUSH32 0x8C379A000000000000000000000000000000000000000000000000000000000 DUP2 MSTORE PUSH1 0x4 ADD PUSH2 0x44A SWAP1 PUSH2 0x1CBB JUMP JUMPDEST PUSH1 0x40 MLOAD DUP1 SWAP2 SUB SWAP1 REVERT JUMPDEST PUSH1 0x0 PUSH1 0x4 DUP6 PUSH1 0x40 MLOAD PUSH2 0x465 SWAP2 SWAP1 PUSH2 0x1C58 JUMP JUMPDEST SWAP1 DUP2 MSTORE PUSH1 0x20 ADD PUSH1 0x40 MLOAD DUP1 SWAP2 SUB SWAP1 KECCAK256 SWAP1 POP DUP4 DUP2 PUSH1 0x2 ADD DUP2 SWAP1 SSTORE POP DUP3 DUP2 PUSH1 0x3 ADD SWAP1 DUP2 PUSH2 0x48F SWAP2 SWAP1 PUSH2 0x1EE7 JUMP JUMPDEST POP DUP2 DUP2 PUSH1 0x4 ADD PUSH1 0x0 PUSH2 0x100 EXP DUP2 SLOAD DUP2 PUSH1 0xFF MUL NOT AND SWAP1 DUP4 ISZERO ISZERO MUL OR SWAP1 SSTORE POP DUP5 PUSH1 0x40 MLOAD PUSH2 0x4BA SWAP2 SWAP1 PUSH2 0x1C58 JUMP JUMPDEST PUSH1 0x40 MLOAD DUP1 SWAP2 SUB SWAP1 KECCAK256 PUSH32 0xC9B6FABF949B5AF9645B3253B9E795B3B6740B7B56447269584CADF9F4BD6323 DUP6 DUP6 DUP6 PUSH1 0x40 MLOAD PUSH2 0x4F5 SWAP4 SWAP3 SWAP2 SWAP1 PUSH2 0x1FB9 JUMP JUMPDEST PUSH1 0x40 MLOAD DUP1 SWAP2 SUB SWAP1 LOG2 POP POP POP POP POP JUMP JUMPDEST PUSH2 0x50C PUSH2 0x1002 JUMP JUMPDEST PUSH2 0x514 PUSH2 0x915 JUMP JUMPDEST PUSH20 0xFFFFFFFFFFFFFFFFFFFFFFFFFFFFFFFFFFFFFFFF AND PUSH2 0x8FC SELFBALANCE SWAP1 DUP2 ISZERO MUL SWAP1 PUSH1 0x40 MLOAD PUSH1 0x0 PUSH1 0x40 MLOAD DUP1 DUP4 SUB DUP2 DUP6 DUP9 DUP9 CALL SWAP4 POP POP POP POP ISZERO DUP1 ISZERO PUSH2 0x559 JUMPI RETURNDATASIZE PUSH1 0x0 DUP1 RETURNDATACOPY RETURNDATASIZE PUSH1 0x0 REVERT JUMPDEST POP JUMP JUMPDEST PUSH1 0x40 MLOAD DUP1 PUSH1 0x80 ADD PUSH1 0x40 MSTORE DUP1 DUP4 DUP2 MSTORE PUSH1 0x20 ADD CALLER PUSH20 0xFFFFFFFFFFFFFFFFFFFFFFFFFFFFFFFFFFFFFFFF AND DUP2 MSTORE PUSH1 0x20 ADD DUP3 DUP2 MSTORE PUSH1 0x20 ADD PUSH1 0x1 ISZERO ISZERO DUP2 MSTORE POP PUSH1 0x5 DUP4 PUSH1 0x40 MLOAD PUSH2 0x5A6 SWAP2 SWAP1 PUSH2 0x1C58 JUMP JUMPDEST SWAP1 DUP2 MSTORE PUSH1 0x20 ADD PUSH1 0x40 MLOAD DUP1 SWAP2 SUB SWAP1 KECCAK256 PUSH1 0x0 DUP3 ADD MLOAD DUP2 PUSH1 0x0 ADD SWAP1 DUP2 PUSH2 0x5C9 SWAP2 SWAP1 PUSH2 0x1EE7 JUMP JUMPDEST POP PUSH1 0x20 DUP3 ADD MLOAD DUP2 PUSH1 0x1 ADD PUSH1 0x0 PUSH2 0x100 EXP DUP2 SLOAD DUP2 PUSH20 0xFFFFFFFFFFFFFFFFFFFFFFFFFFFFFFFFFFFFFFFF MUL NOT AND SWAP1 DUP4 PUSH20 0xFFFFFFFFFFFFFFFFFFFFFFFFFFFFFFFFFFFFFFFF AND MUL OR SWAP1 SSTORE POP PUSH1 0x40 DUP3 ADD MLOAD DUP2 PUSH1 0x2 ADD SSTORE PUSH1 0x60 DUP3 ADD MLOAD DUP2 PUSH1 0x3 ADD PUSH1 0x0 PUSH2 0x100 EXP DUP2 SLOAD DUP2 PUSH1 0xFF MUL NOT AND SWAP1 DUP4 ISZERO ISZERO MUL OR SWAP1 SSTORE POP SWAP1 POP POP CALLER PUSH20 0xFFFFFFFFFFFFFFFFFFFFFFFFFFFFFFFFFFFFFFFF AND DUP3 PUSH1 0x40 MLOAD PUSH2 0x663 SWAP2 SWAP1 PUSH2 0x1C58 JUMP JUMPDEST PUSH1 0x40 MLOAD DUP1 SWAP2 SUB SWAP1 KECCAK256 PUSH32 0x495B93F154D2531FECAC92F68A6C980915501066B8469B2E290667EE8FB52065 DUP4 PUSH1 0x40 MLOAD PUSH2 0x69A SWAP2 SWAP1 PUSH2 0x18B3 JUMP JUMPDEST PUSH1 0x40 MLOAD DUP1 SWAP2 SUB SWAP1 LOG3 POP POP JUMP JUMPDEST PUSH2 0x6AE PUSH2 0x1002 JUMP JUMPDEST PUSH2 0x6B8 PUSH1 0x0 PUSH2 0x1089 JUMP JUMPDEST JUMP JUMPDEST PUSH1 0x0 PUSH20 0xFFFFFFFFFFFFFFFFFFFFFFFFFFFFFFFFFFFFFFFF AND PUSH1 0x4 DUP6 PUSH1 0x40 MLOAD PUSH2 0x6E2 SWAP2 SWAP1 PUSH2 0x1C58 JUMP JUMPDEST SWAP1 DUP2 MSTORE PUSH1 0x20 ADD PUSH1 0x40 MLOAD DUP1 SWAP2 SUB SWAP1 KECCAK256 PUSH1 0x1 ADD PUSH1 0x0 SWAP1 SLOAD SWAP1 PUSH2 0x100 EXP SWAP1 DIV PUSH20 0xFFFFFFFFFFFFFFFFFFFFFFFFFFFFFFFFFFFFFFFF AND PUSH20 0xFFFFFFFFFFFFFFFFFFFFFFFFFFFFFFFFFFFFFFFF AND EQ PUSH2 0x76A JUMPI PUSH1 0x40 MLOAD PUSH32 0x8C379A000000000000000000000000000000000000000000000000000000000 DUP2 MSTORE PUSH1 0x4 ADD PUSH2 0x761 SWAP1 PUSH2 0x2043 JUMP JUMPDEST PUSH1 0x40 MLOAD DUP1 SWAP2 SUB SWAP1 REVERT JUMPDEST PUSH1 0x2 PUSH1 0x0 DUP2 SLOAD DUP1 SWAP3 SWAP2 SWAP1 PUSH2 0x77D SWAP1 PUSH2 0x2092 JUMP JUMPDEST SWAP2 SWAP1 POP SSTORE POP PUSH1 0x40 MLOAD DUP1 PUSH1 0xC0 ADD PUSH1 0x40 MSTORE DUP1 DUP6 DUP2 MSTORE PUSH1 0x20 ADD CALLER PUSH20 0xFFFFFFFFFFFFFFFFFFFFFFFFFFFFFFFFFFFFFFFF AND DUP2 MSTORE PUSH1 0x20 ADD DUP5 DUP2 MSTORE PUSH1 0x20 ADD DUP4 DUP2 MSTORE PUSH1 0x20 ADD PUSH1 0x1 ISZERO ISZERO DUP2 MSTORE PUSH1 0x20 ADD DUP3 DUP2 MSTORE POP PUSH1 0x4 DUP6 PUSH1 0x40 MLOAD PUSH2 0x7D8 SWAP2 SWAP1 PUSH2 0x1C58 JUMP JUMPDEST SWAP1 DUP2 MSTORE PUSH1 0x20 ADD PUSH1 0x40 MLOAD DUP1 SWAP2 SUB SWAP1 KECCAK256 PUSH1 0x0 DUP3 ADD MLOAD DUP2 PUSH1 0x0 ADD SWAP1 DUP2 PUSH2 0x7FB SWAP2 SWAP1 PUSH2 0x1EE7 JUMP JUMPDEST POP PUSH1 0x20 DUP3 ADD MLOAD DUP2 PUSH1 0x1 ADD PUSH1 0x0 PUSH2 0x100 EXP DUP2 SLOAD DUP2 PUSH20 0xFFFFFFFFFFFFFFFFFFFFFFFFFFFFFFFFFFFFFFFF MUL NOT AND SWAP1 DUP4 PUSH20 0xFFFFFFFFFFFFFFFFFFFFFFFFFFFFFFFFFFFFFFFF AND MUL OR SWAP1 SSTORE POP PUSH1 0x40 DUP3 ADD MLOAD DUP2 PUSH1 0x2 ADD SSTORE PUSH1 0x60 DUP3 ADD MLOAD DUP2 PUSH1 0x3 ADD SWAP1 DUP2 PUSH2 0x862 SWAP2 SWAP1 PUSH2 0x1EE7 JUMP JUMPDEST POP PUSH1 0x80 DUP3 ADD MLOAD DUP2 PUSH1 0x4 ADD PUSH1 0x0 PUSH2 0x100 EXP DUP2 SLOAD DUP2 PUSH1 0xFF MUL NOT AND SWAP1 DUP4 ISZERO ISZERO MUL OR SWAP1 SSTORE POP PUSH1 0xA0 DUP3 ADD MLOAD DUP2 PUSH1 0x5 ADD SWAP1 DUP1 MLOAD SWAP1 PUSH1 0x20 ADD SWAP1 PUSH2 0x89F SWAP3 SWAP2 SWAP1 PUSH2 0x1339 JUMP JUMPDEST POP SWAP1 POP POP CALLER PUSH20 0xFFFFFFFFFFFFFFFFFFFFFFFFFFFFFFFFFFFFFFFF AND DUP5 PUSH1 0x40 MLOAD PUSH2 0x8C8 SWAP2 SWAP1 PUSH2 0x1C58 JUMP JUMPDEST PUSH1 0x40 MLOAD DUP1 SWAP2 SUB SWAP1 KECCAK256 PUSH32 0x9B790D370D8C9BF68B39AF740742782615635030A791CEA37AF1660EE47428AB DUP6 DUP6 PUSH1 0x40 MLOAD PUSH2 0x901 SWAP3 SWAP2 SWAP1 PUSH2 0x20DA JUMP JUMPDEST PUSH1 0x40 MLOAD DUP1 SWAP2 SUB SWAP1 LOG3 POP POP POP POP JUMP JUMPDEST PUSH1 0x3 SLOAD DUP2 JUMP JUMPDEST PUSH1 0x0 DUP1 PUSH1 0x0 SWAP1 SLOAD SWAP1 PUSH2 0x100 EXP SWAP1 DIV PUSH20 0xFFFFFFFFFFFFFFFFFFFFFFFFFFFFFFFFFFFFFFFF AND SWAP1 POP SWAP1 JUMP JUMPDEST PUSH2 0x946 PUSH2 0x114D JUMP JUMPDEST PUSH1 0x0 CALLVALUE GT PUSH2 0x989 JUMPI PUSH1 0x40 MLOAD PUSH32 0x8C379A000000000000000000000000000000000000000000000000000000000 DUP2 MSTORE PUSH1 0x4 ADD PUSH2 0x980 SWAP1 PUSH2 0x217C JUMP JUMPDEST PUSH1 0x40 MLOAD DUP1 SWAP2 SUB SWAP1 REVERT JUMPDEST PUSH1 0x0 PUSH20 0xFFFFFFFFFFFFFFFFFFFFFFFFFFFFFFFFFFFFFFFF AND PUSH1 0x4 DUP4 PUSH1 0x40 MLOAD PUSH2 0x9B1 SWAP2 SWAP1 PUSH2 0x1C58 JUMP JUMPDEST SWAP1 DUP2 MSTORE PUSH1 0x20 ADD PUSH1 0x40 MLOAD DUP1 SWAP2 SUB SWAP1 KECCAK256 PUSH1 0x1 ADD PUSH1 0x0 SWAP1 SLOAD SWAP1 PUSH2 0x100 EXP SWAP1 DIV PUSH20 0xFFFFFFFFFFFFFFFFFFFFFFFFFFFFFFFFFFFFFFFF AND PUSH20 0xFFFFFFFFFFFFFFFFFFFFFFFFFFFFFFFFFFFFFFFF AND EQ PUSH2 0xAAE JUMPI DUP1 PUSH20 0xFFFFFFFFFFFFFFFFFFFFFFFFFFFFFFFFFFFFFFFF AND PUSH1 0x4 DUP4 PUSH1 0x40 MLOAD PUSH2 0xA25 SWAP2 SWAP1 PUSH2 0x1C58 JUMP JUMPDEST SWAP1 DUP2 MSTORE PUSH1 0x20 ADD PUSH1 0x40 MLOAD DUP1 SWAP2 SUB SWAP1 KECCAK256 PUSH1 0x1 ADD PUSH1 0x0 SWAP1 SLOAD SWAP1 PUSH2 0x100 EXP SWAP1 DIV PUSH20 0xFFFFFFFFFFFFFFFFFFFFFFFFFFFFFFFFFFFFFFFF AND PUSH20 0xFFFFFFFFFFFFFFFFFFFFFFFFFFFFFFFFFFFFFFFF AND EQ PUSH2 0xAAD JUMPI PUSH1 0x40 MLOAD PUSH32 0x8C379A000000000000000000000000000000000000000000000000000000000 DUP2 MSTORE PUSH1 0x4 ADD PUSH2 0xAA4 SWAP1 PUSH2 0x220E JUMP JUMPDEST PUSH1 0x40 MLOAD DUP1 SWAP2 SUB SWAP1 REVERT JUMPDEST JUMPDEST PUSH2 0xAB8 CALLVALUE DUP3 PUSH2 0x1193 JUMP JUMPDEST PUSH1 0x0 CALLER DUP4 TIMESTAMP PUSH1 0x40 MLOAD PUSH1 0x20 ADD PUSH2 0xACF SWAP4 SWAP3 SWAP2 SWAP1 PUSH2 0x2297 JUMP JUMPDEST PUSH1 0x40 MLOAD PUSH1 0x20 DUP2 DUP4 SUB SUB DUP2 MSTORE SWAP1 PUSH1 0x40 MSTORE DUP1 MLOAD SWAP1 PUSH1 0x20 ADD KECCAK256 PUSH1 0x0 SHR SWAP1 POP CALLER PUSH20 0xFFFFFFFFFFFFFFFFFFFFFFFFFFFFFFFFFFFFFFFF AND DUP4 PUSH1 0x40 MLOAD PUSH2 0xB0F SWAP2 SWAP1 PUSH2 0x1C58 JUMP JUMPDEST PUSH1 0x40 MLOAD DUP1 SWAP2 SUB SWAP1 KECCAK256 PUSH32 0xC5EC0595F8F5C7D42B6CB931AB91838A58E8FADF7FB0D2EEC444B10F17000651 CALLVALUE DUP5 PUSH1 0x40 MLOAD PUSH2 0xB48 SWAP3 SWAP2 SWAP1 PUSH2 0x22D0 JUMP JUMPDEST PUSH1 0x40 MLOAD DUP1 SWAP2 SUB SWAP1 LOG3 POP PUSH2 0xB59 PUSH2 0x1328 JUMP JUMPDEST POP POP JUMP JUMPDEST PUSH2 0xB65 PUSH2 0x114D JUMP JUMPDEST PUSH1 0x0 PUSH1 0x4 DUP3 PUSH1 0x40 MLOAD PUSH2 0xB77 SWAP2 SWAP1 PUSH2 0x1C58 JUMP JUMPDEST SWAP1 DUP2 MSTORE PUSH1 0x20 ADD PUSH1 0x40 MLOAD DUP1 SWAP2 SUB SWAP1 KECCAK256 SWAP1 POP DUP1 PUSH1 0x4 ADD PUSH1 0x0 SWAP1 SLOAD SWAP1 PUSH2 0x100 EXP SWAP1 DIV PUSH1 0xFF AND PUSH2 0xBD8 JUMPI PUSH1 0x40 MLOAD PUSH32 0x8C379A000000000000000000000000000000000000000000000000000000000 DUP2 MSTORE PUSH1 0x4 ADD PUSH2 0xBCF SWAP1 PUSH2 0x2345 JUMP JUMPDEST PUSH1 0x40 MLOAD DUP1 SWAP2 SUB SWAP1 REVERT JUMPDEST DUP1 PUSH1 0x2 ADD SLOAD CALLVALUE LT ISZERO PUSH2 0xC1F JUMPI PUSH1 0x40 MLOAD PUSH32 0x8C379A000000000000000000000000000000000000000000000000000000000 DUP2 MSTORE PUSH1 0x4 ADD PUSH2 0xC16 SWAP1 PUSH2 0x23B1 JUMP JUMPDEST PUSH1 0x40 MLOAD DUP1 SWAP2 SUB SWAP1 REVERT JUMPDEST PUSH2 0xC4D CALLVALUE DUP3 PUSH1 0x1 ADD PUSH1 0x0 SWAP1 SLOAD SWAP1 PUSH2 0x100 EXP SWAP1 DIV PUSH20 0xFFFFFFFFFFFFFFFFFFFFFFFFFFFFFFFFFFFFFFFF AND PUSH2 0x1193 JUMP JUMPDEST PUSH1 0x0 CALLER DUP4 TIMESTAMP PUSH1 0x40 MLOAD PUSH1 0x20 ADD PUSH2 0xC64 SWAP4 SWAP3 SWAP2 SWAP1 PUSH2 0x2297 JUMP JUMPDEST PUSH1 0x40 MLOAD PUSH1 0x20 DUP2 DUP4 SUB SUB DUP2 MSTORE SWAP1 PUSH1 0x40 MSTORE DUP1 MLOAD SWAP1 PUSH1 0x20 ADD KECCAK256 PUSH1 0x0 SHR SWAP1 POP CALLER PUSH20 0xFFFFFFFFFFFFFFFFFFFFFFFFFFFFFFFFFFFFFFFF AND DUP4 PUSH1 0x40 MLOAD PUSH2 0xCA4 SWAP2 SWAP1 PUSH2 0x1C58 JUMP JUMPDEST PUSH1 0x40 MLOAD DUP1 SWAP2 SUB SWAP1 KECCAK256 PUSH32 0xC5EC0595F8F5C7D42B6CB931AB91838A58E8FADF7FB0D2EEC444B10F17000651 CALLVALUE DUP5 PUSH1 0x40 MLOAD PUSH2 0xCDD SWAP3 SWAP2 SWAP1 PUSH2 0x22D0 JUMP JUMPDEST PUSH1 0x40 MLOAD DUP1 SWAP2 SUB SWAP1 LOG3 POP POP PUSH2 0xCEF PUSH2 0x1328 JUMP JUMPDEST POP JUMP JUMPDEST PUSH1 0x2 SLOAD DUP2 JUMP JUMPDEST PUSH1 0x4 DUP2 DUP1 MLOAD PUSH1 0x20 DUP2 ADD DUP3 ADD DUP1 MLOAD DUP5 DUP3 MSTORE PUSH1 0x20 DUP4 ADD PUSH1 0x20 DUP6 ADD KECCAK256 DUP2 DUP4 MSTORE DUP1 SWAP6 POP POP POP POP POP POP PUSH1 0x0 SWAP2 POP SWAP1 POP DUP1 PUSH1 0x0 ADD DUP1 SLOAD PUSH2 0xD31 SWAP1 PUSH2 0x1D0A JUMP JUMPDEST DUP1 PUSH1 0x1F ADD PUSH1 0x20 DUP1 SWAP2 DIV MUL PUSH1 0x20 ADD PUSH1 0x40 MLOAD SWAP1 DUP2 ADD PUSH1 0x40 MSTORE DUP1 SWAP3 SWAP2 SWAP1 DUP2 DUP2 MSTORE PUSH1 0x20 ADD DUP3 DUP1 SLOAD PUSH2 0xD5D SWAP1 PUSH2 0x1D0A JUMP JUMPDEST DUP1 ISZERO PUSH2 0xDAA JUMPI DUP1 PUSH1 0x1F LT PUSH2 0xD7F JUMPI PUSH2 0x100 DUP1 DUP4 SLOAD DIV MUL DUP4 MSTORE SWAP2 PUSH1 0x20 ADD SWAP2 PUSH2 0xDAA JUMP JUMPDEST DUP3 ADD SWAP2 SWAP1 PUSH1 0x0 MSTORE PUSH1 0x20 PUSH1 0x0 KECCAK256 SWAP1 JUMPDEST DUP2 SLOAD DUP2 MSTORE SWAP1 PUSH1 0x1 ADD SWAP1 PUSH1 0x20 ADD DUP1 DUP4 GT PUSH2 0xD8D JUMPI DUP3 SWAP1 SUB PUSH1 0x1F AND DUP3 ADD SWAP2 JUMPDEST POP POP POP POP POP SWAP1 DUP1 PUSH1 0x1 ADD PUSH1 0x0 SWAP1 SLOAD SWAP1 PUSH2 0x100 EXP SWAP1 DIV PUSH20 0xFFFFFFFFFFFFFFFFFFFFFFFFFFFFFFFFFFFFFFFF AND SWAP1 DUP1 PUSH1 0x2 ADD SLOAD SWAP1 DUP1 PUSH1 0x3 ADD DUP1 SLOAD PUSH2 0xDEB SWAP1 PUSH2 0x1D0A JUMP JUMPDEST DUP1 PUSH1 0x1F ADD PUSH1 0x20 DUP1 SWAP2 DIV MUL PUSH1 0x20 ADD PUSH1 0x40 MLOAD SWAP1 DUP2 ADD PUSH1 0x40 MSTORE DUP1 SWAP3 SWAP2 SWAP1 DUP2 DUP2 MSTORE PUSH1 0x20 ADD DUP3 DUP1 SLOAD PUSH2 0xE17 SWAP1 PUSH2 0x1D0A JUMP JUMPDEST DUP1 ISZERO PUSH2 0xE64 JUMPI DUP1 PUSH1 0x1F LT PUSH2 0xE39 JUMPI PUSH2 0x100 DUP1 DUP4 SLOAD DIV MUL DUP4 MSTORE SWAP2 PUSH1 0x20 ADD SWAP2 PUSH2 0xE64 JUMP JUMPDEST DUP3 ADD SWAP2 SWAP1 PUSH1 0x0 MSTORE PUSH1 0x20 PUSH1 0x0 KECCAK256 SWAP1 JUMPDEST DUP2 SLOAD DUP2 MSTORE SWAP1 PUSH1 0x1 ADD SWAP1 PUSH1 0x20 ADD DUP1 DUP4 GT PUSH2 0xE47 JUMPI DUP3 SWAP1 SUB PUSH1 0x1F AND DUP3 ADD SWAP2 JUMPDEST POP POP POP POP POP SWAP1 DUP1 PUSH1 0x4 ADD PUSH1 0x0 SWAP1 SLOAD SWAP1 PUSH2 0x100 EXP SWAP1 DIV PUSH1 0xFF AND SWAP1 POP DUP6 JUMP JUMPDEST PUSH1 0x5 DUP2 DUP1 MLOAD PUSH1 0x20 DUP2 ADD DUP3 ADD DUP1 MLOAD DUP5 DUP3 MSTORE PUSH1 0x20 DUP4 ADD PUSH1 0x20 DUP6 ADD KECCAK256 DUP2 DUP4 MSTORE DUP1 SWAP6 POP POP POP POP POP POP PUSH1 0x0 SWAP2 POP SWAP1 POP DUP1 PUSH1 0x0 ADD DUP1 SLOAD PUSH2 0xEBA SWAP1 PUSH2 0x1D0A JUMP JUMPDEST DUP1 PUSH1 0x1F ADD PUSH1 0x20 DUP1 SWAP2 DIV MUL PUSH1 0x20 ADD PUSH1 0x40 MLOAD SWAP1 DUP2 ADD PUSH1 0x40 MSTORE DUP1 SWAP3 SWAP2 SWAP1 DUP2 DUP2 MSTORE PUSH1 0x20 ADD DUP3 DUP1 SLOAD PUSH2 0xEE6 SWAP1 PUSH2 0x1D0A JUMP JUMPDEST DUP1 ISZERO PUSH2 0xF33 JUMPI DUP1 PUSH1 0x1F LT PUSH2 0xF08 JUMPI PUSH2 0x100 DUP1 DUP4 SLOAD DIV MUL DUP4 MSTORE SWAP2 PUSH1 0x20 ADD SWAP2 PUSH2 0xF33 JUMP JUMPDEST DUP3 ADD SWAP2 SWAP1 PUSH1 0x0 MSTORE PUSH1 0x20 PUSH1 0x0 KECCAK256 SWAP1 JUMPDEST DUP2 SLOAD DUP2 MSTORE SWAP1 PUSH1 0x1 ADD SWAP1 PUSH1 0x20 ADD DUP1 DUP4 GT PUSH2 0xF16 JUMPI DUP3 SWAP1 SUB PUSH1 0x1F AND DUP3 ADD SWAP2 JUMPDEST POP POP POP POP POP SWAP1 DUP1 PUSH1 0x1 ADD PUSH1 0x0 SWAP1 SLOAD SWAP1 PUSH2 0x100 EXP SWAP1 DIV PUSH20 0xFFFFFFFFFFFFFFFFFFFFFFFFFFFFFFFFFFFFFFFF AND SWAP1 DUP1 PUSH1 0x2 ADD SLOAD SWAP1 DUP1 PUSH1 0x3 ADD PUSH1 0x0 SWAP1 SLOAD SWAP1 PUSH2 0x100 EXP SWAP1 DIV PUSH1 0xFF AND SWAP1 POP DUP5 JUMP JUMPDEST PUSH2 0xF84 PUSH2 0x1002 JUMP JUMPDEST PUSH1 0x0 PUSH20 0xFFFFFFFFFFFFFFFFFFFFFFFFFFFFFFFFFFFFFFFF AND DUP2 PUSH20 0xFFFFFFFFFFFFFFFFFFFFFFFFFFFFFFFFFFFFFFFF AND SUB PUSH2 0xFF6 JUMPI PUSH1 0x0 PUSH1 0x40 MLOAD PUSH32 0x1E4FBDF700000000000000000000000000000000000000000000000000000000 DUP2 MSTORE PUSH1 0x4 ADD PUSH2 0xFED SWAP2 SWAP1 PUSH2 0x190F JUMP JUMPDEST PUSH1 0x40 MLOAD DUP1 SWAP2 SUB SWAP1 REVERT JUMPDEST PUSH2 0xFFF DUP2 PUSH2 0x1089 JUMP JUMPDEST POP JUMP JUMPDEST PUSH2 0x100A PUSH2 0x1331 JUMP JUMPDEST PUSH20 0xFFFFFFFFFFFFFFFFFFFFFFFFFFFFFFFFFFFFFFFF AND PUSH2 0x1028 PUSH2 0x915 JUMP JUMPDEST PUSH20 0xFFFFFFFFFFFFFFFFFFFFFFFFFFFFFFFFFFFFFFFF AND EQ PUSH2 0x1087 JUMPI PUSH2 0x104B PUSH2 0x1331 JUMP JUMPDEST PUSH1 0x40 MLOAD PUSH32 0x118CDAA700000000000000000000000000000000000000000000000000000000 DUP2 MSTORE PUSH1 0x4 ADD PUSH2 0x107E SWAP2 SWAP1 PUSH2 0x190F JUMP JUMPDEST PUSH1 0x40 MLOAD DUP1 SWAP2 SUB SWAP1 REVERT JUMPDEST JUMP JUMPDEST PUSH1 0x0 DUP1 PUSH1 0x0 SWAP1 SLOAD SWAP1 PUSH2 0x100 EXP SWAP1 DIV PUSH20 0xFFFFFFFFFFFFFFFFFFFFFFFFFFFFFFFFFFFFFFFF AND SWAP1 POP DUP2 PUSH1 0x0 DUP1 PUSH2 0x100 EXP DUP2 SLOAD DUP2 PUSH20 0xFFFFFFFFFFFFFFFFFFFFFFFFFFFFFFFFFFFFFFFF MUL NOT AND SWAP1 DUP4 PUSH20 0xFFFFFFFFFFFFFFFFFFFFFFFFFFFFFFFFFFFFFFFF AND MUL OR SWAP1 SSTORE POP DUP2 PUSH20 0xFFFFFFFFFFFFFFFFFFFFFFFFFFFFFFFFFFFFFFFF AND DUP2 PUSH20 0xFFFFFFFFFFFFFFFFFFFFFFFFFFFFFFFFFFFFFFFF AND PUSH32 0x8BE0079C531659141344CD1FD0A4F28419497F9722A3DAAFE3B4186F6B6457E0 PUSH1 0x40 MLOAD PUSH1 0x40 MLOAD DUP1 SWAP2 SUB SWAP1 LOG3 POP POP JUMP JUMPDEST PUSH1 0x2 PUSH1 0x1 SLOAD SUB PUSH2 0x1189 JUMPI PUSH1 0x40 MLOAD PUSH32 0x3EE5AEB500000000000000000000000000000000000000000000000000000000 DUP2 MSTORE PUSH1 0x4 ADD PUSH1 0x40 MLOAD DUP1 SWAP2 SUB SWAP1 REVERT JUMPDEST PUSH1 0x2 PUSH1 0x1 DUP2 SWAP1 SSTORE POP JUMP JUMPDEST PUSH1 0x0 PUSH1 0x64 PUSH1 0x3 SLOAD DUP5 PUSH2 0x11A5 SWAP2 SWAP1 PUSH2 0x23D1 JUMP JUMPDEST PUSH2 0x11AF SWAP2 SWAP1 PUSH2 0x2442 JUMP JUMPDEST SWAP1 POP PUSH1 0x0 DUP2 DUP5 PUSH2 0x11BF SWAP2 SWAP1 PUSH2 0x2473 JUMP JUMPDEST SWAP1 POP PUSH1 0x0 PUSH2 0x11CB PUSH2 0x915 JUMP JUMPDEST PUSH20 0xFFFFFFFFFFFFFFFFFFFFFFFFFFFFFFFFFFFFFFFF AND DUP4 PUSH1 0x40 MLOAD PUSH2 0x11EE SWAP1 PUSH2 0x24D8 JUMP JUMPDEST PUSH1 0x0 PUSH1 0x40 MLOAD DUP1 DUP4 SUB DUP2 DUP6 DUP8 GAS CALL SWAP3 POP POP POP RETURNDATASIZE DUP1 PUSH1 0x0 DUP2 EQ PUSH2 0x122B JUMPI PUSH1 0x40 MLOAD SWAP2 POP PUSH1 0x1F NOT PUSH1 0x3F RETURNDATASIZE ADD AND DUP3 ADD PUSH1 0x40 MSTORE RETURNDATASIZE DUP3 MSTORE RETURNDATASIZE PUSH1 0x0 PUSH1 0x20 DUP5 ADD RETURNDATACOPY PUSH2 0x1230 JUMP JUMPDEST PUSH1 0x60 SWAP2 POP JUMPDEST POP POP SWAP1 POP DUP1 PUSH2 0x1274 JUMPI PUSH1 0x40 MLOAD PUSH32 0x8C379A000000000000000000000000000000000000000000000000000000000 DUP2 MSTORE PUSH1 0x4 ADD PUSH2 0x126B SWAP1 PUSH2 0x2539 JUMP JUMPDEST PUSH1 0x40 MLOAD DUP1 SWAP2 SUB SWAP1 REVERT JUMPDEST PUSH1 0x0 DUP5 PUSH20 0xFFFFFFFFFFFFFFFFFFFFFFFFFFFFFFFFFFFFFFFF AND DUP4 PUSH1 0x40 MLOAD PUSH2 0x129A SWAP1 PUSH2 0x24D8 JUMP JUMPDEST PUSH1 0x0 PUSH1 0x40 MLOAD DUP1 DUP4 SUB DUP2 DUP6 DUP8 GAS CALL SWAP3 POP POP POP RETURNDATASIZE DUP1 PUSH1 0x0 DUP2 EQ PUSH2 0x12D7 JUMPI PUSH1 0x40 MLOAD SWAP2 POP PUSH1 0x1F NOT PUSH1 0x3F RETURNDATASIZE ADD AND DUP3 ADD PUSH1 0x40 MSTORE RETURNDATASIZE DUP3 MSTORE RETURNDATASIZE PUSH1 0x0 PUSH1 0x20 DUP5 ADD RETURNDATACOPY PUSH2 0x12DC JUMP JUMPDEST PUSH1 0x60 SWAP2 POP JUMPDEST POP POP SWAP1 POP DUP1 PUSH2 0x1320 JUMPI PUSH1 0x40 MLOAD PUSH32 0x8C379A000000000000000000000000000000000000000000000000000000000 DUP2 MSTORE PUSH1 0x4 ADD PUSH2 0x1317 SWAP1 PUSH2 0x25A5 JUMP JUMPDEST PUSH1 0x40 MLOAD DUP1 SWAP2 SUB SWAP1 REVERT JUMPDEST POP POP POP POP POP POP JUMP JUMPDEST PUSH1 0x1 DUP1 DUP2 SWAP1 SSTORE POP JUMP JUMPDEST PUSH1 0x0 CALLER SWAP1 POP SWAP1 JUMP JUMPDEST DUP3 DUP1 SLOAD DUP3 DUP3 SSTORE SWAP1 PUSH1 0x0 MSTORE PUSH1 0x20 PUSH1 0x0 KECCAK256 SWAP1 DUP2 ADD SWAP3 DUP3 ISZERO PUSH2 0x1381 JUMPI SWAP2 PUSH1 0x20 MUL DUP3 ADD JUMPDEST DUP3 DUP2 GT ISZERO PUSH2 0x1380 JUMPI DUP3 MLOAD DUP3 SWAP1 DUP2 PUSH2 0x1370 SWAP2 SWAP1 PUSH2 0x1EE7 JUMP JUMPDEST POP SWAP2 PUSH1 0x20 ADD SWAP2 SWAP1 PUSH1 0x1 ADD SWAP1 PUSH2 0x1359 JUMP JUMPDEST JUMPDEST POP SWAP1 POP PUSH2 0x138E SWAP2 SWAP1 PUSH2 0x1392 JUMP JUMPDEST POP SWAP1 JUMP JUMPDEST JUMPDEST DUP1 DUP3 GT ISZERO PUSH2 0x13B2 JUMPI PUSH1 0x0 DUP2 DUP2 PUSH2 0x13A9 SWAP2 SWAP1 PUSH2 0x13B6 JUMP JUMPDEST POP PUSH1 0x1 ADD PUSH2 0x1393 JUMP JUMPDEST POP SWAP1 JUMP JUMPDEST POP DUP1 SLOAD PUSH2 0x13C2 SWAP1 PUSH2 0x1D0A JUMP JUMPDEST PUSH1 0x0 DUP3 SSTORE DUP1 PUSH1 0x1F LT PUSH2 0x13D4 JUMPI POP PUSH2 0x13F3 JUMP JUMPDEST PUSH1 0x1F ADD PUSH1 0x20 SWAP1 DIV SWAP1 PUSH1 0x0 MSTORE PUSH1 0x20 PUSH1 0x0 KECCAK256 SWAP1 DUP2 ADD SWAP1 PUSH2 0x13F2 SWAP2 SWAP1 PUSH2 0x13F6 JUMP JUMPDEST JUMPDEST POP JUMP JUMPDEST JUMPDEST DUP1 DUP3 GT ISZERO PUSH2 0x140F JUMPI PUSH1 0x0 DUP2 PUSH1 0x0 SWAP1 SSTORE POP PUSH1 0x1 ADD PUSH2 0x13F7 JUMP JUMPDEST POP SWAP1 JUMP JUMPDEST PUSH1 0x0 PUSH1 0x40 MLOAD SWAP1 POP SWAP1 JUMP JUMPDEST PUSH1 0x0 DUP1 REVERT JUMPDEST PUSH1 0x0 DUP1 REVERT JUMPDEST PUSH1 0x0 DUP2 SWAP1 POP SWAP2 SWAP1 POP JUMP JUMPDEST PUSH2 0x143A DUP2 PUSH2 0x1427 JUMP JUMPDEST DUP2 EQ PUSH2 0x1445 JUMPI PUSH1 0x0 DUP1 REVERT JUMPDEST POP JUMP JUMPDEST PUSH1 0x0 DUP2 CALLDATALOAD SWAP1 POP PUSH2 0x1457 DUP2 PUSH2 0x1431 JUMP JUMPDEST SWAP3 SWAP2 POP POP JUMP JUMPDEST PUSH1 0x0 PUSH1 0x20 DUP3 DUP5 SUB SLT ISZERO PUSH2 0x1473 JUMPI PUSH2 0x1472 PUSH2 0x141D JUMP JUMPDEST JUMPDEST PUSH1 0x0 PUSH2 0x1481 DUP5 DUP3 DUP6 ADD PUSH2 0x1448 JUMP JUMPDEST SWAP2 POP POP SWAP3 SWAP2 POP POP JUMP JUMPDEST PUSH1 0x0 DUP1 REVERT JUMPDEST PUSH1 0x0 DUP1 REVERT JUMPDEST PUSH1 0x0 PUSH1 0x1F NOT PUSH1 0x1F DUP4 ADD AND SWAP1 POP SWAP2 SWAP1 POP JUMP JUMPDEST PUSH32 0x4E487B7100000000000000000000000000000000000000000000000000000000 PUSH1 0x0 MSTORE PUSH1 0x41 PUSH1 0x4 MSTORE PUSH1 0x24 PUSH1 0x0 REVERT JUMPDEST PUSH2 0x14DD DUP3 PUSH2 0x1494 JUMP JUMPDEST DUP2 ADD DUP2 DUP2 LT PUSH8 0xFFFFFFFFFFFFFFFF DUP3 GT OR ISZERO PUSH2 0x14FC JUMPI PUSH2 0x14FB PUSH2 0x14A5 JUMP JUMPDEST JUMPDEST DUP1 PUSH1 0x40 MSTORE POP POP POP JUMP JUMPDEST PUSH1 0x0 PUSH2 0x150F PUSH2 0x1413 JUMP JUMPDEST SWAP1 POP PUSH2 0x151B DUP3 DUP3 PUSH2 0x14D4 JUMP JUMPDEST SWAP2 SWAP1 POP JUMP JUMPDEST PUSH1 0x0 PUSH8 0xFFFFFFFFFFFFFFFF DUP3 GT ISZERO PUSH2 0x153B JUMPI PUSH2 0x153A PUSH2 0x14A5 JUMP JUMPDEST JUMPDEST PUSH2 0x1544 DUP3 PUSH2 0x1494 JUMP JUMPDEST SWAP1 POP PUSH1 0x20 DUP2 ADD SWAP1 POP SWAP2 SWAP1 POP JUMP JUMPDEST DUP3 DUP2 DUP4 CALLDATACOPY PUSH1 0x0 DUP4 DUP4 ADD MSTORE POP POP POP JUMP JUMPDEST PUSH1 0x0 PUSH2 0x1573 PUSH2 0x156E DUP5 PUSH2 0x1520 JUMP JUMPDEST PUSH2 0x1505 JUMP JUMPDEST SWAP1 POP DUP3 DUP2 MSTORE PUSH1 0x20 DUP2 ADD DUP5 DUP5 DUP5 ADD GT ISZERO PUSH2 0x158F JUMPI PUSH2 0x158E PUSH2 0x148F JUMP JUMPDEST JUMPDEST PUSH2 0x159A DUP5 DUP3 DUP6 PUSH2 0x1551 JUMP JUMPDEST POP SWAP4 SWAP3 POP POP POP JUMP JUMPDEST PUSH1 0x0 DUP3 PUSH1 0x1F DUP4 ADD SLT PUSH2 0x15B7 JUMPI PUSH2 0x15B6 PUSH2 0x148A JUMP JUMPDEST JUMPDEST DUP2 CALLDATALOAD PUSH2 0x15C7 DUP5 DUP3 PUSH1 0x20 DUP7 ADD PUSH2 0x1560 JUMP JUMPDEST SWAP2 POP POP SWAP3 SWAP2 POP POP JUMP JUMPDEST PUSH1 0x0 DUP2 ISZERO ISZERO SWAP1 POP SWAP2 SWAP1 POP JUMP JUMPDEST PUSH2 0x15E5 DUP2 PUSH2 0x15D0 JUMP JUMPDEST DUP2 EQ PUSH2 0x15F0 JUMPI PUSH1 0x0 DUP1 REVERT JUMPDEST POP JUMP JUMPDEST PUSH1 0x0 DUP2 CALLDATALOAD SWAP1 POP PUSH2 0x1602 DUP2 PUSH2 0x15DC JUMP JUMPDEST SWAP3 SWAP2 POP POP JUMP JUMPDEST PUSH1 0x0 DUP1 PUSH1 0x0 DUP1 PUSH1 0x80 DUP6 DUP8 SUB SLT ISZERO PUSH2 0x1622 JUMPI PUSH2 0x1621 PUSH2 0x141D JUMP JUMPDEST JUMPDEST PUSH1 0x0 DUP6 ADD CALLDATALOAD PUSH8 0xFFFFFFFFFFFFFFFF DUP2 GT ISZERO PUSH2 0x1640 JUMPI PUSH2 0x163F PUSH2 0x1422 JUMP JUMPDEST JUMPDEST PUSH2 0x164C DUP8 DUP3 DUP9 ADD PUSH2 0x15A2 JUMP JUMPDEST SWAP5 POP POP PUSH1 0x20 PUSH2 0x165D DUP8 DUP3 DUP9 ADD PUSH2 0x1448 JUMP JUMPDEST SWAP4 POP POP PUSH1 0x40 DUP6 ADD CALLDATALOAD PUSH8 0xFFFFFFFFFFFFFFFF DUP2 GT ISZERO PUSH2 0x167E JUMPI PUSH2 0x167D PUSH2 0x1422 JUMP JUMPDEST JUMPDEST PUSH2 0x168A DUP8 DUP3 DUP9 ADD PUSH2 0x15A2 JUMP JUMPDEST SWAP3 POP POP PUSH1 0x60 PUSH2 0x169B DUP8 DUP3 DUP9 ADD PUSH2 0x15F3 JUMP JUMPDEST SWAP2 POP POP SWAP3 SWAP6 SWAP2 SWAP5 POP SWAP3 POP JUMP JUMPDEST PUSH1 0x0 DUP1 PUSH1 0x40 DUP4 DUP6 SUB SLT ISZERO PUSH2 0x16BE JUMPI PUSH2 0x16BD PUSH2 0x141D JUMP JUMPDEST JUMPDEST PUSH1 0x0 DUP4 ADD CALLDATALOAD PUSH8 0xFFFFFFFFFFFFFFFF DUP2 GT ISZERO PUSH2 0x16DC JUMPI PUSH2 0x16DB PUSH2 0x1422 JUMP JUMPDEST JUMPDEST PUSH2 0x16E8 DUP6 DUP3 DUP7 ADD PUSH2 0x15A2 JUMP JUMPDEST SWAP3 POP POP PUSH1 0x20 PUSH2 0x16F9 DUP6 DUP3 DUP7 ADD PUSH2 0x1448 JUMP JUMPDEST SWAP2 POP POP SWAP3 POP SWAP3 SWAP1 POP JUMP JUMPDEST PUSH1 0x0 PUSH8 0xFFFFFFFFFFFFFFFF DUP3 GT ISZERO PUSH2 0x171E JUMPI PUSH2 0x171D PUSH2 0x14A5 JUMP JUMPDEST JUMPDEST PUSH1 0x20 DUP3 MUL SWAP1 POP PUSH1 0x20 DUP2 ADD SWAP1 POP SWAP2 SWAP1 POP JUMP JUMPDEST PUSH1 0x0 DUP1 REVERT JUMPDEST PUSH1 0x0 PUSH2 0x1747 PUSH2 0x1742 DUP5 PUSH2 0x1703 JUMP JUMPDEST PUSH2 0x1505 JUMP JUMPDEST SWAP1 POP DUP1 DUP4 DUP3 MSTORE PUSH1 0x20 DUP3 ADD SWAP1 POP PUSH1 0x20 DUP5 MUL DUP4 ADD DUP6 DUP2 GT ISZERO PUSH2 0x176A JUMPI PUSH2 0x1769 PUSH2 0x172F JUMP JUMPDEST JUMPDEST DUP4 JUMPDEST DUP2 DUP2 LT ISZERO PUSH2 0x17B1 JUMPI DUP1 CALLDATALOAD PUSH8 0xFFFFFFFFFFFFFFFF DUP2 GT ISZERO PUSH2 0x178F JUMPI PUSH2 0x178E PUSH2 0x148A JUMP JUMPDEST JUMPDEST DUP1 DUP7 ADD PUSH2 0x179C DUP10 DUP3 PUSH2 0x15A2 JUMP JUMPDEST DUP6 MSTORE PUSH1 0x20 DUP6 ADD SWAP5 POP POP POP PUSH1 0x20 DUP2 ADD SWAP1 POP PUSH2 0x176C JUMP JUMPDEST POP POP POP SWAP4 SWAP3 POP POP POP JUMP JUMPDEST PUSH1 0x0 DUP3 PUSH1 0x1F DUP4 ADD SLT PUSH2 0x17D0 JUMPI PUSH2 0x17CF PUSH2 0x148A JUMP JUMPDEST JUMPDEST DUP2 CALLDATALOAD PUSH2 0x17E0 DUP5 DUP3 PUSH1 0x20 DUP7 ADD PUSH2 0x1734 JUMP JUMPDEST SWAP2 POP POP SWAP3 SWAP2 POP POP JUMP JUMPDEST PUSH1 0x0 DUP1 PUSH1 0x0 DUP1 PUSH1 0x80 DUP6 DUP8 SUB SLT ISZERO PUSH2 0x1803 JUMPI PUSH2 0x1802 PUSH2 0x141D JUMP JUMPDEST JUMPDEST PUSH1 0x0 DUP6 ADD CALLDATALOAD PUSH8 0xFFFFFFFFFFFFFFFF DUP2 GT ISZERO PUSH2 0x1821 JUMPI PUSH2 0x1820 PUSH2 0x1422 JUMP JUMPDEST JUMPDEST PUSH2 0x182D DUP8 DUP3 DUP9 ADD PUSH2 0x15A2 JUMP JUMPDEST SWAP5 POP POP PUSH1 0x20 PUSH2 0x183E DUP8 DUP3 DUP9 ADD PUSH2 0x1448 JUMP JUMPDEST SWAP4 POP POP PUSH1 0x40 DUP6 ADD CALLDATALOAD PUSH8 0xFFFFFFFFFFFFFFFF DUP2 GT ISZERO PUSH2 0x185F JUMPI PUSH2 0x185E PUSH2 0x1422 JUMP JUMPDEST JUMPDEST PUSH2 0x186B DUP8 DUP3 DUP9 ADD PUSH2 0x15A2 JUMP JUMPDEST SWAP3 POP POP PUSH1 0x60 DUP6 ADD CALLDATALOAD PUSH8 0xFFFFFFFFFFFFFFFF DUP2 GT ISZERO PUSH2 0x188C JUMPI PUSH2 0x188B PUSH2 0x1422 JUMP JUMPDEST JUMPDEST PUSH2 0x1898 DUP8 DUP3 DUP9 ADD PUSH2 0x17BB JUMP JUMPDEST SWAP2 POP POP SWAP3 SWAP6 SWAP2 SWAP5 POP SWAP3 POP JUMP JUMPDEST PUSH2 0x18AD DUP2 PUSH2 0x1427 JUMP JUMPDEST DUP3 MSTORE POP POP JUMP JUMPDEST PUSH1 0x0 PUSH1 0x20 DUP3 ADD SWAP1 POP PUSH2 0x18C8 PUSH1 0x0 DUP4 ADD DUP5 PUSH2 0x18A4 JUMP JUMPDEST SWAP3 SWAP2 POP POP JUMP JUMPDEST PUSH1 0x0 PUSH20 0xFFFFFFFFFFFFFFFFFFFFFFFFFFFFFFFFFFFFFFFF DUP3 AND SWAP1 POP SWAP2 SWAP1 POP JUMP JUMPDEST PUSH1 0x0 PUSH2 0x18F9 DUP3 PUSH2 0x18CE JUMP JUMPDEST SWAP1 POP SWAP2 SWAP1 POP JUMP JUMPDEST PUSH2 0x1909 DUP2 PUSH2 0x18EE JUMP JUMPDEST DUP3 MSTORE POP POP JUMP JUMPDEST PUSH1 0x0 PUSH1 0x20 DUP3 ADD SWAP1 POP PUSH2 0x1924 PUSH1 0x0 DUP4 ADD DUP5 PUSH2 0x1900 JUMP JUMPDEST SWAP3 SWAP2 POP POP JUMP JUMPDEST PUSH1 0x0 PUSH2 0x1935 DUP3 PUSH2 0x18CE JUMP JUMPDEST SWAP1 POP SWAP2 SWAP1 POP JUMP JUMPDEST PUSH2 0x1945 DUP2 PUSH2 0x192A JUMP JUMPDEST DUP2 EQ PUSH2 0x1950 JUMPI PUSH1 0x0 DUP1 REVERT JUMPDEST POP JUMP JUMPDEST PUSH1 0x0 DUP2 CALLDATALOAD SWAP1 POP PUSH2 0x1962 DUP2 PUSH2 0x193C JUMP JUMPDEST SWAP3 SWAP2 POP POP JUMP JUMPDEST PUSH1 0x0 DUP1 PUSH1 0x40 DUP4 DUP6 SUB SLT ISZERO PUSH2 0x197F JUMPI PUSH2 0x197E PUSH2 0x141D JUMP JUMPDEST JUMPDEST PUSH1 0x0 DUP4 ADD CALLDATALOAD PUSH8 0xFFFFFFFFFFFFFFFF DUP2 GT ISZERO PUSH2 0x199D JUMPI PUSH2 0x199C PUSH2 0x1422 JUMP JUMPDEST JUMPDEST PUSH2 0x19A9 DUP6 DUP3 DUP7 ADD PUSH2 0x15A2 JUMP JUMPDEST SWAP3 POP POP PUSH1 0x20 PUSH2 0x19BA DUP6 DUP3 DUP7 ADD PUSH2 0x1953 JUMP JUMPDEST SWAP2 POP POP SWAP3 POP SWAP3 SWAP1 POP JUMP JUMPDEST PUSH1 0x0 PUSH1 0x20 DUP3 DUP5 SUB SLT ISZERO PUSH2 0x19DA JUMPI PUSH2 0x19D9 PUSH2 0x141D JUMP JUMPDEST JUMPDEST PUSH1 0x0 DUP3 ADD CALLDATALOAD PUSH8 0xFFFFFFFFFFFFFFFF DUP2 GT ISZERO PUSH2 0x19F8 JUMPI PUSH2 0x19F7 PUSH2 0x1422 JUMP JUMPDEST JUMPDEST PUSH2 0x1A04 DUP5 DUP3 DUP6 ADD PUSH2 0x15A2 JUMP JUMPDEST SWAP2 POP POP SWAP3 SWAP2 POP POP JUMP JUMPDEST PUSH1 0x0 DUP2 MLOAD SWAP1 POP SWAP2 SWAP1 POP JUMP JUMPDEST PUSH1 0x0 DUP3 DUP3 MSTORE PUSH1 0x20 DUP3 ADD SWAP1 POP SWAP3 SWAP2 POP POP JUMP JUMPDEST PUSH1 0x0 JUMPDEST DUP4 DUP2 LT ISZERO PUSH2 0x1A47 JUMPI DUP1 DUP3 ADD MLOAD DUP2 DUP5 ADD MSTORE PUSH1 0x20 DUP2 ADD SWAP1 POP PUSH2 0x1A2C JUMP JUMPDEST PUSH1 0x0 DUP5 DUP5 ADD MSTORE POP POP POP POP JUMP JUMPDEST PUSH1 0x0 PUSH2 0x1A5E DUP3 PUSH2 0x1A0D JUMP JUMPDEST PUSH2 0x1A68 DUP2 DUP6 PUSH2 0x1A18 JUMP JUMPDEST SWAP4 POP PUSH2 0x1A78 DUP2 DUP6 PUSH1 0x20 DUP7 ADD PUSH2 0x1A29 JUMP JUMPDEST PUSH2 0x1A81 DUP2 PUSH2 0x1494 JUMP JUMPDEST DUP5 ADD SWAP2 POP POP SWAP3 SWAP2 POP POP JUMP JUMPDEST PUSH2 0x1A95 DUP2 PUSH2 0x192A JUMP JUMPDEST DUP3 MSTORE POP POP JUMP JUMPDEST PUSH2 0x1AA4 DUP2 PUSH2 0x15D0 JUMP JUMPDEST DUP3 MSTORE POP POP JUMP JUMPDEST PUSH1 0x0 PUSH1 0xA0 DUP3 ADD SWAP1 POP DUP2 DUP2 SUB PUSH1 0x0 DUP4 ADD MSTORE PUSH2 0x1AC4 DUP2 DUP9 PUSH2 0x1A53 JUMP JUMPDEST SWAP1 POP PUSH2 0x1AD3 PUSH1 0x20 DUP4 ADD DUP8 PUSH2 0x1A8C JUMP JUMPDEST PUSH2 0x1AE0 PUSH1 0x40 DUP4 ADD DUP7 PUSH2 0x18A4 JUMP JUMPDEST DUP2 DUP2 SUB PUSH1 0x60 DUP4 ADD MSTORE PUSH2 0x1AF2 DUP2 DUP6 PUSH2 0x1A53 JUMP JUMPDEST SWAP1 POP PUSH2 0x1B01 PUSH1 0x80 DUP4 ADD DUP5 PUSH2 0x1A9B JUMP JUMPDEST SWAP7 SWAP6 POP POP POP POP POP POP JUMP JUMPDEST PUSH1 0x0 PUSH1 0x80 DUP3 ADD SWAP1 POP DUP2 DUP2 SUB PUSH1 0x0 DUP4 ADD MSTORE PUSH2 0x1B25 DUP2 DUP8 PUSH2 0x1A53 JUMP JUMPDEST SWAP1 POP PUSH2 0x1B34 PUSH1 0x20 DUP4 ADD DUP7 PUSH2 0x1A8C JUMP JUMPDEST PUSH2 0x1B41 PUSH1 0x40 DUP4 ADD DUP6 PUSH2 0x18A4 JUMP JUMPDEST PUSH2 0x1B4E PUSH1 0x60 DUP4 ADD DUP5 PUSH2 0x1A9B JUMP JUMPDEST SWAP6 SWAP5 POP POP POP POP POP JUMP JUMPDEST PUSH2 0x1B60 DUP2 PUSH2 0x18EE JUMP JUMPDEST DUP2 EQ PUSH2 0x1B6B JUMPI PUSH1 0x0 DUP1 REVERT JUMPDEST POP JUMP JUMPDEST PUSH1 0x0 DUP2 CALLDATALOAD SWAP1 POP PUSH2 0x1B7D DUP2 PUSH2 0x1B57 JUMP JUMPDEST SWAP3 SWAP2 POP POP JUMP JUMPDEST PUSH1 0x0 PUSH1 0x20 DUP3 DUP5 SUB SLT ISZERO PUSH2 0x1B99 JUMPI PUSH2 0x1B98 PUSH2 0x141D JUMP JUMPDEST JUMPDEST PUSH1 0x0 PUSH2 0x1BA7 DUP5 DUP3 DUP6 ADD PUSH2 0x1B6E JUMP JUMPDEST SWAP2 POP POP SWAP3 SWAP2 POP POP JUMP JUMPDEST PUSH32 0x46656520746F6F20686967680000000000000000000000000000000000000000 PUSH1 0x0 DUP3 ADD MSTORE POP JUMP JUMPDEST PUSH1 0x0 PUSH2 0x1BE6 PUSH1 0xC DUP4 PUSH2 0x1A18 JUMP JUMPDEST SWAP2 POP PUSH2 0x1BF1 DUP3 PUSH2 0x1BB0 JUMP JUMPDEST PUSH1 0x20 DUP3 ADD SWAP1 POP SWAP2 SWAP1 POP JUMP JUMPDEST PUSH1 0x0 PUSH1 0x20 DUP3 ADD SWAP1 POP DUP2 DUP2 SUB PUSH1 0x0 DUP4 ADD MSTORE PUSH2 0x1C15 DUP2 PUSH2 0x1BD9 JUMP JUMPDEST SWAP1 POP SWAP2 SWAP1 POP JUMP JUMPDEST PUSH1 0x0 DUP2 SWAP1 POP SWAP3 SWAP2 POP POP JUMP JUMPDEST PUSH1 0x0 PUSH2 0x1C32 DUP3 PUSH2 0x1A0D JUMP JUMPDEST PUSH2 0x1C3C DUP2 DUP6 PUSH2 0x1C1C JUMP JUMPDEST SWAP4 POP PUSH2 0x1C4C DUP2 DUP6 PUSH1 0x20 DUP7 ADD PUSH2 0x1A29 JUMP JUMPDEST DUP1 DUP5 ADD SWAP2 POP POP SWAP3 SWAP2 POP POP JUMP JUMPDEST PUSH1 0x0 PUSH2 0x1C64 DUP3 DUP5 PUSH2 0x1C27 JUMP JUMPDEST SWAP2 POP DUP2 SWAP1 POP SWAP3 SWAP2 POP POP JUMP JUMPDEST PUSH32 0x4F6E6C792063726561746F722063616E20757064617465206167656E74000000 PUSH1 0x0 DUP3 ADD MSTORE POP JUMP JUMPDEST PUSH1 0x0 PUSH2 0x1CA5 PUSH1 0x1D DUP4 PUSH2 0x1A18 JUMP JUMPDEST SWAP2 POP PUSH2 0x1CB0 DUP3 PUSH2 0x1C6F JUMP JUMPDEST PUSH1 0x20 DUP3 ADD SWAP1 POP SWAP2 SWAP1 POP JUMP JUMPDEST PUSH1 0x0 PUSH1 0x20 DUP3 ADD SWAP1 POP DUP2 DUP2 SUB PUSH1 0x0 DUP4 ADD MSTORE PUSH2 0x1CD4 DUP2 PUSH2 0x1C98 JUMP JUMPDEST SWAP1 POP SWAP2 SWAP1 POP JUMP JUMPDEST PUSH32 0x4E487B7100000000000000000000000000000000000000000000000000000000 PUSH1 0x0 MSTORE PUSH1 0x22 PUSH1 0x4 MSTORE PUSH1 0x24 PUSH1 0x0 REVERT JUMPDEST PUSH1 0x0 PUSH1 0x2 DUP3 DIV SWAP1 POP PUSH1 0x1 DUP3 AND DUP1 PUSH2 0x1D22 JUMPI PUSH1 0x7F DUP3 AND SWAP2 POP JUMPDEST PUSH1 0x20 DUP3 LT DUP2 SUB PUSH2 0x1D35 JUMPI PUSH2 0x1D34 PUSH2 0x1CDB JUMP JUMPDEST JUMPDEST POP SWAP2 SWAP1 POP JUMP JUMPDEST PUSH1 0x0 DUP2 SWAP1 POP DUP2 PUSH1 0x0 MSTORE PUSH1 0x20 PUSH1 0x0 KECCAK256 SWAP1 POP SWAP2 SWAP1 POP JUMP JUMPDEST PUSH1 0x0 PUSH1 0x20 PUSH1 0x1F DUP4 ADD DIV SWAP1 POP SWAP2 SWAP1 POP JUMP JUMPDEST PUSH1 0x0 DUP3 DUP3 SHL SWAP1 POP SWAP3 SWAP2 POP POP JUMP JUMPDEST PUSH1 0x0 PUSH1 0x8 DUP4 MUL PUSH2 0x1D9D PUSH32 0xFFFFFFFFFFFFFFFFFFFFFFFFFFFFFFFFFFFFFFFFFFFFFFFFFFFFFFFFFFFFFFFF DUP3 PUSH2 0x1D60 JUMP JUMPDEST PUSH2 0x1DA7 DUP7 DUP4 PUSH2 0x1D60 JUMP JUMPDEST SWAP6 POP DUP1 NOT DUP5 AND SWAP4 POP DUP1 DUP7 AND DUP5 OR SWAP3 POP POP POP SWAP4 SWAP3 POP POP POP JUMP JUMPDEST PUSH1 0x0 DUP2 SWAP1 POP SWAP2 SWAP1 POP JUMP JUMPDEST PUSH1 0x0 PUSH2 0x1DE4 PUSH2 0x1DDF PUSH2 0x1DDA DUP5 PUSH2 0x1427 JUMP JUMPDEST PUSH2 0x1DBF JUMP JUMPDEST PUSH2 0x1427 JUMP JUMPDEST SWAP1 POP SWAP2 SWAP1 POP JUMP JUMPDEST PUSH1 0x0 DUP2 SWAP1 POP SWAP2 SWAP1 POP JUMP JUMPDEST PUSH2 0x1DFE DUP4 PUSH2 0x1DC9 JUMP JUMPDEST PUSH2 0x1E12 PUSH2 0x1E0A DUP3 PUSH2 0x1DEB JUMP JUMPDEST DUP5 DUP5 SLOAD PUSH2 0x1D6D JUMP JUMPDEST DUP3 SSTORE POP POP POP POP JUMP JUMPDEST PUSH1 0x0 SWAP1 JUMP JUMPDEST PUSH2 0x1E27 PUSH2 0x1E1A JUMP JUMPDEST PUSH2 0x1E32 DUP2 DUP5 DUP5 PUSH2 0x1DF5 JUMP JUMPDEST POP POP POP JUMP JUMPDEST JUMPDEST DUP2 DUP2 LT ISZERO PUSH2 0x1E56 JUMPI PUSH2 0x1E4B PUSH1 0x0 DUP3 PUSH2 0x1E1F JUMP JUMPDEST PUSH1 0x1 DUP2 ADD SWAP1 POP PUSH2 0x1E38 JUMP JUMPDEST POP POP JUMP JUMPDEST PUSH1 0x1F DUP3 GT ISZERO PUSH2 0x1E9B JUMPI PUSH2 0x1E6C DUP2 PUSH2 0x1D3B JUMP JUMPDEST PUSH2 0x1E75 DUP5 PUSH2 0x1D50 JUMP JUMPDEST DUP2 ADD PUSH1 0x20 DUP6 LT ISZERO PUSH2 0x1E84 JUMPI DUP2 SWAP1 POP JUMPDEST PUSH2 0x1E98 PUSH2 0x1E90 DUP6 PUSH2 0x1D50 JUMP JUMPDEST DUP4 ADD DUP3 PUSH2 0x1E37 JUMP JUMPDEST POP POP JUMPDEST POP POP POP JUMP JUMPDEST PUSH1 0x0 DUP3 DUP3 SHR SWAP1 POP SWAP3 SWAP2 POP POP JUMP JUMPDEST PUSH1 0x0 PUSH2 0x1EBE PUSH1 0x0 NOT DUP5 PUSH1 0x8 MUL PUSH2 0x1EA0 JUMP JUMPDEST NOT DUP1 DUP4 AND SWAP2 POP POP SWAP3 SWAP2 POP POP JUMP JUMPDEST PUSH1 0x0 PUSH2 0x1ED7 DUP4 DUP4 PUSH2 0x1EAD JUMP JUMPDEST SWAP2 POP DUP3 PUSH1 0x2 MUL DUP3 OR SWAP1 POP SWAP3 SWAP2 POP POP JUMP JUMPDEST PUSH2 0x1EF0 DUP3 PUSH2 0x1A0D JUMP JUMPDEST PUSH8 0xFFFFFFFFFFFFFFFF DUP2 GT ISZERO PUSH2 0x1F09 JUMPI PUSH2 0x1F08 PUSH2 0x14A5 JUMP JUMPDEST JUMPDEST PUSH2 0x1F13 DUP3 SLOAD PUSH2 0x1D0A JUMP JUMPDEST PUSH2 0x1F1E DUP3 DUP3 DUP6 PUSH2 0x1E5A JUMP JUMPDEST PUSH1 0x0 PUSH1 0x20 SWAP1 POP PUSH1 0x1F DUP4 GT PUSH1 0x1 DUP2 EQ PUSH2 0x1F51 JUMPI PUSH1 0x0 DUP5 ISZERO PUSH2 0x1F3F JUMPI DUP3 DUP8 ADD MLOAD SWAP1 POP JUMPDEST PUSH2 0x1F49 DUP6 DUP3 PUSH2 0x1ECB JUMP JUMPDEST DUP7 SSTORE POP PUSH2 0x1FB1 JUMP JUMPDEST PUSH1 0x1F NOT DUP5 AND PUSH2 0x1F5F DUP7 PUSH2 0x1D3B JUMP JUMPDEST PUSH1 0x0 JUMPDEST DUP3 DUP2 LT ISZERO PUSH2 0x1F87 JUMPI DUP5 DUP10 ADD MLOAD DUP3 SSTORE PUSH1 0x1 DUP3 ADD SWAP2 POP PUSH1 0x20 DUP6 ADD SWAP5 POP PUSH1 0x20 DUP2 ADD SWAP1 POP PUSH2 0x1F62 JUMP JUMPDEST DUP7 DUP4 LT ISZERO PUSH2 0x1FA4 JUMPI DUP5 DUP10 ADD MLOAD PUSH2 0x1FA0 PUSH1 0x1F DUP10 AND DUP3 PUSH2 0x1EAD JUMP JUMPDEST DUP4 SSTORE POP JUMPDEST PUSH1 0x1 PUSH1 0x2 DUP9 MUL ADD DUP9 SSTORE POP POP POP JUMPDEST POP POP POP POP POP POP JUMP JUMPDEST PUSH1 0x0 PUSH1 0x60 DUP3 ADD SWAP1 POP PUSH2 0x1FCE PUSH1 0x0 DUP4 ADD DUP7 PUSH2 0x18A4 JUMP JUMPDEST DUP2 DUP2 SUB PUSH1 0x20 DUP4 ADD MSTORE PUSH2 0x1FE0 DUP2 DUP6 PUSH2 0x1A53 JUMP JUMPDEST SWAP1 POP PUSH2 0x1FEF PUSH1 0x40 DUP4 ADD DUP5 PUSH2 0x1A9B JUMP JUMPDEST SWAP5 SWAP4 POP POP POP POP JUMP JUMPDEST PUSH32 0x4167656E7420494420616C726561647920657869737473000000000000000000 PUSH1 0x0 DUP3 ADD MSTORE POP JUMP JUMPDEST PUSH1 0x0 PUSH2 0x202D PUSH1 0x17 DUP4 PUSH2 0x1A18 JUMP JUMPDEST SWAP2 POP PUSH2 0x2038 DUP3 PUSH2 0x1FF7 JUMP JUMPDEST PUSH1 0x20 DUP3 ADD SWAP1 POP SWAP2 SWAP1 POP JUMP JUMPDEST PUSH1 0x0 PUSH1 0x20 DUP3 ADD SWAP1 POP DUP2 DUP2 SUB PUSH1 0x0 DUP4 ADD MSTORE PUSH2 0x205C DUP2 PUSH2 0x2020 JUMP JUMPDEST SWAP1 POP SWAP2 SWAP1 POP JUMP JUMPDEST PUSH32 0x4E487B7100000000000000000000000000000000000000000000000000000000 PUSH1 0x0 MSTORE PUSH1 0x11 PUSH1 0x4 MSTORE PUSH1 0x24 PUSH1 0x0 REVERT JUMPDEST PUSH1 0x0 PUSH2 0x209D DUP3 PUSH2 0x1427 JUMP JUMPDEST SWAP2 POP PUSH32 0xFFFFFFFFFFFFFFFFFFFFFFFFFFFFFFFFFFFFFFFFFFFFFFFFFFFFFFFFFFFFFFFF DUP3 SUB PUSH2 0x20CF JUMPI PUSH2 0x20CE PUSH2 0x2063 JUMP JUMPDEST JUMPDEST PUSH1 0x1 DUP3 ADD SWAP1 POP SWAP2 SWAP1 POP JUMP JUMPDEST PUSH1 0x0 PUSH1 0x40 DUP3 ADD SWAP1 POP PUSH2 0x20EF PUSH1 0x0 DUP4 ADD DUP6 PUSH2 0x18A4 JUMP JUMPDEST DUP2 DUP2 SUB PUSH1 0x20 DUP4 ADD MSTORE PUSH2 0x2101 DUP2 DUP5 PUSH2 0x1A53 JUMP JUMPDEST SWAP1 POP SWAP4 SWAP3 POP POP POP JUMP JUMPDEST PUSH32 0x5061796D656E7420616D6F756E74206D75737420626520677265617465722074 PUSH1 0x0 DUP3 ADD MSTORE PUSH32 0x68616E2030000000000000000000000000000000000000000000000000000000 PUSH1 0x20 DUP3 ADD MSTORE POP JUMP JUMPDEST PUSH1 0x0 PUSH2 0x2166 PUSH1 0x25 DUP4 PUSH2 0x1A18 JUMP JUMPDEST SWAP2 POP PUSH2 0x2171 DUP3 PUSH2 0x210A JUMP JUMPDEST PUSH1 0x40 DUP3 ADD SWAP1 POP SWAP2 SWAP1 POP JUMP JUMPDEST PUSH1 0x0 PUSH1 0x20 DUP3 ADD SWAP1 POP DUP2 DUP2 SUB PUSH1 0x0 DUP4 ADD MSTORE PUSH2 0x2195 DUP2 PUSH2 0x2159 JUMP JUMPDEST SWAP1 POP SWAP2 SWAP1 POP JUMP JUMPDEST PUSH32 0x43726561746F72206D69736D6174636820776974682072656769737465726564 PUSH1 0x0 DUP3 ADD MSTORE PUSH32 0x206167656E740000000000000000000000000000000000000000000000000000 PUSH1 0x20 DUP3 ADD MSTORE POP JUMP JUMPDEST PUSH1 0x0 PUSH2 0x21F8 PUSH1 0x26 DUP4 PUSH2 0x1A18 JUMP JUMPDEST SWAP2 POP PUSH2 0x2203 DUP3 PUSH2 0x219C JUMP JUMPDEST PUSH1 0x40 DUP3 ADD SWAP1 POP SWAP2 SWAP1 POP JUMP JUMPDEST PUSH1 0x0 PUSH1 0x20 DUP3 ADD SWAP1 POP DUP2 DUP2 SUB PUSH1 0x0 DUP4 ADD MSTORE PUSH2 0x2227 DUP2 PUSH2 0x21EB JUMP JUMPDEST SWAP1 POP SWAP2 SWAP1 POP JUMP JUMPDEST PUSH1 0x0 DUP2 PUSH1 0x60 SHL SWAP1 POP SWAP2 SWAP1 POP JUMP JUMPDEST PUSH1 0x0 PUSH2 0x2246 DUP3 PUSH2 0x222E JUMP JUMPDEST SWAP1 POP SWAP2 SWAP1 POP JUMP JUMPDEST PUSH1 0x0 PUSH2 0x2258 DUP3 PUSH2 0x223B JUMP JUMPDEST SWAP1 POP SWAP2 SWAP1 POP JUMP JUMPDEST PUSH2 0x2270 PUSH2 0x226B DUP3 PUSH2 0x18EE JUMP JUMPDEST PUSH2 0x224D JUMP JUMPDEST DUP3 MSTORE POP POP JUMP JUMPDEST PUSH1 0x0 DUP2 SWAP1 POP SWAP2 SWAP1 POP JUMP JUMPDEST PUSH2 0x2291 PUSH2 0x228C DUP3 PUSH2 0x1427 JUMP JUMPDEST PUSH2 0x2276 JUMP JUMPDEST DUP3 MSTORE POP POP JUMP JUMPDEST PUSH1 0x0 PUSH2 0x22A3 DUP3 DUP7 PUSH2 0x225F JUMP JUMPDEST PUSH1 0x14 DUP3 ADD SWAP2 POP PUSH2 0x22B3 DUP3 DUP6 PUSH2 0x1C27 JUMP JUMPDEST SWAP2 POP PUSH2 0x22BF DUP3 DUP5 PUSH2 0x2280 JUMP JUMPDEST PUSH1 0x20 DUP3 ADD SWAP2 POP DUP2 SWAP1 POP SWAP5 SWAP4 POP POP POP POP JUMP JUMPDEST PUSH1 0x0 PUSH1 0x40 DUP3 ADD SWAP1 POP PUSH2 0x22E5 PUSH1 0x0 DUP4 ADD DUP6 PUSH2 0x18A4 JUMP JUMPDEST PUSH2 0x22F2 PUSH1 0x20 DUP4 ADD DUP5 PUSH2 0x18A4 JUMP JUMPDEST SWAP4 SWAP3 POP POP POP JUMP JUMPDEST PUSH32 0x4167656E74206973206E6F742061637469766500000000000000000000000000 PUSH1 0x0 DUP3 ADD MSTORE POP JUMP JUMPDEST PUSH1 0x0 PUSH2 0x232F PUSH1 0x13 DUP4 PUSH2 0x1A18 JUMP JUMPDEST SWAP2 POP PUSH2 0x233A DUP3 PUSH2 0x22F9 JUMP JUMPDEST PUSH1 0x20 DUP3 ADD SWAP1 POP SWAP2 SWAP1 POP JUMP JUMPDEST PUSH1 0x0 PUSH1 0x20 DUP3 ADD SWAP1 POP DUP2 DUP2 SUB PUSH1 0x0 DUP4 ADD MSTORE PUSH2 0x235E DUP2 PUSH2 0x2322 JUMP JUMPDEST SWAP1 POP SWAP2 SWAP1 POP JUMP JUMPDEST PUSH32 0x496E73756666696369656E74207061796D656E74000000000000000000000000 PUSH1 0x0 DUP3 ADD MSTORE POP JUMP JUMPDEST PUSH1 0x0 PUSH2 0x239B PUSH1 0x14 DUP4 PUSH2 0x1A18 JUMP JUMPDEST SWAP2 POP PUSH2 0x23A6 DUP3 PUSH2 0x2365 JUMP JUMPDEST PUSH1 0x20 DUP3 ADD SWAP1 POP SWAP2 SWAP1 POP JUMP JUMPDEST PUSH1 0x0 PUSH1 0x20 DUP3 ADD SWAP1 POP DUP2 DUP2 SUB PUSH1 0x0 DUP4 ADD MSTORE PUSH2 0x23CA DUP2 PUSH2 0x238E JUMP JUMPDEST SWAP1 POP SWAP2 SWAP1 POP JUMP JUMPDEST PUSH1 0x0 PUSH2 0x23DC DUP3 PUSH2 0x1427 JUMP JUMPDEST SWAP2 POP PUSH2 0x23E7 DUP4 PUSH2 0x1427 JUMP JUMPDEST SWAP3 POP DUP3 DUP3 MUL PUSH2 0x23F5 DUP2 PUSH2 0x1427 JUMP JUMPDEST SWAP2 POP DUP3 DUP3 DIV DUP5 EQ DUP4 ISZERO OR PUSH2 0x240C JUMPI PUSH2 0x240B PUSH2 0x2063 JUMP JUMPDEST JUMPDEST POP SWAP3 SWAP2 POP POP JUMP JUMPDEST PUSH32 0x4E487B7100000000000000000000000000000000000000000000000000000000 PUSH1 0x0 MSTORE PUSH1 0x12 PUSH1 0x4 MSTORE PUSH1 0x24 PUSH1 0x0 REVERT JUMPDEST PUSH1 0x0 PUSH2 0x244D DUP3 PUSH2 0x1427 JUMP JUMPDEST SWAP2 POP PUSH2 0x2458 DUP4 PUSH2 0x1427 JUMP JUMPDEST SWAP3 POP DUP3 PUSH2 0x2468 JUMPI PUSH2 0x2467 PUSH2 0x2413 JUMP JUMPDEST JUMPDEST DUP3 DUP3 DIV SWAP1 POP SWAP3 SWAP2 POP POP JUMP JUMPDEST PUSH1 0x0 PUSH2 0x247E DUP3 PUSH2 0x1427 JUMP JUMPDEST SWAP2 POP PUSH2 0x2489 DUP4 PUSH2 0x1427 JUMP JUMPDEST SWAP3 POP DUP3 DUP3 SUB SWAP1 POP DUP2 DUP2 GT ISZERO PUSH2 0x24A1 JUMPI PUSH2 0x24A0 PUSH2 0x2063 JUMP JUMPDEST JUMPDEST SWAP3 SWAP2 POP POP JUMP JUMPDEST PUSH1 0x0 DUP2 SWAP1 POP SWAP3 SWAP2 POP POP JUMP JUMPDEST POP JUMP JUMPDEST PUSH1 0x0 PUSH2 0x24C2 PUSH1 0x0 DUP4 PUSH2 0x24A7 JUMP JUMPDEST SWAP2 POP PUSH2 0x24CD DUP3 PUSH2 0x24B2 JUMP JUMPDEST PUSH1 0x0 DUP3 ADD SWAP1 POP SWAP2 SWAP1 POP JUMP JUMPDEST PUSH1 0x0 PUSH2 0x24E3 DUP3 PUSH2 0x24B5 JUMP JUMPDEST SWAP2 POP DUP2 SWAP1 POP SWAP2 SWAP1 POP JUMP JUMPDEST PUSH32 0x506C6174666F726D20666565207472616E73666572206661696C656400000000 PUSH1 0x0 DUP3 ADD MSTORE POP JUMP JUMPDEST PUSH1 0x0 PUSH2 0x2523 PUSH1 0x1C DUP4 PUSH2 0x1A18 JUMP JUMPDEST SWAP2 POP PUSH2 0x252E DUP3 PUSH2 0x24ED JUMP JUMPDEST PUSH1 0x20 DUP3 ADD SWAP1 POP SWAP2 SWAP1 POP JUMP JUMPDEST PUSH1 0x0 PUSH1 0x20 DUP3 ADD SWAP1 POP DUP2 DUP2 SUB PUSH1 0x0 DUP4 ADD MSTORE PUSH2 0x2552 DUP2 PUSH2 0x2516 JUMP JUMPDEST SWAP1 POP SWAP2 SWAP1 POP JUMP JUMPDEST PUSH32 0x43726561746F72207368617265207472616E73666572206661696C6564000000 PUSH1 0x0 DUP3 ADD MSTORE POP JUMP JUMPDEST PUSH1 0x0 PUSH2 0x258F PUSH1 0x1D DUP4 PUSH2 0x1A18 JUMP JUMPDEST SWAP2 POP PUSH2 0x259A DUP3 PUSH2 0x2559 JUMP JUMPDEST PUSH1 0x20 DUP3 ADD SWAP1 POP SWAP2 SWAP1 POP JUMP JUMPDEST PUSH1 0x0 PUSH1 0x20 DUP3 ADD SWAP1 POP DUP2 DUP2 SUB PUSH1 0x0 DUP4 ADD MSTORE PUSH2 0x25BE DUP2 PUSH2 0x2582 JUMP JUMPDEST SWAP1 POP SWAP2 SWAP1 POP JUMP INVALID LOG2 PUSH5 0x6970667358 0x22 SLT KECCAK256 0xCA 0xBA SELFDESTRUCT MSIZE SLOAD 0xEC ISZERO DELEGATECALL 0xD2 MSTORE GASPRICE 0x2E 0xDE REVERT SWAP12 PUSH24 0x78F2080FB5D7A373A7D9E95C95B0F6DF64736F6C63430008 EQ STOP CALLER "},"methodIdentifiers":{"agentCount()":"b7dc1284","agents(string)":"cf6ee0cb","datasets(string)":"de570c97","owner()":"8da5cb5b","pay(string,address)":"a5a4fe4c","payForService(string)":"a9ce953a","platformFeePercent()":"8c639a85","registerAgent(string,uint256,string,string[])":"737d9a11","registerDataset(string,uint256)":"4e2754f2","renounceOwnership()":"715018a6","setPlatformFee(uint256)":"12e8e2c3","transferOwnership(address)":"f2fde38b","updateAgent(string,uint256,string,bool)":"30b0d2c2","withdraw()":"3ccfd60b"}}}}}