{"contracts/BaserootMarketplace.sol":{"BaserootMarketplace":{"abi":[{"inputs":[{"internalType":"address","name":"initialOwner","type":"address"}],"stateMutability":"nonpayable","type":"constructor"},{"inputs":[{"internalType":"address","name":"owner","type":"address"}],"name":"OwnableInvalidOwner","type":"error"},{"inputs":[{"internalType":"address","name":"account","type":"address"}],"name":"OwnableUnauthorizedAccount","type":"error"},{"inputs":[],"name":"ReentrancyGuardReentrantCall","type":"error"},{"anonymous":false,"inputs":[{"indexed":true,"internalType":"uint256","name":"agentId","type":"uint256"},{"indexed":true,"internalType":"address","name":"creator","type":"address"},{"indexed":false,"internalType":"uint256","name":"price","type":"uint256"},{"indexed":false,"internalType":"string","name":"metadata","type":"string"}],"name":"AgentRegistered","type":"event"},{"anonymous":false,"inputs":[{"indexed":true,"internalType":"uint256","name":"agentId","type":"uint256"},{"indexed":false,"internalType":"uint256","name":"price","type":"uint256"},{"indexed":false,"internalType":"string","name":"metadata","type":"string"},{"indexed":false,"internalType":"bool","name":"isActive","type":"bool"}],"name":"AgentUpdated","type":"event"},{"anonymous":false,"inputs":[{"indexed":true,"internalType":"string","name":"datasetId","type":"string"},{"indexed":true,"internalType":"address","name":"provider","type":"address"},{"indexed":false,"internalType":"uint256","name":"price","type":"uint256"}],"name":"DatasetRegistered","type":"event"},{"anonymous":false,"inputs":[{"indexed":true,"internalType":"address","name":"previousOwner","type":"address"},{"indexed":true,"internalType":"address","name":"newOwner","type":"address"}],"name":"OwnershipTransferred","type":"event"},{"anonymous":false,"inputs":[{"indexed":false,"internalType":"uint256","name":"newFeePercent","type":"uint256"}],"name":"PlatformFeeUpdated","type":"event"},{"anonymous":false,"inputs":[{"indexed":true,"internalType":"uint256","name":"agentId","type":"uint256"},{"indexed":true,"internalType":"address","name":"user","type":"address"},{"indexed":false,"internalType":"uint256","name":"amount","type":"uint256"},{"indexed":false,"internalType":"uint256","name":"creditId","type":"uint256"}],"name":"ServicePaid","type":"event"},{"inputs":[],"name":"agentCount","outputs":[{"internalType":"uint256","name":"","type":"uint256"}],"stateMutability":"view","type":"function"},{"inputs":[{"internalType":"uint256","name":"","type":"uint256"}],"name":"agents","outputs":[{"internalType":"uint256","name":"id","type":"uint256"},{"internalType":"address payable","name":"creator","type":"address"},{"internalType":"uint256","name":"price","type":"uint256"},{"internalType":"string","name":"metadata","type":"string"},{"internalType":"bool","name":"isActive","type":"bool"}],"stateMutability":"view","type":"function"},{"inputs":[{"internalType":"string","name":"","type":"string"}],"name":"datasets","outputs":[{"internalType":"string","name":"id","type":"string"},{"internalType":"address payable","name":"provider","type":"address"},{"internalType":"uint256","name":"pricePerUse","type":"uint256"},{"internalType":"bool","name":"isActive","type":"bool"}],"stateMutability":"view","type":"function"},{"inputs":[],"name":"owner","outputs":[{"internalType":"address","name":"","type":"address"}],"stateMutability":"view","type":"function"},{"inputs":[{"internalType":"uint256","name":"_agentId","type":"uint256"}],"name":"payForService","outputs":[],"stateMutability":"payable","type":"function"},{"inputs":[],"name":"platformFeePercent","outputs":[{"internalType":"uint256","name":"","type":"uint256"}],"stateMutability":"view","type":"function"},{"inputs":[{"internalType":"uint256","name":"_price","type":"uint256"},{"internalType":"string","name":"_metadata","type":"string"},{"internalType":"string[]","name":"_datasetIds","type":"string[]"}],"name":"registerAgent","outputs":[{"internalType":"uint256","name":"","type":"uint256"}],"stateMutability":"nonpayable","type":"function"},{"inputs":[{"internalType":"string","name":"_datasetId","type":"string"},{"internalType":"uint256","name":"_pricePerUse","type":"uint256"}],"name":"registerDataset","outputs":[],"stateMutability":"nonpayable","type":"function"},{"inputs":[],"name":"renounceOwnership","outputs":[],"stateMutability":"nonpayable","type":"function"},{"inputs":[{"internalType":"uint256","name":"_percent","type":"uint256"}],"name":"setPlatformFee","outputs":[],"stateMutability":"nonpayable","type":"function"},{"inputs":[{"internalType":"address","name":"newOwner","type":"address"}],"name":"transferOwnership","outputs":[],"stateMutability":"nonpayable","type":"function"},{"inputs":[{"internalType":"uint256","name":"_agentId","type":"uint256"},{"internalType":"uint256","name":"_price","type":"uint256"},{"internalType":"string","name":"_metadata","type":"string"},{"internalType":"bool","name":"_isActive","type":"bool"}],"name":"updateAgent","outputs":[],"stateMutability":"nonpayable","type":"function"},{"inputs":[],"name":"withdraw","outputs":[],"stateMutability":"nonpayable","type":"function"}],"evm":{"bytecode":{"linkReferences":{},"object":"6080604052600a6003553480156200001657600080fd5b50604051620022033803806200220383398181016040528101906200003c919062000200565b80600073ffffffffffffffffffffffffffffffffffffffff168173ffffffffffffffffffffffffffffffffffffffff1603620000b25760006040517f1e4fbdf7000000000000000000000000000000000000000000000000000000008152600401620000a9919062000243565b60405180910390fd5b620000c381620000d260201b60201c565b50600180819055505062000260565b60008060009054906101000a900473ffffffffffffffffffffffffffffffffffffffff169050816000806101000a81548173ffffffffffffffffffffffffffffffffffffffff021916908373ffffffffffffffffffffffffffffffffffffffff1602179055508173ffffffffffffffffffffffffffffffffffffffff168173ffffffffffffffffffffffffffffffffffffffff167f8be0079c531659141344cd1fd0a4f28419497f9722a3daafe3b4186f6b6457e060405160405180910390a35050565b600080fd5b600073ffffffffffffffffffffffffffffffffffffffff82169050919050565b6000620001c8826200019b565b9050919050565b620001da81620001bb565b8114620001e657600080fd5b50565b600081519050620001fa81620001cf565b92915050565b60006020828403121562000219576200021862000196565b5b60006200022984828501620001e9565b91505092915050565b6200023d81620001bb565b82525050565b60006020820190506200025a600083018462000232565b92915050565b611f9380620002706000396000f3fe6080604052600436106100c25760003560e01c80638c639a851161007f578063b7dc128411610059578063b7dc128414610244578063dbec6def1461026f578063de570c971461028b578063f2fde38b146102cb576100c2565b80638c639a85146101c55780638da5cb5b146101f0578063910ce7701461021b576100c2565b806312e8e2c3146100c75780633ccfd60b146100f05780634e2754f2146101075780634f33191b14610130578063513856c81461016d578063715018a6146101ae575b600080fd5b3480156100d357600080fd5b506100ee60048036038101906100e9919061105c565b6102f4565b005b3480156100fc57600080fd5b50610105610381565b005b34801561011357600080fd5b5061012e600480360381019061012991906111cf565b6103d9565b005b34801561013c57600080fd5b5061015760048036038101906101529190611311565b610523565b60405161016491906113ab565b60405180910390f35b34801561017957600080fd5b50610194600480360381019061018f919061105c565b6106aa565b6040516101a59594939291906114a1565b60405180910390f35b3480156101ba57600080fd5b506101c3610795565b005b3480156101d157600080fd5b506101da6107a9565b6040516101e791906113ab565b60405180910390f35b3480156101fc57600080fd5b506102056107af565b604051610212919061151c565b60405180910390f35b34801561022757600080fd5b50610242600480360381019061023d9190611563565b6107d8565b005b34801561025057600080fd5b5061025961090d565b60405161026691906113ab565b60405180910390f35b6102896004803603810190610284919061105c565b610913565b005b34801561029757600080fd5b506102b260048036038101906102ad91906115e6565b610c15565b6040516102c2949392919061162f565b60405180910390f35b3480156102d757600080fd5b506102f260048036038101906102ed91906116a7565b610d10565b005b6102fc610d96565b601e811115610340576040517f08c379a000000000000000000000000000000000000000000000000000000000815260040161033790611720565b60405180910390fd5b806003819055507f45610d581145924dd7090a5017e5f2b1d6f42213bb2e95707ff86846bbfcb1ca8160405161037691906113ab565b60405180910390a150565b610389610d96565b6103916107af565b73ffffffffffffffffffffffffffffffffffffffff166108fc479081150290604051600060405180830381858888f193505050501580156103d6573d6000803e3d6000fd5b50565b60405180608001604052808381526020013373ffffffffffffffffffffffffffffffffffffffff16815260200182815260200160011515815250600583604051610423919061177c565b90815260200160405180910390206000820151816000019081610446919061199f565b5060208201518160010160006101000a81548173ffffffffffffffffffffffffffffffffffffffff021916908373ffffffffffffffffffffffffffffffffffffffff1602179055506040820151816002015560608201518160030160006101000a81548160ff0219169083151502179055509050503373ffffffffffffffffffffffffffffffffffffffff16826040516104e0919061177c565b60405180910390207f495b93f154d2531fecac92f68a6c980915501066b8469b2e290667ee8fb520658360405161051791906113ab565b60405180910390a35050565b60006002600081548092919061053890611aa0565b9190505550600060025490506040518060c001604052808281526020013373ffffffffffffffffffffffffffffffffffffffff16815260200186815260200185815260200160011515815260200184815250600460008381526020019081526020016000206000820151816000015560208201518160010160006101000a81548173ffffffffffffffffffffffffffffffffffffffff021916908373ffffffffffffffffffffffffffffffffffffffff16021790555060408201518160020155606082015181600301908161060d919061199f565b5060808201518160040160006101000a81548160ff02191690831515021790555060a082015181600501908051906020019061064a929190610f38565b509050503373ffffffffffffffffffffffffffffffffffffffff16817fcbb96f51f0d44aad38bd37e9959154a2f979b86301a6efbcb08d83f10ac9c8208787604051610697929190611ae8565b60405180910390a3809150509392505050565b60046020528060005260406000206000915090508060000154908060010160009054906101000a900473ffffffffffffffffffffffffffffffffffffffff16908060020154908060030180546106ff906117c2565b80601f016020809104026020016040519081016040528092919081815260200182805461072b906117c2565b80156107785780601f1061074d57610100808354040283529160200191610778565b820191906000526020600020905b81548152906001019060200180831161075b57829003601f168201915b5050505050908060040160009054906101000a900460ff16905085565b61079d610d96565b6107a76000610e1d565b565b60035481565b60008060009054906101000a900473ffffffffffffffffffffffffffffffffffffffff16905090565b3373ffffffffffffffffffffffffffffffffffffffff166004600086815260200190815260200160002060010160009054906101000a900473ffffffffffffffffffffffffffffffffffffffff1673ffffffffffffffffffffffffffffffffffffffff161461087c576040517f08c379a000000000000000000000000000000000000000000000000000000000815260040161087390611b64565b60405180910390fd5b6000600460008681526020019081526020016000209050838160020181905550828160030190816108ad919061199f565b50818160040160006101000a81548160ff021916908315150217905550847f12bd0644601ee23a95f946b22d21ad8a931f5ce6345029851e0d94e7b62715f88585856040516108fe93929190611b84565b60405180910390a25050505050565b60025481565b61091b610ee1565b60006004600083815260200190815260200160002090508060040160009054906101000a900460ff16610983576040517f08c379a000000000000000000000000000000000000000000000000000000000815260040161097a90611c0e565b60405180910390fd5b80600201543410156109ca576040517f08c379a00000000000000000000000000000000000000000000000000000000081526004016109c190611c7a565b60405180910390fd5b600034905060006064600354836109e19190611c9a565b6109eb9190611d0b565b9050600081836109fb9190611d3c565b90506000610a076107af565b73ffffffffffffffffffffffffffffffffffffffff1683604051610a2a90611da1565b60006040518083038185875af1925050503d8060008114610a67576040519150601f19603f3d011682016040523d82523d6000602084013e610a6c565b606091505b5050905080610ab0576040517f08c379a0000000000000000000000000000000000000000000000000000000008152600401610aa790611e02565b60405180910390fd5b60008560010160009054906101000a900473ffffffffffffffffffffffffffffffffffffffff1673ffffffffffffffffffffffffffffffffffffffff1683604051610afa90611da1565b60006040518083038185875af1925050503d8060008114610b37576040519150601f19603f3d011682016040523d82523d6000602084013e610b3c565b606091505b5050905080610b80576040517f08c379a0000000000000000000000000000000000000000000000000000000008152600401610b7790611e6e565b60405180910390fd5b6000338842604051602001610b9793929190611ef7565b6040516020818303038152906040528051906020012060001c90503373ffffffffffffffffffffffffffffffffffffffff16887f42ef525f592790defb67b1dbaea236673f8cb04010bb2186d89e3f94474527168884604051610bfb929190611f34565b60405180910390a350505050505050610c12610f27565b50565b600581805160208101820180518482526020830160208501208183528095505050505050600091509050806000018054610c4e906117c2565b80601f0160208091040260200160405190810160405280929190818152602001828054610c7a906117c2565b8015610cc75780601f10610c9c57610100808354040283529160200191610cc7565b820191906000526020600020905b815481529060010190602001808311610caa57829003601f168201915b5050505050908060010160009054906101000a900473ffffffffffffffffffffffffffffffffffffffff16908060020154908060030160009054906101000a900460ff16905084565b610d18610d96565b600073ffffffffffffffffffffffffffffffffffffffff168173ffffffffffffffffffffffffffffffffffffffff1603610d8a5760006040517f1e4fbdf7000000000000000000000000000000000000000000000000000000008152600401610d81919061151c565b60405180910390fd5b610d9381610e1d565b50565b610d9e610f30565b73ffffffffffffffffffffffffffffffffffffffff16610dbc6107af565b73ffffffffffffffffffffffffffffffffffffffff1614610e1b57610ddf610f30565b6040517f118cdaa7000000000000000000000000000000000000000000000000000000008152600401610e12919061151c565b60405180910390fd5b565b60008060009054906101000a900473ffffffffffffffffffffffffffffffffffffffff169050816000806101000a81548173ffffffffffffffffffffffffffffffffffffffff021916908373ffffffffffffffffffffffffffffffffffffffff1602179055508173ffffffffffffffffffffffffffffffffffffffff168173ffffffffffffffffffffffffffffffffffffffff167f8be0079c531659141344cd1fd0a4f28419497f9722a3daafe3b4186f6b6457e060405160405180910390a35050565b600260015403610f1d576040517f3ee5aeb500000000000000000000000000000000000000000000000000000000815260040160405180910390fd5b6002600181905550565b60018081905550565b600033905090565b828054828255906000526020600020908101928215610f80579160200282015b82811115610f7f578251829081610f6f919061199f565b5091602001919060010190610f58565b5b509050610f8d9190610f91565b5090565b5b80821115610fb15760008181610fa89190610fb5565b50600101610f92565b5090565b508054610fc1906117c2565b6000825580601f10610fd35750610ff2565b601f016020900490600052602060002090810190610ff19190610ff5565b5b50565b5b8082111561100e576000816000905550600101610ff6565b5090565b6000604051905090565b600080fd5b600080fd5b6000819050919050565b61103981611026565b811461104457600080fd5b50565b60008135905061105681611030565b92915050565b6000602082840312156110725761107161101c565b5b600061108084828501611047565b91505092915050565b600080fd5b600080fd5b6000601f19601f8301169050919050565b7f4e487b7100000000000000000000000000000000000000000000000000000000600052604160045260246000fd5b6110dc82611093565b810181811067ffffffffffffffff821117156110fb576110fa6110a4565b5b80604052505050565b600061110e611012565b905061111a82826110d3565b919050565b600067ffffffffffffffff82111561113a576111396110a4565b5b61114382611093565b9050602081019050919050565b82818337600083830152505050565b600061117261116d8461111f565b611104565b90508281526020810184848401111561118e5761118d61108e565b5b611199848285611150565b509392505050565b600082601f8301126111b6576111b5611089565b5b81356111c684826020860161115f565b91505092915050565b600080604083850312156111e6576111e561101c565b5b600083013567ffffffffffffffff81111561120457611203611021565b5b611210858286016111a1565b925050602061122185828601611047565b9150509250929050565b600067ffffffffffffffff821115611246576112456110a4565b5b602082029050602081019050919050565b600080fd5b600061126f61126a8461122b565b611104565b9050808382526020820190506020840283018581111561129257611291611257565b5b835b818110156112d957803567ffffffffffffffff8111156112b7576112b6611089565b5b8086016112c489826111a1565b85526020850194505050602081019050611294565b5050509392505050565b600082601f8301126112f8576112f7611089565b5b813561130884826020860161125c565b91505092915050565b60008060006060848603121561132a5761132961101c565b5b600061133886828701611047565b935050602084013567ffffffffffffffff81111561135957611358611021565b5b611365868287016111a1565b925050604084013567ffffffffffffffff81111561138657611385611021565b5b611392868287016112e3565b9150509250925092565b6113a581611026565b82525050565b60006020820190506113c0600083018461139c565b92915050565b600073ffffffffffffffffffffffffffffffffffffffff82169050919050565b60006113f1826113c6565b9050919050565b611401816113e6565b82525050565b600081519050919050565b600082825260208201905092915050565b60005b83811015611441578082015181840152602081019050611426565b60008484015250505050565b600061145882611407565b6114628185611412565b9350611472818560208601611423565b61147b81611093565b840191505092915050565b60008115159050919050565b61149b81611486565b82525050565b600060a0820190506114b6600083018861139c565b6114c360208301876113f8565b6114d0604083018661139c565b81810360608301526114e2818561144d565b90506114f16080830184611492565b9695505050505050565b6000611506826113c6565b9050919050565b611516816114fb565b82525050565b6000602082019050611531600083018461150d565b92915050565b61154081611486565b811461154b57600080fd5b50565b60008135905061155d81611537565b92915050565b6000806000806080858703121561157d5761157c61101c565b5b600061158b87828801611047565b945050602061159c87828801611047565b935050604085013567ffffffffffffffff8111156115bd576115bc611021565b5b6115c9878288016111a1565b92505060606115da8782880161154e565b91505092959194509250565b6000602082840312156115fc576115fb61101c565b5b600082013567ffffffffffffffff81111561161a57611619611021565b5b611626848285016111a1565b91505092915050565b60006080820190508181036000830152611649818761144d565b905061165860208301866113f8565b611665604083018561139c565b6116726060830184611492565b95945050505050565b611684816114fb565b811461168f57600080fd5b50565b6000813590506116a18161167b565b92915050565b6000602082840312156116bd576116bc61101c565b5b60006116cb84828501611692565b91505092915050565b7f46656520746f6f20686967680000000000000000000000000000000000000000600082015250565b600061170a600c83611412565b9150611715826116d4565b602082019050919050565b60006020820190508181036000830152611739816116fd565b9050919050565b600081905092915050565b600061175682611407565b6117608185611740565b9350611770818560208601611423565b80840191505092915050565b6000611788828461174b565b915081905092915050565b7f4e487b7100000000000000000000000000000000000000000000000000000000600052602260045260246000fd5b600060028204905060018216806117da57607f821691505b6020821081036117ed576117ec611793565b5b50919050565b60008190508160005260206000209050919050565b60006020601f8301049050919050565b600082821b905092915050565b6000600883026118557fffffffffffffffffffffffffffffffffffffffffffffffffffffffffffffffff82611818565b61185f8683611818565b95508019841693508086168417925050509392505050565b6000819050919050565b600061189c61189761189284611026565b611877565b611026565b9050919050565b6000819050919050565b6118b683611881565b6118ca6118c2826118a3565b848454611825565b825550505050565b600090565b6118df6118d2565b6118ea8184846118ad565b505050565b5b8181101561190e576119036000826118d7565b6001810190506118f0565b5050565b601f82111561195357611924816117f3565b61192d84611808565b8101602085101561193c578190505b61195061194885611808565b8301826118ef565b50505b505050565b600082821c905092915050565b600061197660001984600802611958565b1980831691505092915050565b600061198f8383611965565b9150826002028217905092915050565b6119a882611407565b67ffffffffffffffff8111156119c1576119c06110a4565b5b6119cb82546117c2565b6119d6828285611912565b600060209050601f831160018114611a0957600084156119f7578287015190505b611a018582611983565b865550611a69565b601f198416611a17866117f3565b60005b82811015611a3f57848901518255600182019150602085019450602081019050611a1a565b86831015611a5c5784890151611a58601f891682611965565b8355505b6001600288020188555050505b505050505050565b7f4e487b7100000000000000000000000000000000000000000000000000000000600052601160045260246000fd5b6000611aab82611026565b91507fffffffffffffffffffffffffffffffffffffffffffffffffffffffffffffffff8203611add57611adc611a71565b5b600182019050919050565b6000604082019050611afd600083018561139c565b8181036020830152611b0f818461144d565b90509392505050565b7f4f6e6c792063726561746f722063616e20757064617465206167656e74000000600082015250565b6000611b4e601d83611412565b9150611b5982611b18565b602082019050919050565b60006020820190508181036000830152611b7d81611b41565b9050919050565b6000606082019050611b99600083018661139c565b8181036020830152611bab818561144d565b9050611bba6040830184611492565b949350505050565b7f4167656e74206973206e6f742061637469766500000000000000000000000000600082015250565b6000611bf8601383611412565b9150611c0382611bc2565b602082019050919050565b60006020820190508181036000830152611c2781611beb565b9050919050565b7f496e73756666696369656e74207061796d656e74000000000000000000000000600082015250565b6000611c64601483611412565b9150611c6f82611c2e565b602082019050919050565b60006020820190508181036000830152611c9381611c57565b9050919050565b6000611ca582611026565b9150611cb083611026565b9250828202611cbe81611026565b91508282048414831517611cd557611cd4611a71565b5b5092915050565b7f4e487b7100000000000000000000000000000000000000000000000000000000600052601260045260246000fd5b6000611d1682611026565b9150611d2183611026565b925082611d3157611d30611cdc565b5b828204905092915050565b6000611d4782611026565b9150611d5283611026565b9250828203905081811115611d6a57611d69611a71565b5b92915050565b600081905092915050565b50565b6000611d8b600083611d70565b9150611d9682611d7b565b600082019050919050565b6000611dac82611d7e565b9150819050919050565b7f506c6174666f726d20666565207472616e73666572206661696c656400000000600082015250565b6000611dec601c83611412565b9150611df782611db6565b602082019050919050565b60006020820190508181036000830152611e1b81611ddf565b9050919050565b7f43726561746f72207368617265207472616e73666572206661696c6564000000600082015250565b6000611e58601d83611412565b9150611e6382611e22565b602082019050919050565b60006020820190508181036000830152611e8781611e4b565b9050919050565b60008160601b9050919050565b6000611ea682611e8e565b9050919050565b6000611eb882611e9b565b9050919050565b611ed0611ecb826114fb565b611ead565b82525050565b6000819050919050565b611ef1611eec82611026565b611ed6565b82525050565b6000611f038286611ebf565b601482019150611f138285611ee0565b602082019150611f238284611ee0565b602082019150819050949350505050565b6000604082019050611f49600083018561139c565b611f56602083018461139c565b939250505056fea264697066735822122040aa4d8725eed793d93f2fcc51c7e55b37e0aff2598b1f68d678683c099c55fb64736f6c63430008140033","opcodes":"PUSH1 0x80 PUSH1 0x40 MSTORE PUSH1 0xA PUSH1 0x3 SSTORE CALLVALUE DUP1 ISZERO PUSH3 0x16 JUMPI PUSH1 0x0 DUP1 REVERT JUMPDEST POP PUSH1 0x40 MLOAD PUSH3 0x2203 CODESIZE SUB DUP1 PUSH3 0x2203 DUP4 CODECOPY DUP2 DUP2 ADD PUSH1 0x40 MSTORE DUP2 ADD SWAP1 PUSH3 0x3C SWAP2 SWAP1 PUSH3 0x200 JUMP JUMPDEST DUP1 PUSH1 0x0 PUSH20 0xFFFFFFFFFFFFFFFFFFFFFFFFFFFFFFFFFFFFFFFF AND DUP2 PUSH20 0xFFFFFFFFFFFFFFFFFFFFFFFFFFFFFFFFFFFFFFFF AND SUB PUSH3 0xB2 JUMPI PUSH1 0x0 PUSH1 0x40 MLOAD PUSH32 0x1E4FBDF700000000000000000000000000000000000000000000000000000000 DUP2 MSTORE PUSH1 0x4 ADD PUSH3 0xA9 SWAP2 SWAP1 PUSH3 0x243 JUMP JUMPDEST PUSH1 0x40 MLOAD DUP1 SWAP2 SUB SWAP1 REVERT JUMPDEST PUSH3 0xC3 DUP2 PUSH3 0xD2 PUSH1 0x20 SHL PUSH1 0x20 SHR JUMP JUMPDEST POP PUSH1 0x1 DUP1 DUP2 SWAP1 SSTORE POP POP PUSH3 0x260 JUMP JUMPDEST PUSH1 0x0 DUP1 PUSH1 0x0 SWAP1 SLOAD SWAP1 PUSH2 0x100 EXP SWAP1 DIV PUSH20 0xFFFFFFFFFFFFFFFFFFFFFFFFFFFFFFFFFFFFFFFF AND SWAP1 POP DUP2 PUSH1 0x0 DUP1 PUSH2 0x100 EXP DUP2 SLOAD DUP2 PUSH20 0xFFFFFFFFFFFFFFFFFFFFFFFFFFFFFFFFFFFFFFFF MUL NOT AND SWAP1 DUP4 PUSH20 0xFFFFFFFFFFFFFFFFFFFFFFFFFFFFFFFFFFFFFFFF AND MUL OR SWAP1 SSTORE POP DUP2 PUSH20 0xFFFFFFFFFFFFFFFFFFFFFFFFFFFFFFFFFFFFFFFF AND DUP2 PUSH20 0xFFFFFFFFFFFFFFFFFFFFFFFFFFFFFFFFFFFFFFFF AND PUSH32 0x8BE0079C531659141344CD1FD0A4F28419497F9722A3DAAFE3B4186F6B6457E0 PUSH1 0x40 MLOAD PUSH1 0x40 MLOAD DUP1 SWAP2 SUB SWAP1 LOG3 POP POP JUMP JUMPDEST PUSH1 0x0 DUP1 REVERT JUMPDEST PUSH1 0x0 PUSH20 0xFFFFFFFFFFFFFFFFFFFFFFFFFFFFFFFFFFFFFFFF DUP3 AND SWAP1 POP SWAP2 SWAP1 POP JUMP JUMPDEST PUSH1 0x0 PUSH3 0x1C8 DUP3 PUSH3 0x19B JUMP JUMPDEST SWAP1 POP SWAP2 SWAP1 POP JUMP JUMPDEST PUSH3 0x1DA DUP2 PUSH3 0x1BB JUMP JUMPDEST DUP2 EQ PUSH3 0x1E6 JUMPI PUSH1 0x0 DUP1 REVERT JUMPDEST POP JUMP JUMPDEST PUSH1 0x0 DUP2 MLOAD SWAP1 POP PUSH3 0x1FA DUP2 PUSH3 0x1CF JUMP JUMPDEST SWAP3 SWAP2 POP POP JUMP JUMPDEST PUSH1 0x0 PUSH1 0x20 DUP3 DUP5 SUB SLT ISZERO PUSH3 0x219 JUMPI PUSH3 0x218 PUSH3 0x196 JUMP JUMPDEST JUMPDEST PUSH1 0x0 PUSH3 0x229 DUP5 DUP3 DUP6 ADD PUSH3 0x1E9 JUMP JUMPDEST SWAP2 POP POP SWAP3 SWAP2 POP POP JUMP JUMPDEST PUSH3 0x23D DUP2 PUSH3 0x1BB JUMP JUMPDEST DUP3 MSTORE POP POP JUMP JUMPDEST PUSH1 0x0 PUSH1 0x20 DUP3 ADD SWAP1 POP PUSH3 0x25A PUSH1 0x0 DUP4 ADD DUP5 PUSH3 0x232 JUMP JUMPDEST SWAP3 SWAP2 POP POP JUMP JUMPDEST PUSH2 0x1F93 DUP1 PUSH3 0x270 PUSH1 0x0 CODECOPY PUSH1 0x0 RETURN INVALID PUSH1 0x80 PUSH1 0x40 MSTORE PUSH1 0x4 CALLDATASIZE LT PUSH2 0xC2 JUMPI PUSH1 0x0 CALLDATALOAD PUSH1 0xE0 SHR DUP1 PUSH4 0x8C639A85 GT PUSH2 0x7F JUMPI DUP1 PUSH4 0xB7DC1284 GT PUSH2 0x59 JUMPI DUP1 PUSH4 0xB7DC1284 EQ PUSH2 0x244 JUMPI DUP1 PUSH4 0xDBEC6DEF EQ PUSH2 0x26F JUMPI DUP1 PUSH4 0xDE570C97 EQ PUSH2 0x28B JUMPI DUP1 PUSH4 0xF2FDE38B EQ PUSH2 0x2CB JUMPI PUSH2 0xC2 JUMP JUMPDEST DUP1 PUSH4 0x8C639A85 EQ PUSH2 0x1C5 JUMPI DUP1 PUSH4 0x8DA5CB5B EQ PUSH2 0x1F0 JUMPI DUP1 PUSH4 0x910CE770 EQ PUSH2 0x21B JUMPI PUSH2 0xC2 JUMP JUMPDEST DUP1 PUSH4 0x12E8E2C3 EQ PUSH2 0xC7 JUMPI DUP1 PUSH4 0x3CCFD60B EQ PUSH2 0xF0 JUMPI DUP1 PUSH4 0x4E2754F2 EQ PUSH2 0x107 JUMPI DUP1 PUSH4 0x4F33191B EQ PUSH2 0x130 JUMPI DUP1 PUSH4 0x513856C8 EQ PUSH2 0x16D JUMPI DUP1 PUSH4 0x715018A6 EQ PUSH2 0x1AE JUMPI JUMPDEST PUSH1 0x0 DUP1 REVERT JUMPDEST CALLVALUE DUP1 ISZERO PUSH2 0xD3 JUMPI PUSH1 0x0 DUP1 REVERT JUMPDEST POP PUSH2 0xEE PUSH1 0x4 DUP1 CALLDATASIZE SUB DUP2 ADD SWAP1 PUSH2 0xE9 SWAP2 SWAP1 PUSH2 0x105C JUMP JUMPDEST PUSH2 0x2F4 JUMP JUMPDEST STOP JUMPDEST CALLVALUE DUP1 ISZERO PUSH2 0xFC JUMPI PUSH1 0x0 DUP1 REVERT JUMPDEST POP PUSH2 0x105 PUSH2 0x381 JUMP JUMPDEST STOP JUMPDEST CALLVALUE DUP1 ISZERO PUSH2 0x113 JUMPI PUSH1 0x0 DUP1 REVERT JUMPDEST POP PUSH2 0x12E PUSH1 0x4 DUP1 CALLDATASIZE SUB DUP2 ADD SWAP1 PUSH2 0x129 SWAP2 SWAP1 PUSH2 0x11CF JUMP JUMPDEST PUSH2 0x3D9 JUMP JUMPDEST STOP JUMPDEST CALLVALUE DUP1 ISZERO PUSH2 0x13C JUMPI PUSH1 0x0 DUP1 REVERT JUMPDEST POP PUSH2 0x157 PUSH1 0x4 DUP1 CALLDATASIZE SUB DUP2 ADD SWAP1 PUSH2 0x152 SWAP2 SWAP1 PUSH2 0x1311 JUMP JUMPDEST PUSH2 0x523 JUMP JUMPDEST PUSH1 0x40 MLOAD PUSH2 0x164 SWAP2 SWAP1 PUSH2 0x13AB JUMP JUMPDEST PUSH1 0x40 MLOAD DUP1 SWAP2 SUB SWAP1 RETURN JUMPDEST CALLVALUE DUP1 ISZERO PUSH2 0x179 JUMPI PUSH1 0x0 DUP1 REVERT JUMPDEST POP PUSH2 0x194 PUSH1 0x4 DUP1 CALLDATASIZE SUB DUP2 ADD SWAP1 PUSH2 0x18F SWAP2 SWAP1 PUSH2 0x105C JUMP JUMPDEST PUSH2 0x6AA JUMP JUMPDEST PUSH1 0x40 MLOAD PUSH2 0x1A5 SWAP6 SWAP5 SWAP4 SWAP3 SWAP2 SWAP1 PUSH2 0x14A1 JUMP JUMPDEST PUSH1 0x40 MLOAD DUP1 SWAP2 SUB SWAP1 RETURN JUMPDEST CALLVALUE DUP1 ISZERO PUSH2 0x1BA JUMPI PUSH1 0x0 DUP1 REVERT JUMPDEST POP PUSH2 0x1C3 PUSH2 0x795 JUMP JUMPDEST STOP JUMPDEST CALLVALUE DUP1 ISZERO PUSH2 0x1D1 JUMPI PUSH1 0x0 DUP1 REVERT JUMPDEST POP PUSH2 0x1DA PUSH2 0x7A9 JUMP JUMPDEST PUSH1 0x40 MLOAD PUSH2 0x1E7 SWAP2 SWAP1 PUSH2 0x13AB JUMP JUMPDEST PUSH1 0x40 MLOAD DUP1 SWAP2 SUB SWAP1 RETURN JUMPDEST CALLVALUE DUP1 ISZERO PUSH2 0x1FC JUMPI PUSH1 0x0 DUP1 REVERT JUMPDEST POP PUSH2 0x205 PUSH2 0x7AF JUMP JUMPDEST PUSH1 0x40 MLOAD PUSH2 0x212 SWAP2 SWAP1 PUSH2 0x151C JUMP JUMPDEST PUSH1 0x40 MLOAD DUP1 SWAP2 SUB SWAP1 RETURN JUMPDEST CALLVALUE DUP1 ISZERO PUSH2 0x227 JUMPI PUSH1 0x0 DUP1 REVERT JUMPDEST POP PUSH2 0x242 PUSH1 0x4 DUP1 CALLDATASIZE SUB DUP2 ADD SWAP1 PUSH2 0x23D SWAP2 SWAP1 PUSH2 0x1563 JUMP JUMPDEST PUSH2 0x7D8 JUMP JUMPDEST STOP JUMPDEST CALLVALUE DUP1 ISZERO PUSH2 0x250 JUMPI PUSH1 0x0 DUP1 REVERT JUMPDEST POP PUSH2 0x259 PUSH2 0x90D JUMP JUMPDEST PUSH1 0x40 MLOAD PUSH2 0x266 SWAP2 SWAP1 PUSH2 0x13AB JUMP JUMPDEST PUSH1 0x40 MLOAD DUP1 SWAP2 SUB SWAP1 RETURN JUMPDEST PUSH2 0x289 PUSH1 0x4 DUP1 CALLDATASIZE SUB DUP2 ADD SWAP1 PUSH2 0x284 SWAP2 SWAP1 PUSH2 0x105C JUMP JUMPDEST PUSH2 0x913 JUMP JUMPDEST STOP JUMPDEST CALLVALUE DUP1 ISZERO PUSH2 0x297 JUMPI PUSH1 0x0 DUP1 REVERT JUMPDEST POP PUSH2 0x2B2 PUSH1 0x4 DUP1 CALLDATASIZE SUB DUP2 ADD SWAP1 PUSH2 0x2AD SWAP2 SWAP1 PUSH2 0x15E6 JUMP JUMPDEST PUSH2 0xC15 JUMP JUMPDEST PUSH1 0x40 MLOAD PUSH2 0x2C2 SWAP5 SWAP4 SWAP3 SWAP2 SWAP1 PUSH2 0x162F JUMP JUMPDEST PUSH1 0x40 MLOAD DUP1 SWAP2 SUB SWAP1 RETURN JUMPDEST CALLVALUE DUP1 ISZERO PUSH2 0x2D7 JUMPI PUSH1 0x0 DUP1 REVERT JUMPDEST POP PUSH2 0x2F2 PUSH1 0x4 DUP1 CALLDATASIZE SUB DUP2 ADD SWAP1 PUSH2 0x2ED SWAP2 SWAP1 PUSH2 0x16A7 JUMP JUMPDEST PUSH2 0xD10 JUMP JUMPDEST STOP JUMPDEST PUSH2 0x2FC PUSH2 0xD96 JUMP JUMPDEST PUSH1 0x1E DUP2 GT ISZERO PUSH2 0x340 JUMPI PUSH1 0x40 MLOAD PUSH32 0x8C379A000000000000000000000000000000000000000000000000000000000 DUP2 MSTORE PUSH1 0x4 ADD PUSH2 0x337 SWAP1 PUSH2 0x1720 JUMP JUMPDEST PUSH1 0x40 MLOAD DUP1 SWAP2 SUB SWAP1 REVERT JUMPDEST DUP1 PUSH1 0x3 DUP2 SWAP1 SSTORE POP PUSH32 0x45610D581145924DD7090A5017E5F2B1D6F42213BB2E95707FF86846BBFCB1CA DUP2 PUSH1 0x40 MLOAD PUSH2 0x376 SWAP2 SWAP1 PUSH2 0x13AB JUMP JUMPDEST PUSH1 0x40 MLOAD DUP1 SWAP2 SUB SWAP1 LOG1 POP JUMP JUMPDEST PUSH2 0x389 PUSH2 0xD96 JUMP JUMPDEST PUSH2 0x391 PUSH2 0x7AF JUMP JUMPDEST PUSH20 0xFFFFFFFFFFFFFFFFFFFFFFFFFFFFFFFFFFFFFFFF AND PUSH2 0x8FC SELFBALANCE SWAP1 DUP2 ISZERO MUL SWAP1 PUSH1 0x40 MLOAD PUSH1 0x0 PUSH1 0x40 MLOAD DUP1 DUP4 SUB DUP2 DUP6 DUP9 DUP9 CALL SWAP4 POP POP POP POP ISZERO DUP1 ISZERO PUSH2 0x3D6 JUMPI RETURNDATASIZE PUSH1 0x0 DUP1 RETURNDATACOPY RETURNDATASIZE PUSH1 0x0 REVERT JUMPDEST POP JUMP JUMPDEST PUSH1 0x40 MLOAD DUP1 PUSH1 0x80 ADD PUSH1 0x40 MSTORE DUP1 DUP4 DUP2 MSTORE PUSH1 0x20 ADD CALLER PUSH20 0xFFFFFFFFFFFFFFFFFFFFFFFFFFFFFFFFFFFFFFFF AND DUP2 MSTORE PUSH1 0x20 ADD DUP3 DUP2 MSTORE PUSH1 0x20 ADD PUSH1 0x1 ISZERO ISZERO DUP2 MSTORE POP PUSH1 0x5 DUP4 PUSH1 0x40 MLOAD PUSH2 0x423 SWAP2 SWAP1 PUSH2 0x177C JUMP JUMPDEST SWAP1 DUP2 MSTORE PUSH1 0x20 ADD PUSH1 0x40 MLOAD DUP1 SWAP2 SUB SWAP1 KECCAK256 PUSH1 0x0 DUP3 ADD MLOAD DUP2 PUSH1 0x0 ADD SWAP1 DUP2 PUSH2 0x446 SWAP2 SWAP1 PUSH2 0x199F JUMP JUMPDEST POP PUSH1 0x20 DUP3 ADD MLOAD DUP2 PUSH1 0x1 ADD PUSH1 0x0 PUSH2 0x100 EXP DUP2 SLOAD DUP2 PUSH20 0xFFFFFFFFFFFFFFFFFFFFFFFFFFFFFFFFFFFFFFFF MUL NOT AND SWAP1 DUP4 PUSH20 0xFFFFFFFFFFFFFFFFFFFFFFFFFFFFFFFFFFFFFFFF AND MUL OR SWAP1 SSTORE POP PUSH1 0x40 DUP3 ADD MLOAD DUP2 PUSH1 0x2 ADD SSTORE PUSH1 0x60 DUP3 ADD MLOAD DUP2 PUSH1 0x3 ADD PUSH1 0x0 PUSH2 0x100 EXP DUP2 SLOAD DUP2 PUSH1 0xFF MUL NOT AND SWAP1 DUP4 ISZERO ISZERO MUL OR SWAP1 SSTORE POP SWAP1 POP POP CALLER PUSH20 0xFFFFFFFFFFFFFFFFFFFFFFFFFFFFFFFFFFFFFFFF AND DUP3 PUSH1 0x40 MLOAD PUSH2 0x4E0 SWAP2 SWAP1 PUSH2 0x177C JUMP JUMPDEST PUSH1 0x40 MLOAD DUP1 SWAP2 SUB SWAP1 KECCAK256 PUSH32 0x495B93F154D2531FECAC92F68A6C980915501066B8469B2E290667EE8FB52065 DUP4 PUSH1 0x40 MLOAD PUSH2 0x517 SWAP2 SWAP1 PUSH2 0x13AB JUMP JUMPDEST PUSH1 0x40 MLOAD DUP1 SWAP2 SUB SWAP1 LOG3 POP POP JUMP JUMPDEST PUSH1 0x0 PUSH1 0x2 PUSH1 0x0 DUP2 SLOAD DUP1 SWAP3 SWAP2 SWAP1 PUSH2 0x538 SWAP1 PUSH2 0x1AA0 JUMP JUMPDEST SWAP2 SWAP1 POP SSTORE POP PUSH1 0x0 PUSH1 0x2 SLOAD SWAP1 POP PUSH1 0x40 MLOAD DUP1 PUSH1 0xC0 ADD PUSH1 0x40 MSTORE DUP1 DUP3 DUP2 MSTORE PUSH1 0x20 ADD CALLER PUSH20 0xFFFFFFFFFFFFFFFFFFFFFFFFFFFFFFFFFFFFFFFF AND DUP2 MSTORE PUSH1 0x20 ADD DUP7 DUP2 MSTORE PUSH1 0x20 ADD DUP6 DUP2 MSTORE PUSH1 0x20 ADD PUSH1 0x1 ISZERO ISZERO DUP2 MSTORE PUSH1 0x20 ADD DUP5 DUP2 MSTORE POP PUSH1 0x4 PUSH1 0x0 DUP4 DUP2 MSTORE PUSH1 0x20 ADD SWAP1 DUP2 MSTORE PUSH1 0x20 ADD PUSH1 0x0 KECCAK256 PUSH1 0x0 DUP3 ADD MLOAD DUP2 PUSH1 0x0 ADD SSTORE PUSH1 0x20 DUP3 ADD MLOAD DUP2 PUSH1 0x1 ADD PUSH1 0x0 PUSH2 0x100 EXP DUP2 SLOAD DUP2 PUSH20 0xFFFFFFFFFFFFFFFFFFFFFFFFFFFFFFFFFFFFFFFF MUL NOT AND SWAP1 DUP4 PUSH20 0xFFFFFFFFFFFFFFFFFFFFFFFFFFFFFFFFFFFFFFFF AND MUL OR SWAP1 SSTORE POP PUSH1 0x40 DUP3 ADD MLOAD DUP2 PUSH1 0x2 ADD SSTORE PUSH1 0x60 DUP3 ADD MLOAD DUP2 PUSH1 0x3 ADD SWAP1 DUP2 PUSH2 0x60D SWAP2 SWAP1 PUSH2 0x199F JUMP JUMPDEST POP PUSH1 0x80 DUP3 ADD MLOAD DUP2 PUSH1 0x4 ADD PUSH1 0x0 PUSH2 0x100 EXP DUP2 SLOAD DUP2 PUSH1 0xFF MUL NOT AND SWAP1 DUP4 ISZERO ISZERO MUL OR SWAP1 SSTORE POP PUSH1 0xA0 DUP3 ADD MLOAD DUP2 PUSH1 0x5 ADD SWAP1 DUP1 MLOAD SWAP1 PUSH1 0x20 ADD SWAP1 PUSH2 0x64A SWAP3 SWAP2 SWAP1 PUSH2 0xF38 JUMP JUMPDEST POP SWAP1 POP POP CALLER PUSH20 0xFFFFFFFFFFFFFFFFFFFFFFFFFFFFFFFFFFFFFFFF AND DUP2 PUSH32 0xCBB96F51F0D44AAD38BD37E9959154A2F979B86301A6EFBCB08D83F10AC9C820 DUP8 DUP8 PUSH1 0x40 MLOAD PUSH2 0x697 SWAP3 SWAP2 SWAP1 PUSH2 0x1AE8 JUMP JUMPDEST PUSH1 0x40 MLOAD DUP1 SWAP2 SUB SWAP1 LOG3 DUP1 SWAP2 POP POP SWAP4 SWAP3 POP POP POP JUMP JUMPDEST PUSH1 0x4 PUSH1 0x20 MSTORE DUP1 PUSH1 0x0 MSTORE PUSH1 0x40 PUSH1 0x0 KECCAK256 PUSH1 0x0 SWAP2 POP SWAP1 POP DUP1 PUSH1 0x0 ADD SLOAD SWAP1 DUP1 PUSH1 0x1 ADD PUSH1 0x0 SWAP1 SLOAD SWAP1 PUSH2 0x100 EXP SWAP1 DIV PUSH20 0xFFFFFFFFFFFFFFFFFFFFFFFFFFFFFFFFFFFFFFFF AND SWAP1 DUP1 PUSH1 0x2 ADD SLOAD SWAP1 DUP1 PUSH1 0x3 ADD DUP1 SLOAD PUSH2 0x6FF SWAP1 PUSH2 0x17C2 JUMP JUMPDEST DUP1 PUSH1 0x1F ADD PUSH1 0x20 DUP1 SWAP2 DIV MUL PUSH1 0x20 ADD PUSH1 0x40 MLOAD SWAP1 DUP2 ADD PUSH1 0x40 MSTORE DUP1 SWAP3 SWAP2 SWAP1 DUP2 DUP2 MSTORE PUSH1 0x20 ADD DUP3 DUP1 SLOAD PUSH2 0x72B SWAP1 PUSH2 0x17C2 JUMP JUMPDEST DUP1 ISZERO PUSH2 0x778 JUMPI DUP1 PUSH1 0x1F LT PUSH2 0x74D JUMPI PUSH2 0x100 DUP1 DUP4 SLOAD DIV MUL DUP4 MSTORE SWAP2 PUSH1 0x20 ADD SWAP2 PUSH2 0x778 JUMP JUMPDEST DUP3 ADD SWAP2 SWAP1 PUSH1 0x0 MSTORE PUSH1 0x20 PUSH1 0x0 KECCAK256 SWAP1 JUMPDEST DUP2 SLOAD DUP2 MSTORE SWAP1 PUSH1 0x1 ADD SWAP1 PUSH1 0x20 ADD DUP1 DUP4 GT PUSH2 0x75B JUMPI DUP3 SWAP1 SUB PUSH1 0x1F AND DUP3 ADD SWAP2 JUMPDEST POP POP POP POP POP SWAP1 DUP1 PUSH1 0x4 ADD PUSH1 0x0 SWAP1 SLOAD SWAP1 PUSH2 0x100 EXP SWAP1 DIV PUSH1 0xFF AND SWAP1 POP DUP6 JUMP JUMPDEST PUSH2 0x79D PUSH2 0xD96 JUMP JUMPDEST PUSH2 0x7A7 PUSH1 0x0 PUSH2 0xE1D JUMP JUMPDEST JUMP JUMPDEST PUSH1 0x3 SLOAD DUP2 JUMP JUMPDEST PUSH1 0x0 DUP1 PUSH1 0x0 SWAP1 SLOAD SWAP1 PUSH2 0x100 EXP SWAP1 DIV PUSH20 0xFFFFFFFFFFFFFFFFFFFFFFFFFFFFFFFFFFFFFFFF AND SWAP1 POP SWAP1 JUMP JUMPDEST CALLER PUSH20 0xFFFFFFFFFFFFFFFFFFFFFFFFFFFFFFFFFFFFFFFF AND PUSH1 0x4 PUSH1 0x0 DUP7 DUP2 MSTORE PUSH1 0x20 ADD SWAP1 DUP2 MSTORE PUSH1 0x20 ADD PUSH1 0x0 KECCAK256 PUSH1 0x1 ADD PUSH1 0x0 SWAP1 SLOAD SWAP1 PUSH2 0x100 EXP SWAP1 DIV PUSH20 0xFFFFFFFFFFFFFFFFFFFFFFFFFFFFFFFFFFFFFFFF AND PUSH20 0xFFFFFFFFFFFFFFFFFFFFFFFFFFFFFFFFFFFFFFFF AND EQ PUSH2 0x87C JUMPI PUSH1 0x40 MLOAD PUSH32 0x8C379A000000000000000000000000000000000000000000000000000000000 DUP2 MSTORE PUSH1 0x4 ADD PUSH2 0x873 SWAP1 PUSH2 0x1B64 JUMP JUMPDEST PUSH1 0x40 MLOAD DUP1 SWAP2 SUB SWAP1 REVERT JUMPDEST PUSH1 0x0 PUSH1 0x4 PUSH1 0x0 DUP7 DUP2 MSTORE PUSH1 0x20 ADD SWAP1 DUP2 MSTORE PUSH1 0x20 ADD PUSH1 0x0 KECCAK256 SWAP1 POP DUP4 DUP2 PUSH1 0x2 ADD DUP2 SWAP1 SSTORE POP DUP3 DUP2 PUSH1 0x3 ADD SWAP1 DUP2 PUSH2 0x8AD SWAP2 SWAP1 PUSH2 0x199F JUMP JUMPDEST POP DUP2 DUP2 PUSH1 0x4 ADD PUSH1 0x0 PUSH2 0x100 EXP DUP2 SLOAD DUP2 PUSH1 0xFF MUL NOT AND SWAP1 DUP4 ISZERO ISZERO MUL OR SWAP1 SSTORE POP DUP5 PUSH32 0x12BD0644601EE23A95F946B22D21AD8A931F5CE6345029851E0D94E7B62715F8 DUP6 DUP6 DUP6 PUSH1 0x40 MLOAD PUSH2 0x8FE SWAP4 SWAP3 SWAP2 SWAP1 PUSH2 0x1B84 JUMP JUMPDEST PUSH1 0x40 MLOAD DUP1 SWAP2 SUB SWAP1 LOG2 POP POP POP POP POP JUMP JUMPDEST PUSH1 0x2 SLOAD DUP2 JUMP JUMPDEST PUSH2 0x91B PUSH2 0xEE1 JUMP JUMPDEST PUSH1 0x0 PUSH1 0x4 PUSH1 0x0 DUP4 DUP2 MSTORE PUSH1 0x20 ADD SWAP1 DUP2 MSTORE PUSH1 0x20 ADD PUSH1 0x0 KECCAK256 SWAP1 POP DUP1 PUSH1 0x4 ADD PUSH1 0x0 SWAP1 SLOAD SWAP1 PUSH2 0x100 EXP SWAP1 DIV PUSH1 0xFF AND PUSH2 0x983 JUMPI PUSH1 0x40 MLOAD PUSH32 0x8C379A000000000000000000000000000000000000000000000000000000000 DUP2 MSTORE PUSH1 0x4 ADD PUSH2 0x97A SWAP1 PUSH2 0x1C0E JUMP JUMPDEST PUSH1 0x40 MLOAD DUP1 SWAP2 SUB SWAP1 REVERT JUMPDEST DUP1 PUSH1 0x2 ADD SLOAD CALLVALUE LT ISZERO PUSH2 0x9CA JUMPI PUSH1 0x40 MLOAD PUSH32 0x8C379A000000000000000000000000000000000000000000000000000000000 DUP2 MSTORE PUSH1 0x4 ADD PUSH2 0x9C1 SWAP1 PUSH2 0x1C7A JUMP JUMPDEST PUSH1 0x40 MLOAD DUP1 SWAP2 SUB SWAP1 REVERT JUMPDEST PUSH1 0x0 CALLVALUE SWAP1 POP PUSH1 0x0 PUSH1 0x64 PUSH1 0x3 SLOAD DUP4 PUSH2 0x9E1 SWAP2 SWAP1 PUSH2 0x1C9A JUMP JUMPDEST PUSH2 0x9EB SWAP2 SWAP1 PUSH2 0x1D0B JUMP JUMPDEST SWAP1 POP PUSH1 0x0 DUP2 DUP4 PUSH2 0x9FB SWAP2 SWAP1 PUSH2 0x1D3C JUMP JUMPDEST SWAP1 POP PUSH1 0x0 PUSH2 0xA07 PUSH2 0x7AF JUMP JUMPDEST PUSH20 0xFFFFFFFFFFFFFFFFFFFFFFFFFFFFFFFFFFFFFFFF AND DUP4 PUSH1 0x40 MLOAD PUSH2 0xA2A SWAP1 PUSH2 0x1DA1 JUMP JUMPDEST PUSH1 0x0 PUSH1 0x40 MLOAD DUP1 DUP4 SUB DUP2 DUP6 DUP8 GAS CALL SWAP3 POP POP POP RETURNDATASIZE DUP1 PUSH1 0x0 DUP2 EQ PUSH2 0xA67 JUMPI PUSH1 0x40 MLOAD SWAP2 POP PUSH1 0x1F NOT PUSH1 0x3F RETURNDATASIZE ADD AND DUP3 ADD PUSH1 0x40 MSTORE RETURNDATASIZE DUP3 MSTORE RETURNDATASIZE PUSH1 0x0 PUSH1 0x20 DUP5 ADD RETURNDATACOPY PUSH2 0xA6C JUMP JUMPDEST PUSH1 0x60 SWAP2 POP JUMPDEST POP POP SWAP1 POP DUP1 PUSH2 0xAB0 JUMPI PUSH1 0x40 MLOAD PUSH32 0x8C379A000000000000000000000000000000000000000000000000000000000 DUP2 MSTORE PUSH1 0x4 ADD PUSH2 0xAA7 SWAP1 PUSH2 0x1E02 JUMP JUMPDEST PUSH1 0x40 MLOAD DUP1 SWAP2 SUB SWAP1 REVERT JUMPDEST PUSH1 0x0 DUP6 PUSH1 0x1 ADD PUSH1 0x0 SWAP1 SLOAD SWAP1 PUSH2 0x100 EXP SWAP1 DIV PUSH20 0xFFFFFFFFFFFFFFFFFFFFFFFFFFFFFFFFFFFFFFFF AND PUSH20 0xFFFFFFFFFFFFFFFFFFFFFFFFFFFFFFFFFFFFFFFF AND DUP4 PUSH1 0x40 MLOAD PUSH2 0xAFA SWAP1 PUSH2 0x1DA1 JUMP JUMPDEST PUSH1 0x0 PUSH1 0x40 MLOAD DUP1 DUP4 SUB DUP2 DUP6 DUP8 GAS CALL SWAP3 POP POP POP RETURNDATASIZE DUP1 PUSH1 0x0 DUP2 EQ PUSH2 0xB37 JUMPI PUSH1 0x40 MLOAD SWAP2 POP PUSH1 0x1F NOT PUSH1 0x3F RETURNDATASIZE ADD AND DUP3 ADD PUSH1 0x40 MSTORE RETURNDATASIZE DUP3 MSTORE RETURNDATASIZE PUSH1 0x0 PUSH1 0x20 DUP5 ADD RETURNDATACOPY PUSH2 0xB3C JUMP JUMPDEST PUSH1 0x60 SWAP2 POP JUMPDEST POP POP SWAP1 POP DUP1 PUSH2 0xB80 JUMPI PUSH1 0x40 MLOAD PUSH32 0x8C379A000000000000000000000000000000000000000000000000000000000 DUP2 MSTORE PUSH1 0x4 ADD PUSH2 0xB77 SWAP1 PUSH2 0x1E6E JUMP JUMPDEST PUSH1 0x40 MLOAD DUP1 SWAP2 SUB SWAP1 REVERT JUMPDEST PUSH1 0x0 CALLER DUP9 TIMESTAMP PUSH1 0x40 MLOAD PUSH1 0x20 ADD PUSH2 0xB97 SWAP4 SWAP3 SWAP2 SWAP1 PUSH2 0x1EF7 JUMP JUMPDEST PUSH1 0x40 MLOAD PUSH1 0x20 DUP2 DUP4 SUB SUB DUP2 MSTORE SWAP1 PUSH1 0x40 MSTORE DUP1 MLOAD SWAP1 PUSH1 0x20 ADD KECCAK256 PUSH1 0x0 SHR SWAP1 POP CALLER PUSH20 0xFFFFFFFFFFFFFFFFFFFFFFFFFFFFFFFFFFFFFFFF AND DUP9 PUSH32 0x42EF525F592790DEFB67B1DBAEA236673F8CB04010BB2186D89E3F9447452716 DUP9 DUP5 PUSH1 0x40 MLOAD PUSH2 0xBFB SWAP3 SWAP2 SWAP1 PUSH2 0x1F34 JUMP JUMPDEST PUSH1 0x40 MLOAD DUP1 SWAP2 SUB SWAP1 LOG3 POP POP POP POP POP POP POP PUSH2 0xC12 PUSH2 0xF27 JUMP JUMPDEST POP JUMP JUMPDEST PUSH1 0x5 DUP2 DUP1 MLOAD PUSH1 0x20 DUP2 ADD DUP3 ADD DUP1 MLOAD DUP5 DUP3 MSTORE PUSH1 0x20 DUP4 ADD PUSH1 0x20 DUP6 ADD KECCAK256 DUP2 DUP4 MSTORE DUP1 SWAP6 POP POP POP POP POP POP PUSH1 0x0 SWAP2 POP SWAP1 POP DUP1 PUSH1 0x0 ADD DUP1 SLOAD PUSH2 0xC4E SWAP1 PUSH2 0x17C2 JUMP JUMPDEST DUP1 PUSH1 0x1F ADD PUSH1 0x20 DUP1 SWAP2 DIV MUL PUSH1 0x20 ADD PUSH1 0x40 MLOAD SWAP1 DUP2 ADD PUSH1 0x40 MSTORE DUP1 SWAP3 SWAP2 SWAP1 DUP2 DUP2 MSTORE PUSH1 0x20 ADD DUP3 DUP1 SLOAD PUSH2 0xC7A SWAP1 PUSH2 0x17C2 JUMP JUMPDEST DUP1 ISZERO PUSH2 0xCC7 JUMPI DUP1 PUSH1 0x1F LT PUSH2 0xC9C JUMPI PUSH2 0x100 DUP1 DUP4 SLOAD DIV MUL DUP4 MSTORE SWAP2 PUSH1 0x20 ADD SWAP2 PUSH2 0xCC7 JUMP JUMPDEST DUP3 ADD SWAP2 SWAP1 PUSH1 0x0 MSTORE PUSH1 0x20 PUSH1 0x0 KECCAK256 SWAP1 JUMPDEST DUP2 SLOAD DUP2 MSTORE SWAP1 PUSH1 0x1 ADD SWAP1 PUSH1 0x20 ADD DUP1 DUP4 GT PUSH2 0xCAA JUMPI DUP3 SWAP1 SUB PUSH1 0x1F AND DUP3 ADD SWAP2 JUMPDEST POP POP POP POP POP SWAP1 DUP1 PUSH1 0x1 ADD PUSH1 0x0 SWAP1 SLOAD SWAP1 PUSH2 0x100 EXP SWAP1 DIV PUSH20 0xFFFFFFFFFFFFFFFFFFFFFFFFFFFFFFFFFFFFFFFF AND SWAP1 DUP1 PUSH1 0x2 ADD SLOAD SWAP1 DUP1 PUSH1 0x3 ADD PUSH1 0x0 SWAP1 SLOAD SWAP1 PUSH2 0x100 EXP SWAP1 DIV PUSH1 0xFF AND SWAP1 POP DUP5 JUMP JUMPDEST PUSH2 0xD18 PUSH2 0xD96 JUMP JUMPDEST PUSH1 0x0 PUSH20 0xFFFFFFFFFFFFFFFFFFFFFFFFFFFFFFFFFFFFFFFF AND DUP2 PUSH20 0xFFFFFFFFFFFFFFFFFFFFFFFFFFFFFFFFFFFFFFFF AND SUB PUSH2 0xD8A JUMPI PUSH1 0x0 PUSH1 0x40 MLOAD PUSH32 0x1E4FBDF700000000000000000000000000000000000000000000000000000000 DUP2 MSTORE PUSH1 0x4 ADD PUSH2 0xD81 SWAP2 SWAP1 PUSH2 0x151C JUMP JUMPDEST PUSH1 0x40 MLOAD DUP1 SWAP2 SUB SWAP1 REVERT JUMPDEST PUSH2 0xD93 DUP2 PUSH2 0xE1D JUMP JUMPDEST POP JUMP JUMPDEST PUSH2 0xD9E PUSH2 0xF30 JUMP JUMPDEST PUSH20 0xFFFFFFFFFFFFFFFFFFFFFFFFFFFFFFFFFFFFFFFF AND PUSH2 0xDBC PUSH2 0x7AF JUMP JUMPDEST PUSH20 0xFFFFFFFFFFFFFFFFFFFFFFFFFFFFFFFFFFFFFFFF AND EQ PUSH2 0xE1B JUMPI PUSH2 0xDDF PUSH2 0xF30 JUMP JUMPDEST PUSH1 0x40 MLOAD PUSH32 0x118CDAA700000000000000000000000000000000000000000000000000000000 DUP2 MSTORE PUSH1 0x4 ADD PUSH2 0xE12 SWAP2 SWAP1 PUSH2 0x151C JUMP JUMPDEST PUSH1 0x40 MLOAD DUP1 SWAP2 SUB SWAP1 REVERT JUMPDEST JUMP JUMPDEST PUSH1 0x0 DUP1 PUSH1 0x0 SWAP1 SLOAD SWAP1 PUSH2 0x100 EXP SWAP1 DIV PUSH20 0xFFFFFFFFFFFFFFFFFFFFFFFFFFFFFFFFFFFFFFFF AND SWAP1 POP DUP2 PUSH1 0x0 DUP1 PUSH2 0x100 EXP DUP2 SLOAD DUP2 PUSH20 0xFFFFFFFFFFFFFFFFFFFFFFFFFFFFFFFFFFFFFFFF MUL NOT AND SWAP1 DUP4 PUSH20 0xFFFFFFFFFFFFFFFFFFFFFFFFFFFFFFFFFFFFFFFF AND MUL OR SWAP1 SSTORE POP DUP2 PUSH20 0xFFFFFFFFFFFFFFFFFFFFFFFFFFFFFFFFFFFFFFFF AND DUP2 PUSH20 0xFFFFFFFFFFFFFFFFFFFFFFFFFFFFFFFFFFFFFFFF AND PUSH32 0x8BE0079C531659141344CD1FD0A4F28419497F9722A3DAAFE3B4186F6B6457E0 PUSH1 0x40 MLOAD PUSH1 0x40 MLOAD DUP1 SWAP2 SUB SWAP1 LOG3 POP POP JUMP JUMPDEST PUSH1 0x2 PUSH1 0x1 SLOAD SUB PUSH2 0xF1D JUMPI PUSH1 0x40 MLOAD PUSH32 0x3EE5AEB500000000000000000000000000000000000000000000000000000000 DUP2 MSTORE PUSH1 0x4 ADD PUSH1 0x40 MLOAD DUP1 SWAP2 SUB SWAP1 REVERT JUMPDEST PUSH1 0x2 PUSH1 0x1 DUP2 SWAP1 SSTORE POP JUMP JUMPDEST PUSH1 0x1 DUP1 DUP2 SWAP1 SSTORE POP JUMP JUMPDEST PUSH1 0x0 CALLER SWAP1 POP SWAP1 JUMP JUMPDEST DUP3 DUP1 SLOAD DUP3 DUP3 SSTORE SWAP1 PUSH1 0x0 MSTORE PUSH1 0x20 PUSH1 0x0 KECCAK256 SWAP1 DUP2 ADD SWAP3 DUP3 ISZERO PUSH2 0xF80 JUMPI SWAP2 PUSH1 0x20 MUL DUP3 ADD JUMPDEST DUP3 DUP2 GT ISZERO PUSH2 0xF7F JUMPI DUP3 MLOAD DUP3 SWAP1 DUP2 PUSH2 0xF6F SWAP2 SWAP1 PUSH2 0x199F JUMP JUMPDEST POP SWAP2 PUSH1 0x20 ADD SWAP2 SWAP1 PUSH1 0x1 ADD SWAP1 PUSH2 0xF58 JUMP JUMPDEST JUMPDEST POP SWAP1 POP PUSH2 0xF8D SWAP2 SWAP1 PUSH2 0xF91 JUMP JUMPDEST POP SWAP1 JUMP JUMPDEST JUMPDEST DUP1 DUP3 GT ISZERO PUSH2 0xFB1 JUMPI PUSH1 0x0 DUP2 DUP2 PUSH2 0xFA8 SWAP2 SWAP1 PUSH2 0xFB5 JUMP JUMPDEST POP PUSH1 0x1 ADD PUSH2 0xF92 JUMP JUMPDEST POP SWAP1 JUMP JUMPDEST POP DUP1 SLOAD PUSH2 0xFC1 SWAP1 PUSH2 0x17C2 JUMP JUMPDEST PUSH1 0x0 DUP3 SSTORE DUP1 PUSH1 0x1F LT PUSH2 0xFD3 JUMPI POP PUSH2 0xFF2 JUMP JUMPDEST PUSH1 0x1F ADD PUSH1 0x20 SWAP1 DIV SWAP1 PUSH1 0x0 MSTORE PUSH1 0x20 PUSH1 0x0 KECCAK256 SWAP1 DUP2 ADD SWAP1 PUSH2 0xFF1 SWAP2 SWAP1 PUSH2 0xFF5 JUMP JUMPDEST JUMPDEST POP JUMP JUMPDEST JUMPDEST DUP1 DUP3 GT ISZERO PUSH2 0x100E JUMPI PUSH1 0x0 DUP2 PUSH1 0x0 SWAP1 SSTORE POP PUSH1 0x1 ADD PUSH2 0xFF6 JUMP JUMPDEST POP SWAP1 JUMP JUMPDEST PUSH1 0x0 PUSH1 0x40 MLOAD SWAP1 POP SWAP1 JUMP JUMPDEST PUSH1 0x0 DUP1 REVERT JUMPDEST PUSH1 0x0 DUP1 REVERT JUMPDEST PUSH1 0x0 DUP2 SWAP1 POP SWAP2 SWAP1 POP JUMP JUMPDEST PUSH2 0x1039 DUP2 PUSH2 0x1026 JUMP JUMPDEST DUP2 EQ PUSH2 0x1044 JUMPI PUSH1 0x0 DUP1 REVERT JUMPDEST POP JUMP JUMPDEST PUSH1 0x0 DUP2 CALLDATALOAD SWAP1 POP PUSH2 0x1056 DUP2 PUSH2 0x1030 JUMP JUMPDEST SWAP3 SWAP2 POP POP JUMP JUMPDEST PUSH1 0x0 PUSH1 0x20 DUP3 DUP5 SUB SLT ISZERO PUSH2 0x1072 JUMPI PUSH2 0x1071 PUSH2 0x101C JUMP JUMPDEST JUMPDEST PUSH1 0x0 PUSH2 0x1080 DUP5 DUP3 DUP6 ADD PUSH2 0x1047 JUMP JUMPDEST SWAP2 POP POP SWAP3 SWAP2 POP POP JUMP JUMPDEST PUSH1 0x0 DUP1 REVERT JUMPDEST PUSH1 0x0 DUP1 REVERT JUMPDEST PUSH1 0x0 PUSH1 0x1F NOT PUSH1 0x1F DUP4 ADD AND SWAP1 POP SWAP2 SWAP1 POP JUMP JUMPDEST PUSH32 0x4E487B7100000000000000000000000000000000000000000000000000000000 PUSH1 0x0 MSTORE PUSH1 0x41 PUSH1 0x4 MSTORE PUSH1 0x24 PUSH1 0x0 REVERT JUMPDEST PUSH2 0x10DC DUP3 PUSH2 0x1093 JUMP JUMPDEST DUP2 ADD DUP2 DUP2 LT PUSH8 0xFFFFFFFFFFFFFFFF DUP3 GT OR ISZERO PUSH2 0x10FB JUMPI PUSH2 0x10FA PUSH2 0x10A4 JUMP JUMPDEST JUMPDEST DUP1 PUSH1 0x40 MSTORE POP POP POP JUMP JUMPDEST PUSH1 0x0 PUSH2 0x110E PUSH2 0x1012 JUMP JUMPDEST SWAP1 POP PUSH2 0x111A DUP3 DUP3 PUSH2 0x10D3 JUMP JUMPDEST SWAP2 SWAP1 POP JUMP JUMPDEST PUSH1 0x0 PUSH8 0xFFFFFFFFFFFFFFFF DUP3 GT ISZERO PUSH2 0x113A JUMPI PUSH2 0x1139 PUSH2 0x10A4 JUMP JUMPDEST JUMPDEST PUSH2 0x1143 DUP3 PUSH2 0x1093 JUMP JUMPDEST SWAP1 POP PUSH1 0x20 DUP2 ADD SWAP1 POP SWAP2 SWAP1 POP JUMP JUMPDEST DUP3 DUP2 DUP4 CALLDATACOPY PUSH1 0x0 DUP4 DUP4 ADD MSTORE POP POP POP JUMP JUMPDEST PUSH1 0x0 PUSH2 0x1172 PUSH2 0x116D DUP5 PUSH2 0x111F JUMP JUMPDEST PUSH2 0x1104 JUMP JUMPDEST SWAP1 POP DUP3 DUP2 MSTORE PUSH1 0x20 DUP2 ADD DUP5 DUP5 DUP5 ADD GT ISZERO PUSH2 0x118E JUMPI PUSH2 0x118D PUSH2 0x108E JUMP JUMPDEST JUMPDEST PUSH2 0x1199 DUP5 DUP3 DUP6 PUSH2 0x1150 JUMP JUMPDEST POP SWAP4 SWAP3 POP POP POP JUMP JUMPDEST PUSH1 0x0 DUP3 PUSH1 0x1F DUP4 ADD SLT PUSH2 0x11B6 JUMPI PUSH2 0x11B5 PUSH2 0x1089 JUMP JUMPDEST JUMPDEST DUP2 CALLDATALOAD PUSH2 0x11C6 DUP5 DUP3 PUSH1 0x20 DUP7 ADD PUSH2 0x115F JUMP JUMPDEST SWAP2 POP POP SWAP3 SWAP2 POP POP JUMP JUMPDEST PUSH1 0x0 DUP1 PUSH1 0x40 DUP4 DUP6 SUB SLT ISZERO PUSH2 0x11E6 JUMPI PUSH2 0x11E5 PUSH2 0x101C JUMP JUMPDEST JUMPDEST PUSH1 0x0 DUP4 ADD CALLDATALOAD PUSH8 0xFFFFFFFFFFFFFFFF DUP2 GT ISZERO PUSH2 0x1204 JUMPI PUSH2 0x1203 PUSH2 0x1021 JUMP JUMPDEST JUMPDEST PUSH2 0x1210 DUP6 DUP3 DUP7 ADD PUSH2 0x11A1 JUMP JUMPDEST SWAP3 POP POP PUSH1 0x20 PUSH2 0x1221 DUP6 DUP3 DUP7 ADD PUSH2 0x1047 JUMP JUMPDEST SWAP2 POP POP SWAP3 POP SWAP3 SWAP1 POP JUMP JUMPDEST PUSH1 0x0 PUSH8 0xFFFFFFFFFFFFFFFF DUP3 GT ISZERO PUSH2 0x1246 JUMPI PUSH2 0x1245 PUSH2 0x10A4 JUMP JUMPDEST JUMPDEST PUSH1 0x20 DUP3 MUL SWAP1 POP PUSH1 0x20 DUP2 ADD SWAP1 POP SWAP2 SWAP1 POP JUMP JUMPDEST PUSH1 0x0 DUP1 REVERT JUMPDEST PUSH1 0x0 PUSH2 0x126F PUSH2 0x126A DUP5 PUSH2 0x122B JUMP JUMPDEST PUSH2 0x1104 JUMP JUMPDEST SWAP1 POP DUP1 DUP4 DUP3 MSTORE PUSH1 0x20 DUP3 ADD SWAP1 POP PUSH1 0x20 DUP5 MUL DUP4 ADD DUP6 DUP2 GT ISZERO PUSH2 0x1292 JUMPI PUSH2 0x1291 PUSH2 0x1257 JUMP JUMPDEST JUMPDEST DUP4 JUMPDEST DUP2 DUP2 LT ISZERO PUSH2 0x12D9 JUMPI DUP1 CALLDATALOAD PUSH8 0xFFFFFFFFFFFFFFFF DUP2 GT ISZERO PUSH2 0x12B7 JUMPI PUSH2 0x12B6 PUSH2 0x1089 JUMP JUMPDEST JUMPDEST DUP1 DUP7 ADD PUSH2 0x12C4 DUP10 DUP3 PUSH2 0x11A1 JUMP JUMPDEST DUP6 MSTORE PUSH1 0x20 DUP6 ADD SWAP5 POP POP POP PUSH1 0x20 DUP2 ADD SWAP1 POP PUSH2 0x1294 JUMP JUMPDEST POP POP POP SWAP4 SWAP3 POP POP POP JUMP JUMPDEST PUSH1 0x0 DUP3 PUSH1 0x1F DUP4 ADD SLT PUSH2 0x12F8 JUMPI PUSH2 0x12F7 PUSH2 0x1089 JUMP JUMPDEST JUMPDEST DUP2 CALLDATALOAD PUSH2 0x1308 DUP5 DUP3 PUSH1 0x20 DUP7 ADD PUSH2 0x125C JUMP JUMPDEST SWAP2 POP POP SWAP3 SWAP2 POP POP JUMP JUMPDEST PUSH1 0x0 DUP1 PUSH1 0x0 PUSH1 0x60 DUP5 DUP7 SUB SLT ISZERO PUSH2 0x132A JUMPI PUSH2 0x1329 PUSH2 0x101C JUMP JUMPDEST JUMPDEST PUSH1 0x0 PUSH2 0x1338 DUP7 DUP3 DUP8 ADD PUSH2 0x1047 JUMP JUMPDEST SWAP4 POP POP PUSH1 0x20 DUP5 ADD CALLDATALOAD PUSH8 0xFFFFFFFFFFFFFFFF DUP2 GT ISZERO PUSH2 0x1359 JUMPI PUSH2 0x1358 PUSH2 0x1021 JUMP JUMPDEST JUMPDEST PUSH2 0x1365 DUP7 DUP3 DUP8 ADD PUSH2 0x11A1 JUMP JUMPDEST SWAP3 POP POP PUSH1 0x40 DUP5 ADD CALLDATALOAD PUSH8 0xFFFFFFFFFFFFFFFF DUP2 GT ISZERO PUSH2 0x1386 JUMPI PUSH2 0x1385 PUSH2 0x1021 JUMP JUMPDEST JUMPDEST PUSH2 0x1392 DUP7 DUP3 DUP8 ADD PUSH2 0x12E3 JUMP JUMPDEST SWAP2 POP POP SWAP3 POP SWAP3 POP SWAP3 JUMP JUMPDEST PUSH2 0x13A5 DUP2 PUSH2 0x1026 JUMP JUMPDEST DUP3 MSTORE POP POP JUMP JUMPDEST PUSH1 0x0 PUSH1 0x20 DUP3 ADD SWAP1 POP PUSH2 0x13C0 PUSH1 0x0 DUP4 ADD DUP5 PUSH2 0x139C JUMP JUMPDEST SWAP3 SWAP2 POP POP JUMP JUMPDEST PUSH1 0x0 PUSH20 0xFFFFFFFFFFFFFFFFFFFFFFFFFFFFFFFFFFFFFFFF DUP3 AND SWAP1 POP SWAP2 SWAP1 POP JUMP JUMPDEST PUSH1 0x0 PUSH2 0x13F1 DUP3 PUSH2 0x13C6 JUMP JUMPDEST SWAP1 POP SWAP2 SWAP1 POP JUMP JUMPDEST PUSH2 0x1401 DUP2 PUSH2 0x13E6 JUMP JUMPDEST DUP3 MSTORE POP POP JUMP JUMPDEST PUSH1 0x0 DUP2 MLOAD SWAP1 POP SWAP2 SWAP1 POP JUMP JUMPDEST PUSH1 0x0 DUP3 DUP3 MSTORE PUSH1 0x20 DUP3 ADD SWAP1 POP SWAP3 SWAP2 POP POP JUMP JUMPDEST PUSH1 0x0 JUMPDEST DUP4 DUP2 LT ISZERO PUSH2 0x1441 JUMPI DUP1 DUP3 ADD MLOAD DUP2 DUP5 ADD MSTORE PUSH1 0x20 DUP2 ADD SWAP1 POP PUSH2 0x1426 JUMP JUMPDEST PUSH1 0x0 DUP5 DUP5 ADD MSTORE POP POP POP POP JUMP JUMPDEST PUSH1 0x0 PUSH2 0x1458 DUP3 PUSH2 0x1407 JUMP JUMPDEST PUSH2 0x1462 DUP2 DUP6 PUSH2 0x1412 JUMP JUMPDEST SWAP4 POP PUSH2 0x1472 DUP2 DUP6 PUSH1 0x20 DUP7 ADD PUSH2 0x1423 JUMP JUMPDEST PUSH2 0x147B DUP2 PUSH2 0x1093 JUMP JUMPDEST DUP5 ADD SWAP2 POP POP SWAP3 SWAP2 POP POP JUMP JUMPDEST PUSH1 0x0 DUP2 ISZERO ISZERO SWAP1 POP SWAP2 SWAP1 POP JUMP JUMPDEST PUSH2 0x149B DUP2 PUSH2 0x1486 JUMP JUMPDEST DUP3 MSTORE POP POP JUMP JUMPDEST PUSH1 0x0 PUSH1 0xA0 DUP3 ADD SWAP1 POP PUSH2 0x14B6 PUSH1 0x0 DUP4 ADD DUP9 PUSH2 0x139C JUMP JUMPDEST PUSH2 0x14C3 PUSH1 0x20 DUP4 ADD DUP8 PUSH2 0x13F8 JUMP JUMPDEST PUSH2 0x14D0 PUSH1 0x40 DUP4 ADD DUP7 PUSH2 0x139C JUMP JUMPDEST DUP2 DUP2 SUB PUSH1 0x60 DUP4 ADD MSTORE PUSH2 0x14E2 DUP2 DUP6 PUSH2 0x144D JUMP JUMPDEST SWAP1 POP PUSH2 0x14F1 PUSH1 0x80 DUP4 ADD DUP5 PUSH2 0x1492 JUMP JUMPDEST SWAP7 SWAP6 POP POP POP POP POP POP JUMP JUMPDEST PUSH1 0x0 PUSH2 0x1506 DUP3 PUSH2 0x13C6 JUMP JUMPDEST SWAP1 POP SWAP2 SWAP1 POP JUMP JUMPDEST PUSH2 0x1516 DUP2 PUSH2 0x14FB JUMP JUMPDEST DUP3 MSTORE POP POP JUMP JUMPDEST PUSH1 0x0 PUSH1 0x20 DUP3 ADD SWAP1 POP PUSH2 0x1531 PUSH1 0x0 DUP4 ADD DUP5 PUSH2 0x150D JUMP JUMPDEST SWAP3 SWAP2 POP POP JUMP JUMPDEST PUSH2 0x1540 DUP2 PUSH2 0x1486 JUMP JUMPDEST DUP2 EQ PUSH2 0x154B JUMPI PUSH1 0x0 DUP1 REVERT JUMPDEST POP JUMP JUMPDEST PUSH1 0x0 DUP2 CALLDATALOAD SWAP1 POP PUSH2 0x155D DUP2 PUSH2 0x1537 JUMP JUMPDEST SWAP3 SWAP2 POP POP JUMP JUMPDEST PUSH1 0x0 DUP1 PUSH1 0x0 DUP1 PUSH1 0x80 DUP6 DUP8 SUB SLT ISZERO PUSH2 0x157D JUMPI PUSH2 0x157C PUSH2 0x101C JUMP JUMPDEST JUMPDEST PUSH1 0x0 PUSH2 0x158B DUP8 DUP3 DUP9 ADD PUSH2 0x1047 JUMP JUMPDEST SWAP5 POP POP PUSH1 0x20 PUSH2 0x159C DUP8 DUP3 DUP9 ADD PUSH2 0x1047 JUMP JUMPDEST SWAP4 POP POP PUSH1 0x40 DUP6 ADD CALLDATALOAD PUSH8 0xFFFFFFFFFFFFFFFF DUP2 GT ISZERO PUSH2 0x15BD JUMPI PUSH2 0x15BC PUSH2 0x1021 JUMP JUMPDEST JUMPDEST PUSH2 0x15C9 DUP8 DUP3 DUP9 ADD PUSH2 0x11A1 JUMP JUMPDEST SWAP3 POP POP PUSH1 0x60 PUSH2 0x15DA DUP8 DUP3 DUP9 ADD PUSH2 0x154E JUMP JUMPDEST SWAP2 POP POP SWAP3 SWAP6 SWAP2 SWAP5 POP SWAP3 POP JUMP JUMPDEST PUSH1 0x0 PUSH1 0x20 DUP3 DUP5 SUB SLT ISZERO PUSH2 0x15FC JUMPI PUSH2 0x15FB PUSH2 0x101C JUMP JUMPDEST JUMPDEST PUSH1 0x0 DUP3 ADD CALLDATALOAD PUSH8 0xFFFFFFFFFFFFFFFF DUP2 GT ISZERO PUSH2 0x161A JUMPI PUSH2 0x1619 PUSH2 0x1021 JUMP JUMPDEST JUMPDEST PUSH2 0x1626 DUP5 DUP3 DUP6 ADD PUSH2 0x11A1 JUMP JUMPDEST SWAP2 POP POP SWAP3 SWAP2 POP POP JUMP JUMPDEST PUSH1 0x0 PUSH1 0x80 DUP3 ADD SWAP1 POP DUP2 DUP2 SUB PUSH1 0x0 DUP4 ADD MSTORE PUSH2 0x1649 DUP2 DUP8 PUSH2 0x144D JUMP JUMPDEST SWAP1 POP PUSH2 0x1658 PUSH1 0x20 DUP4 ADD DUP7 PUSH2 0x13F8 JUMP JUMPDEST PUSH2 0x1665 PUSH1 0x40 DUP4 ADD DUP6 PUSH2 0x139C JUMP JUMPDEST PUSH2 0x1672 PUSH1 0x60 DUP4 ADD DUP5 PUSH2 0x1492 JUMP JUMPDEST SWAP6 SWAP5 POP POP POP POP POP JUMP JUMPDEST PUSH2 0x1684 DUP2 PUSH2 0x14FB JUMP JUMPDEST DUP2 EQ PUSH2 0x168F JUMPI PUSH1 0x0 DUP1 REVERT JUMPDEST POP JUMP JUMPDEST PUSH1 0x0 DUP2 CALLDATALOAD SWAP1 POP PUSH2 0x16A1 DUP2 PUSH2 0x167B JUMP JUMPDEST SWAP3 SWAP2 POP POP JUMP JUMPDEST PUSH1 0x0 PUSH1 0x20 DUP3 DUP5 SUB SLT ISZERO PUSH2 0x16BD JUMPI PUSH2 0x16BC PUSH2 0x101C JUMP JUMPDEST JUMPDEST PUSH1 0x0 PUSH2 0x16CB DUP5 DUP3 DUP6 ADD PUSH2 0x1692 JUMP JUMPDEST SWAP2 POP POP SWAP3 SWAP2 POP POP JUMP JUMPDEST PUSH32 0x46656520746F6F20686967680000000000000000000000000000000000000000 PUSH1 0x0 DUP3 ADD MSTORE POP JUMP JUMPDEST PUSH1 0x0 PUSH2 0x170A PUSH1 0xC DUP4 PUSH2 0x1412 JUMP JUMPDEST SWAP2 POP PUSH2 0x1715 DUP3 PUSH2 0x16D4 JUMP JUMPDEST PUSH1 0x20 DUP3 ADD SWAP1 POP SWAP2 SWAP1 POP JUMP JUMPDEST PUSH1 0x0 PUSH1 0x20 DUP3 ADD SWAP1 POP DUP2 DUP2 SUB PUSH1 0x0 DUP4 ADD MSTORE PUSH2 0x1739 DUP2 PUSH2 0x16FD JUMP JUMPDEST SWAP1 POP SWAP2 SWAP1 POP JUMP JUMPDEST PUSH1 0x0 DUP2 SWAP1 POP SWAP3 SWAP2 POP POP JUMP JUMPDEST PUSH1 0x0 PUSH2 0x1756 DUP3 PUSH2 0x1407 JUMP JUMPDEST PUSH2 0x1760 DUP2 DUP6 PUSH2 0x1740 JUMP JUMPDEST SWAP4 POP PUSH2 0x1770 DUP2 DUP6 PUSH1 0x20 DUP7 ADD PUSH2 0x1423 JUMP JUMPDEST DUP1 DUP5 ADD SWAP2 POP POP SWAP3 SWAP2 POP POP JUMP JUMPDEST PUSH1 0x0 PUSH2 0x1788 DUP3 DUP5 PUSH2 0x174B JUMP JUMPDEST SWAP2 POP DUP2 SWAP1 POP SWAP3 SWAP2 POP POP JUMP JUMPDEST PUSH32 0x4E487B7100000000000000000000000000000000000000000000000000000000 PUSH1 0x0 MSTORE PUSH1 0x22 PUSH1 0x4 MSTORE PUSH1 0x24 PUSH1 0x0 REVERT JUMPDEST PUSH1 0x0 PUSH1 0x2 DUP3 DIV SWAP1 POP PUSH1 0x1 DUP3 AND DUP1 PUSH2 0x17DA JUMPI PUSH1 0x7F DUP3 AND SWAP2 POP JUMPDEST PUSH1 0x20 DUP3 LT DUP2 SUB PUSH2 0x17ED JUMPI PUSH2 0x17EC PUSH2 0x1793 JUMP JUMPDEST JUMPDEST POP SWAP2 SWAP1 POP JUMP JUMPDEST PUSH1 0x0 DUP2 SWAP1 POP DUP2 PUSH1 0x0 MSTORE PUSH1 0x20 PUSH1 0x0 KECCAK256 SWAP1 POP SWAP2 SWAP1 POP JUMP JUMPDEST PUSH1 0x0 PUSH1 0x20 PUSH1 0x1F DUP4 ADD DIV SWAP1 POP SWAP2 SWAP1 POP JUMP JUMPDEST PUSH1 0x0 DUP3 DUP3 SHL SWAP1 POP SWAP3 SWAP2 POP POP JUMP JUMPDEST PUSH1 0x0 PUSH1 0x8 DUP4 MUL PUSH2 0x1855 PUSH32 0xFFFFFFFFFFFFFFFFFFFFFFFFFFFFFFFFFFFFFFFFFFFFFFFFFFFFFFFFFFFFFFFF DUP3 PUSH2 0x1818 JUMP JUMPDEST PUSH2 0x185F DUP7 DUP4 PUSH2 0x1818 JUMP JUMPDEST SWAP6 POP DUP1 NOT DUP5 AND SWAP4 POP DUP1 DUP7 AND DUP5 OR SWAP3 POP POP POP SWAP4 SWAP3 POP POP POP JUMP JUMPDEST PUSH1 0x0 DUP2 SWAP1 POP SWAP2 SWAP1 POP JUMP JUMPDEST PUSH1 0x0 PUSH2 0x189C PUSH2 0x1897 PUSH2 0x1892 DUP5 PUSH2 0x1026 JUMP JUMPDEST PUSH2 0x1877 JUMP JUMPDEST PUSH2 0x1026 JUMP JUMPDEST SWAP1 POP SWAP2 SWAP1 POP JUMP JUMPDEST PUSH1 0x0 DUP2 SWAP1 POP SWAP2 SWAP1 POP JUMP JUMPDEST PUSH2 0x18B6 DUP4 PUSH2 0x1881 JUMP JUMPDEST PUSH2 0x18CA PUSH2 0x18C2 DUP3 PUSH2 0x18A3 JUMP JUMPDEST DUP5 DUP5 SLOAD PUSH2 0x1825 JUMP JUMPDEST DUP3 SSTORE POP POP POP POP JUMP JUMPDEST PUSH1 0x0 SWAP1 JUMP JUMPDEST PUSH2 0x18DF PUSH2 0x18D2 JUMP JUMPDEST PUSH2 0x18EA DUP2 DUP5 DUP5 PUSH2 0x18AD JUMP JUMPDEST POP POP POP JUMP JUMPDEST JUMPDEST DUP2 DUP2 LT ISZERO PUSH2 0x190E JUMPI PUSH2 0x1903 PUSH1 0x0 DUP3 PUSH2 0x18D7 JUMP JUMPDEST PUSH1 0x1 DUP2 ADD SWAP1 POP PUSH2 0x18F0 JUMP JUMPDEST POP POP JUMP JUMPDEST PUSH1 0x1F DUP3 GT ISZERO PUSH2 0x1953 JUMPI PUSH2 0x1924 DUP2 PUSH2 0x17F3 JUMP JUMPDEST PUSH2 0x192D DUP5 PUSH2 0x1808 JUMP JUMPDEST DUP2 ADD PUSH1 0x20 DUP6 LT ISZERO PUSH2 0x193C JUMPI DUP2 SWAP1 POP JUMPDEST PUSH2 0x1950 PUSH2 0x1948 DUP6 PUSH2 0x1808 JUMP JUMPDEST DUP4 ADD DUP3 PUSH2 0x18EF JUMP JUMPDEST POP POP JUMPDEST POP POP POP JUMP JUMPDEST PUSH1 0x0 DUP3 DUP3 SHR SWAP1 POP SWAP3 SWAP2 POP POP JUMP JUMPDEST PUSH1 0x0 PUSH2 0x1976 PUSH1 0x0 NOT DUP5 PUSH1 0x8 MUL PUSH2 0x1958 JUMP JUMPDEST NOT DUP1 DUP4 AND SWAP2 POP POP SWAP3 SWAP2 POP POP JUMP JUMPDEST PUSH1 0x0 PUSH2 0x198F DUP4 DUP4 PUSH2 0x1965 JUMP JUMPDEST SWAP2 POP DUP3 PUSH1 0x2 MUL DUP3 OR SWAP1 POP SWAP3 SWAP2 POP POP JUMP JUMPDEST PUSH2 0x19A8 DUP3 PUSH2 0x1407 JUMP JUMPDEST PUSH8 0xFFFFFFFFFFFFFFFF DUP2 GT ISZERO PUSH2 0x19C1 JUMPI PUSH2 0x19C0 PUSH2 0x10A4 JUMP JUMPDEST JUMPDEST PUSH2 0x19CB DUP3 SLOAD PUSH2 0x17C2 JUMP JUMPDEST PUSH2 0x19D6 DUP3 DUP3 DUP6 PUSH2 0x1912 JUMP JUMPDEST PUSH1 0x0 PUSH1 0x20 SWAP1 POP PUSH1 0x1F DUP4 GT PUSH1 0x1 DUP2 EQ PUSH2 0x1A09 JUMPI PUSH1 0x0 DUP5 ISZERO PUSH2 0x19F7 JUMPI DUP3 DUP8 ADD MLOAD SWAP1 POP JUMPDEST PUSH2 0x1A01 DUP6 DUP3 PUSH2 0x1983 JUMP JUMPDEST DUP7 SSTORE POP PUSH2 0x1A69 JUMP JUMPDEST PUSH1 0x1F NOT DUP5 AND PUSH2 0x1A17 DUP7 PUSH2 0x17F3 JUMP JUMPDEST PUSH1 0x0 JUMPDEST DUP3 DUP2 LT ISZERO PUSH2 0x1A3F JUMPI DUP5 DUP10 ADD MLOAD DUP3 SSTORE PUSH1 0x1 DUP3 ADD SWAP2 POP PUSH1 0x20 DUP6 ADD SWAP5 POP PUSH1 0x20 DUP2 ADD SWAP1 POP PUSH2 0x1A1A JUMP JUMPDEST DUP7 DUP4 LT ISZERO PUSH2 0x1A5C JUMPI DUP5 DUP10 ADD MLOAD PUSH2 0x1A58 PUSH1 0x1F DUP10 AND DUP3 PUSH2 0x1965 JUMP JUMPDEST DUP4 SSTORE POP JUMPDEST PUSH1 0x1 PUSH1 0x2 DUP9 MUL ADD DUP9 SSTORE POP POP POP JUMPDEST POP POP POP POP POP POP JUMP JUMPDEST PUSH32 0x4E487B7100000000000000000000000000000000000000000000000000000000 PUSH1 0x0 MSTORE PUSH1 0x11 PUSH1 0x4 MSTORE PUSH1 0x24 PUSH1 0x0 REVERT JUMPDEST PUSH1 0x0 PUSH2 0x1AAB DUP3 PUSH2 0x1026 JUMP JUMPDEST SWAP2 POP PUSH32 0xFFFFFFFFFFFFFFFFFFFFFFFFFFFFFFFFFFFFFFFFFFFFFFFFFFFFFFFFFFFFFFFF DUP3 SUB PUSH2 0x1ADD JUMPI PUSH2 0x1ADC PUSH2 0x1A71 JUMP JUMPDEST JUMPDEST PUSH1 0x1 DUP3 ADD SWAP1 POP SWAP2 SWAP1 POP JUMP JUMPDEST PUSH1 0x0 PUSH1 0x40 DUP3 ADD SWAP1 POP PUSH2 0x1AFD PUSH1 0x0 DUP4 ADD DUP6 PUSH2 0x139C JUMP JUMPDEST DUP2 DUP2 SUB PUSH1 0x20 DUP4 ADD MSTORE PUSH2 0x1B0F DUP2 DUP5 PUSH2 0x144D JUMP JUMPDEST SWAP1 POP SWAP4 SWAP3 POP POP POP JUMP JUMPDEST PUSH32 0x4F6E6C792063726561746F722063616E20757064617465206167656E74000000 PUSH1 0x0 DUP3 ADD MSTORE POP JUMP JUMPDEST PUSH1 0x0 PUSH2 0x1B4E PUSH1 0x1D DUP4 PUSH2 0x1412 JUMP JUMPDEST SWAP2 POP PUSH2 0x1B59 DUP3 PUSH2 0x1B18 JUMP JUMPDEST PUSH1 0x20 DUP3 ADD SWAP1 POP SWAP2 SWAP1 POP JUMP JUMPDEST PUSH1 0x0 PUSH1 0x20 DUP3 ADD SWAP1 POP DUP2 DUP2 SUB PUSH1 0x0 DUP4 ADD MSTORE PUSH2 0x1B7D DUP2 PUSH2 0x1B41 JUMP JUMPDEST SWAP1 POP SWAP2 SWAP1 POP JUMP JUMPDEST PUSH1 0x0 PUSH1 0x60 DUP3 ADD SWAP1 POP PUSH2 0x1B99 PUSH1 0x0 DUP4 ADD DUP7 PUSH2 0x139C JUMP JUMPDEST DUP2 DUP2 SUB PUSH1 0x20 DUP4 ADD MSTORE PUSH2 0x1BAB DUP2 DUP6 PUSH2 0x144D JUMP JUMPDEST SWAP1 POP PUSH2 0x1BBA PUSH1 0x40 DUP4 ADD DUP5 PUSH2 0x1492 JUMP JUMPDEST SWAP5 SWAP4 POP POP POP POP JUMP JUMPDEST PUSH32 0x4167656E74206973206E6F742061637469766500000000000000000000000000 PUSH1 0x0 DUP3 ADD MSTORE POP JUMP JUMPDEST PUSH1 0x0 PUSH2 0x1BF8 PUSH1 0x13 DUP4 PUSH2 0x1412 JUMP JUMPDEST SWAP2 POP PUSH2 0x1C03 DUP3 PUSH2 0x1BC2 JUMP JUMPDEST PUSH1 0x20 DUP3 ADD SWAP1 POP SWAP2 SWAP1 POP JUMP JUMPDEST PUSH1 0x0 PUSH1 0x20 DUP3 ADD SWAP1 POP DUP2 DUP2 SUB PUSH1 0x0 DUP4 ADD MSTORE PUSH2 0x1C27 DUP2 PUSH2 0x1BEB JUMP JUMPDEST SWAP1 POP SWAP2 SWAP1 POP JUMP JUMPDEST PUSH32 0x496E73756666696369656E74207061796D656E74000000000000000000000000 PUSH1 0x0 DUP3 ADD MSTORE POP JUMP JUMPDEST PUSH1 0x0 PUSH2 0x1C64 PUSH1 0x14 DUP4 PUSH2 0x1412 JUMP JUMPDEST SWAP2 POP PUSH2 0x1C6F DUP3 PUSH2 0x1C2E JUMP JUMPDEST PUSH1 0x20 DUP3 ADD SWAP1 POP SWAP2 SWAP1 POP JUMP JUMPDEST PUSH1 0x0 PUSH1 0x20 DUP3 ADD SWAP1 POP DUP2 DUP2 SUB PUSH1 0x0 DUP4 ADD MSTORE PUSH2 0x1C93 DUP2 PUSH2 0x1C57 JUMP JUMPDEST SWAP1 POP SWAP2 SWAP1 POP JUMP JUMPDEST PUSH1 0x0 PUSH2 0x1CA5 DUP3 PUSH2 0x1026 JUMP JUMPDEST SWAP2 POP PUSH2 0x1CB0 DUP4 PUSH2 0x1026 JUMP JUMPDEST SWAP3 POP DUP3 DUP3 MUL PUSH2 0x1CBE DUP2 PUSH2 0x1026 JUMP JUMPDEST SWAP2 POP DUP3 DUP3 DIV DUP5 EQ DUP4 ISZERO OR PUSH2 0x1CD5 JUMPI PUSH2 0x1CD4 PUSH2 0x1A71 JUMP JUMPDEST JUMPDEST POP SWAP3 SWAP2 POP POP JUMP JUMPDEST PUSH32 0x4E487B7100000000000000000000000000000000000000000000000000000000 PUSH1 0x0 MSTORE PUSH1 0x12 PUSH1 0x4 MSTORE PUSH1 0x24 PUSH1 0x0 REVERT JUMPDEST PUSH1 0x0 PUSH2 0x1D16 DUP3 PUSH2 0x1026 JUMP JUMPDEST SWAP2 POP PUSH2 0x1D21 DUP4 PUSH2 0x1026 JUMP JUMPDEST SWAP3 POP DUP3 PUSH2 0x1D31 JUMPI PUSH2 0x1D30 PUSH2 0x1CDC JUMP JUMPDEST JUMPDEST DUP3 DUP3 DIV SWAP1 POP SWAP3 SWAP2 POP POP JUMP JUMPDEST PUSH1 0x0 PUSH2 0x1D47 DUP3 PUSH2 0x1026 JUMP JUMPDEST SWAP2 POP PUSH2 0x1D52 DUP4 PUSH2 0x1026 JUMP JUMPDEST SWAP3 POP DUP3 DUP3 SUB SWAP1 POP DUP2 DUP2 GT ISZERO PUSH2 0x1D6A JUMPI PUSH2 0x1D69 PUSH2 0x1A71 JUMP JUMPDEST JUMPDEST SWAP3 SWAP2 POP POP JUMP JUMPDEST PUSH1 0x0 DUP2 SWAP1 POP SWAP3 SWAP2 POP POP JUMP JUMPDEST POP JUMP JUMPDEST PUSH1 0x0 PUSH2 0x1D8B PUSH1 0x0 DUP4 PUSH2 0x1D70 JUMP JUMPDEST SWAP2 POP PUSH2 0x1D96 DUP3 PUSH2 0x1D7B JUMP JUMPDEST PUSH1 0x0 DUP3 ADD SWAP1 POP SWAP2 SWAP1 POP JUMP JUMPDEST PUSH1 0x0 PUSH2 0x1DAC DUP3 PUSH2 0x1D7E JUMP JUMPDEST SWAP2 POP DUP2 SWAP1 POP SWAP2 SWAP1 POP JUMP JUMPDEST PUSH32 0x506C6174666F726D20666565207472616E73666572206661696C656400000000 PUSH1 0x0 DUP3 ADD MSTORE POP JUMP JUMPDEST PUSH1 0x0 PUSH2 0x1DEC PUSH1 0x1C DUP4 PUSH2 0x1412 JUMP JUMPDEST SWAP2 POP PUSH2 0x1DF7 DUP3 PUSH2 0x1DB6 JUMP JUMPDEST PUSH1 0x20 DUP3 ADD SWAP1 POP SWAP2 SWAP1 POP JUMP JUMPDEST PUSH1 0x0 PUSH1 0x20 DUP3 ADD SWAP1 POP DUP2 DUP2 SUB PUSH1 0x0 DUP4 ADD MSTORE PUSH2 0x1E1B DUP2 PUSH2 0x1DDF JUMP JUMPDEST SWAP1 POP SWAP2 SWAP1 POP JUMP JUMPDEST PUSH32 0x43726561746F72207368617265207472616E73666572206661696C6564000000 PUSH1 0x0 DUP3 ADD MSTORE POP JUMP JUMPDEST PUSH1 0x0 PUSH2 0x1E58 PUSH1 0x1D DUP4 PUSH2 0x1412 JUMP JUMPDEST SWAP2 POP PUSH2 0x1E63 DUP3 PUSH2 0x1E22 JUMP JUMPDEST PUSH1 0x20 DUP3 ADD SWAP1 POP SWAP2 SWAP1 POP JUMP JUMPDEST PUSH1 0x0 PUSH1 0x20 DUP3 ADD SWAP1 POP DUP2 DUP2 SUB PUSH1 0x0 DUP4 ADD MSTORE PUSH2 0x1E87 DUP2 PUSH2 0x1E4B JUMP JUMPDEST SWAP1 POP SWAP2 SWAP1 POP JUMP JUMPDEST PUSH1 0x0 DUP2 PUSH1 0x60 SHL SWAP1 POP SWAP2 SWAP1 POP JUMP JUMPDEST PUSH1 0x0 PUSH2 0x1EA6 DUP3 PUSH2 0x1E8E JUMP JUMPDEST SWAP1 POP SWAP2 SWAP1 POP JUMP JUMPDEST PUSH1 0x0 PUSH2 0x1EB8 DUP3 PUSH2 0x1E9B JUMP JUMPDEST SWAP1 POP SWAP2 SWAP1 POP JUMP JUMPDEST PUSH2 0x1ED0 PUSH2 0x1ECB DUP3 PUSH2 0x14FB JUMP JUMPDEST PUSH2 0x1EAD JUMP JUMPDEST DUP3 MSTORE POP POP JUMP JUMPDEST PUSH1 0x0 DUP2 SWAP1 POP SWAP2 SWAP1 POP JUMP JUMPDEST PUSH2 0x1EF1 PUSH2 0x1EEC DUP3 PUSH2 0x1026 JUMP JUMPDEST PUSH2 0x1ED6 JUMP JUMPDEST DUP3 MSTORE POP POP JUMP JUMPDEST PUSH1 0x0 PUSH2 0x1F03 DUP3 DUP7 PUSH2 0x1EBF JUMP JUMPDEST PUSH1 0x14 DUP3 ADD SWAP2 POP PUSH2 0x1F13 DUP3 DUP6 PUSH2 0x1EE0 JUMP JUMPDEST PUSH1 0x20 DUP3 ADD SWAP2 POP PUSH2 0x1F23 DUP3 DUP5 PUSH2 0x1EE0 JUMP JUMPDEST PUSH1 0x20 DUP3 ADD SWAP2 POP DUP2 SWAP1 POP SWAP5 SWAP4 POP POP POP POP JUMP JUMPDEST PUSH1 0x0 PUSH1 0x40 DUP3 ADD SWAP1 POP PUSH2 0x1F49 PUSH1 0x0 DUP4 ADD DUP6 PUSH2 0x139C JUMP JUMPDEST PUSH2 0x1F56 PUSH1 0x20 DUP4 ADD DUP5 PUSH2 0x139C JUMP JUMPDEST SWAP4 SWAP3 POP POP POP JUMP INVALID LOG2 PUSH5 0x6970667358 0x22 SLT KECCAK256 BLOCKHASH 0xAA 0x4D DUP8 0x25 0xEE 0xD7 SWAP4 0xD9 EXTCODEHASH 0x2F 0xCC MLOAD 0xC7 0xE5 JUMPDEST CALLDATACOPY 0xE0 0xAF CALLCODE MSIZE DUP12 0x1F PUSH9 0xD678683C099C55FB64 PUSH20 0x6F6C634300081400330000000000000000000000 "},"methodIdentifiers":{"agentCount()":"b7dc1284","agents(uint256)":"513856c8","datasets(string)":"de570c97","owner()":"8da5cb5b","payForService(uint256)":"dbec6def","platformFeePercent()":"8c639a85","registerAgent(uint256,string,string[])":"4f33191b","registerDataset(string,uint256)":"4e2754f2","renounceOwnership()":"715018a6","setPlatformFee(uint256)":"12e8e2c3","transferOwnership(address)":"f2fde38b","updateAgent(uint256,uint256,string,bool)":"910ce770","withdraw()":"3ccfd60b"}}}}}