{
  "_format": "hh-sol-artifact-1",
  "contractName": "BaserootMarketplaceV2",
  "sourceName": "contracts/BaserootMarketplaceV2.sol",
  "abi": [
    {
      "inputs": [
        {
          "internalType": "address",
          "name": "initialOwner",
          "type": "address"
        },
        {
          "internalType": "address payable",
          "name": "_platformWallet",
          "type": "address"
        }
      ],
      "stateMutability": "nonpayable",
      "type": "constructor"
    },
    {
      "inputs": [
        {
          "internalType": "address",
          "name": "owner",
          "type": "address"
        }
      ],
      "name": "OwnableInvalidOwner",
      "type": "error"
    },
    {
      "inputs": [
        {
          "internalType": "address",
          "name": "account",
          "type": "address"
        }
      ],
      "name": "OwnableUnauthorizedAccount",
      "type": "error"
    },
    {
      "inputs": [],
      "name": "ReentrancyGuardReentrantCall",
      "type": "error"
    },
    {
      "anonymous": false,
      "inputs": [
        {
          "indexed": false,
          "internalType": "string",
          "name": "agentId",
          "type": "string"
        },
        {
          "indexed": true,
          "internalType": "address",
          "name": "creator",
          "type": "address"
        },
        {
          "indexed": false,
          "internalType": "uint256",
          "name": "price",
          "type": "uint256"
        },
        {
          "indexed": false,
          "internalType": "string",
          "name": "datasetId",
          "type": "string"
        }
      ],
      "name": "AgentRegistered",
      "type": "event"
    },
    {
      "anonymous": false,
      "inputs": [
        {
          "indexed": false,
          "internalType": "string",
          "name": "datasetId",
          "type": "string"
        },
        {
          "indexed": true,
          "internalType": "address",
          "name": "owner",
          "type": "address"
        },
        {
          "indexed": false,
          "internalType": "uint256",
          "name": "pricePerUse",
          "type": "uint256"
        }
      ],
      "name": "DatasetRegistered",
      "type": "event"
    },
    {
      "anonymous": false,
      "inputs": [
        {
          "indexed": true,
          "internalType": "uint256",
          "name": "licenseId",
          "type": "uint256"
        },
        {
          "indexed": false,
          "internalType": "string",
          "name": "agentId",
          "type": "string"
        },
        {
          "indexed": true,
          "internalType": "address",
          "name": "buyer",
          "type": "address"
        },
        {
          "indexed": false,
          "internalType": "uint256",
          "name": "amount",
          "type": "uint256"
        },
        {
          "indexed": false,
          "internalType": "address",
          "name": "creator",
          "type": "address"
        },
        {
          "indexed": false,
          "internalType": "address",
          "name": "daoOwner",
          "type": "address"
        }
      ],
      "name": "LicensePurchased",
      "type": "event"
    },
    {
      "anonymous": false,
      "inputs": [
        {
          "indexed": true,
          "internalType": "address",
          "name": "previousOwner",
          "type": "address"
        },
        {
          "indexed": true,
          "internalType": "address",
          "name": "newOwner",
          "type": "address"
        }
      ],
      "name": "OwnershipTransferred",
      "type": "event"
    },
    {
      "anonymous": false,
      "inputs": [
        {
          "indexed": false,
          "internalType": "address",
          "name": "newWallet",
          "type": "address"
        }
      ],
      "name": "PlatformWalletUpdated",
      "type": "event"
    },
    {
      "inputs": [
        {
          "internalType": "string",
          "name": "",
          "type": "string"
        }
      ],
      "name": "agents",
      "outputs": [
        {
          "internalType": "address",
          "name": "creator",
          "type": "address"
        },
        {
          "internalType": "string",
          "name": "datasetId",
          "type": "string"
        },
        {
          "internalType": "uint256",
          "name": "price",
          "type": "uint256"
        },
        {
          "internalType": "bool",
          "name": "exists",
          "type": "bool"
        }
      ],
      "stateMutability": "view",
      "type": "function"
    },
    {
      "inputs": [
        {
          "internalType": "string",
          "name": "_agentId",
          "type": "string"
        }
      ],
      "name": "buyLicense",
      "outputs": [],
      "stateMutability": "payable",
      "type": "function"
    },
    {
      "inputs": [
        {
          "internalType": "string",
          "name": "",
          "type": "string"
        }
      ],
      "name": "datasets",
      "outputs": [
        {
          "internalType": "address",
          "name": "owner",
          "type": "address"
        },
        {
          "internalType": "uint256",
          "name": "pricePerUse",
          "type": "uint256"
        },
        {
          "internalType": "bool",
          "name": "exists",
          "type": "bool"
        }
      ],
      "stateMutability": "view",
      "type": "function"
    },
    {
      "inputs": [
        {
          "internalType": "string",
          "name": "_agentId",
          "type": "string"
        }
      ],
      "name": "getAgent",
      "outputs": [
        {
          "internalType": "address",
          "name": "creator_",
          "type": "address"
        },
        {
          "internalType": "string",
          "name": "datasetId_",
          "type": "string"
        },
        {
          "internalType": "uint256",
          "name": "price_",
          "type": "uint256"
        },
        {
          "internalType": "bool",
          "name": "exists_",
          "type": "bool"
        }
      ],
      "stateMutability": "view",
      "type": "function"
    },
    {
      "inputs": [
        {
          "internalType": "string",
          "name": "_datasetId",
          "type": "string"
        }
      ],
      "name": "getDataset",
      "outputs": [
        {
          "internalType": "address",
          "name": "owner_",
          "type": "address"
        },
        {
          "internalType": "uint256",
          "name": "pricePerUse_",
          "type": "uint256"
        },
        {
          "internalType": "bool",
          "name": "exists_",
          "type": "bool"
        }
      ],
      "stateMutability": "view",
      "type": "function"
    },
    {
      "inputs": [
        {
          "internalType": "uint256",
          "name": "_licenseId",
          "type": "uint256"
        }
      ],
      "name": "getLicense",
      "outputs": [
        {
          "internalType": "address",
          "name": "buyer_",
          "type": "address"
        },
        {
          "internalType": "string",
          "name": "agentId_",
          "type": "string"
        },
        {
          "internalType": "uint256",
          "name": "purchasedAt_",
          "type": "uint256"
        },
        {
          "internalType": "bool",
          "name": "active_",
          "type": "bool"
        }
      ],
      "stateMutability": "view",
      "type": "function"
    },
    {
      "inputs": [
        {
          "internalType": "address",
          "name": "_buyer",
          "type": "address"
        },
        {
          "internalType": "string",
          "name": "_agentId",
          "type": "string"
        }
      ],
      "name": "hasLicense",
      "outputs": [
        {
          "internalType": "bool",
          "name": "",
          "type": "bool"
        }
      ],
      "stateMutability": "view",
      "type": "function"
    },
    {
      "inputs": [
        {
          "internalType": "uint256",
          "name": "_licenseId",
          "type": "uint256"
        }
      ],
      "name": "isLicenseActive",
      "outputs": [
        {
          "internalType": "bool",
          "name": "",
          "type": "bool"
        }
      ],
      "stateMutability": "view",
      "type": "function"
    },
    {
      "inputs": [
        {
          "internalType": "bytes32",
          "name": "",
          "type": "bytes32"
        }
      ],
      "name": "licenseExists",
      "outputs": [
        {
          "internalType": "bool",
          "name": "",
          "type": "bool"
        }
      ],
      "stateMutability": "view",
      "type": "function"
    },
    {
      "inputs": [
        {
          "internalType": "uint256",
          "name": "",
          "type": "uint256"
        }
      ],
      "name": "licenses",
      "outputs": [
        {
          "internalType": "address",
          "name": "buyer",
          "type": "address"
        },
        {
          "internalType": "string",
          "name": "agentId",
          "type": "string"
        },
        {
          "internalType": "uint256",
          "name": "purchasedAt",
          "type": "uint256"
        },
        {
          "internalType": "bool",
          "name": "active",
          "type": "bool"
        }
      ],
      "stateMutability": "view",
      "type": "function"
    },
    {
      "inputs": [],
      "name": "nextLicenseId",
      "outputs": [
        {
          "internalType": "uint256",
          "name": "",
          "type": "uint256"
        }
      ],
      "stateMutability": "view",
      "type": "function"
    },
    {
      "inputs": [],
      "name": "owner",
      "outputs": [
        {
          "internalType": "address",
          "name": "",
          "type": "address"
        }
      ],
      "stateMutability": "view",
      "type": "function"
    },
    {
      "inputs": [],
      "name": "platformWallet",
      "outputs": [
        {
          "internalType": "address payable",
          "name": "",
          "type": "address"
        }
      ],
      "stateMutability": "view",
      "type": "function"
    },
    {
      "inputs": [
        {
          "internalType": "string",
          "name": "_agentId",
          "type": "string"
        },
        {
          "internalType": "uint256",
          "name": "_price",
          "type": "uint256"
        },
        {
          "internalType": "string",
          "name": "_datasetId",
          "type": "string"
        }
      ],
      "name": "registerAgent",
      "outputs": [],
      "stateMutability": "nonpayable",
      "type": "function"
    },
    {
      "inputs": [
        {
          "internalType": "string",
          "name": "_datasetId",
          "type": "string"
        },
        {
          "internalType": "uint256",
          "name": "_pricePerUse",
          "type": "uint256"
        }
      ],
      "name": "registerDataset",
      "outputs": [],
      "stateMutability": "nonpayable",
      "type": "function"
    },
    {
      "inputs": [],
      "name": "renounceOwnership",
      "outputs": [],
      "stateMutability": "nonpayable",
      "type": "function"
    },
    {
      "inputs": [
        {
          "internalType": "address payable",
          "name": "_wallet",
          "type": "address"
        }
      ],
      "name": "setPlatformWallet",
      "outputs": [],
      "stateMutability": "nonpayable",
      "type": "function"
    },
    {
      "inputs": [
        {
          "internalType": "address",
          "name": "newOwner",
          "type": "address"
        }
      ],
      "name": "transferOwnership",
      "outputs": [],
      "stateMutability": "nonpayable",
      "type": "function"
    }
  ],
  "bytecode": "0x60806040523480156200001157600080fd5b5060405162002faf38038062002faf8339818101604052810190620000379190620002f4565b81600073ffffffffffffffffffffffffffffffffffffffff168173ffffffffffffffffffffffffffffffffffffffff1603620000ad5760006040517f1e4fbdf7000000000000000000000000000000000000000000000000000000008152600401620000a491906200034c565b60405180910390fd5b620000be816200018160201b60201c565b5060018081905550600073ffffffffffffffffffffffffffffffffffffffff168173ffffffffffffffffffffffffffffffffffffffff160362000138576040517f08c379a00000000000000000000000000000000000000000000000000000000081526004016200012f90620003ca565b60405180910390fd5b80600760006101000a81548173ffffffffffffffffffffffffffffffffffffffff021916908373ffffffffffffffffffffffffffffffffffffffff1602179055505050620003ec565b60008060009054906101000a900473ffffffffffffffffffffffffffffffffffffffff169050816000806101000a81548173ffffffffffffffffffffffffffffffffffffffff021916908373ffffffffffffffffffffffffffffffffffffffff1602179055508173ffffffffffffffffffffffffffffffffffffffff168173ffffffffffffffffffffffffffffffffffffffff167f8be0079c531659141344cd1fd0a4f28419497f9722a3daafe3b4186f6b6457e060405160405180910390a35050565b600080fd5b600073ffffffffffffffffffffffffffffffffffffffff82169050919050565b600062000277826200024a565b9050919050565b62000289816200026a565b81146200029557600080fd5b50565b600081519050620002a9816200027e565b92915050565b6000620002bc826200024a565b9050919050565b620002ce81620002af565b8114620002da57600080fd5b50565b600081519050620002ee81620002c3565b92915050565b600080604083850312156200030e576200030d62000245565b5b60006200031e8582860162000298565b92505060206200033185828601620002dd565b9150509250929050565b62000346816200026a565b82525050565b60006020820190506200036360008301846200033b565b92915050565b600082825260208201905092915050565b7f506c6174666f726d2077616c6c65742063616e6e6f74206265207a65726f0000600082015250565b6000620003b2601e8362000369565b9150620003bf826200037a565b602082019050919050565b60006020820190508181036000830152620003e581620003a3565b9050919050565b612bb380620003fc6000396000f3fe6080604052600436106101095760003560e01c80638da5cb5b11610095578063e705c2b811610064578063e705c2b81461038e578063f2fde38b146103cb578063f76ce736146103f4578063f96e099214610433578063fa2af9da1461047057610109565b80638da5cb5b146102a4578063b2dd1212146102cf578063cf6ee0cb1461030f578063de570c971461034f57610109565b80634e2754f2116100dc5780634e2754f2146101be5780635eff5124146101e7578063715018a614610224578063794464e91461023b5780638831e9cf1461027b57610109565b80631e5211d11461010e578063337908451461012a57806346697af51461016a578063492f471c14610193575b600080fd5b610128600480360381019061012391906118a3565b61049b565b005b34801561013657600080fd5b50610151600480360381019061014c9190611926565b61083a565b6040516101619493929190611a4e565b60405180910390f35b34801561017657600080fd5b50610191600480360381019061018c9190611a9a565b61091f565b005b34801561019f57600080fd5b506101a8610bcb565b6040516101b59190611b2f565b60405180910390f35b3480156101ca57600080fd5b506101e560048036038101906101e09190611b4a565b610bd1565b005b3480156101f357600080fd5b5061020e60048036038101906102099190611bd6565b610da7565b60405161021b9190611c36565b60405180910390f35b34801561023057600080fd5b50610239610dfd565b005b34801561024757600080fd5b50610262600480360381019061025d91906118a3565b610e11565b6040516102729493929190611a4e565b60405180910390f35b34801561028757600080fd5b506102a2600480360381019061029d9190611c8f565b610f1a565b005b3480156102b057600080fd5b506102b961100c565b6040516102c69190611cbc565b60405180910390f35b3480156102db57600080fd5b506102f660048036038101906102f19190611926565b611035565b6040516103069493929190611a4e565b60405180910390f35b34801561031b57600080fd5b5061033660048036038101906103319190611e07565b61112f565b6040516103469493929190611a4e565b60405180910390f35b34801561035b57600080fd5b5061037660048036038101906103719190611e07565b61122a565b60405161038593929190611e50565b60405180910390f35b34801561039a57600080fd5b506103b560048036038101906103b09190611926565b611297565b6040516103c29190611c36565b60405180910390f35b3480156103d757600080fd5b506103f260048036038101906103ed9190611e87565b6112c4565b005b34801561040057600080fd5b5061041b600480360381019061041691906118a3565b61134a565b60405161042a93929190611e50565b60405180910390f35b34801561043f57600080fd5b5061045a60048036038101906104559190611eea565b6113bc565b6040516104679190611c36565b60405180910390f35b34801561047c57600080fd5b506104856113dc565b6040516104929190611f26565b60405180910390f35b6104a3611402565b60003383836040516020016104ba93929190611fb9565b6040516020818303038152906040528051906020012090506005600082815260200190815260200160002060009054906101000a900460ff1615610533576040517f08c379a000000000000000000000000000000000000000000000000000000000815260040161052a9061202f565b60405180910390fd5b60006003848460405161054792919061204f565b908152602001604051809103902090508060030160009054906101000a900460ff166105a8576040517f08c379a000000000000000000000000000000000000000000000000000000000815260040161059f906120b4565b60405180910390fd5b80600201543410156105ef576040517f08c379a00000000000000000000000000000000000000000000000000000000081526004016105e690612120565b60405180910390fd5b60008160000160009054906101000a900473ffffffffffffffffffffffffffffffffffffffff169050600060028360010160405161062d9190612238565b908152602001604051809103902060000160009054906101000a900473ffffffffffffffffffffffffffffffffffffffff16905061066c828234611448565b6000600654905060405180608001604052803373ffffffffffffffffffffffffffffffffffffffff16815260200188888080601f016020809104026020016040519081016040528093929190818152602001838380828437600081840152601f19601f820116905080830192505050505050508152602001428152602001600115158152506004600083815260200190815260200160002060008201518160000160006101000a81548173ffffffffffffffffffffffffffffffffffffffff021916908373ffffffffffffffffffffffffffffffffffffffff160217905550602082015181600101908161076091906123e6565b506040820151816002015560608201518160030160006101000a81548160ff02191690831515021790555090505060016005600087815260200190815260200160002060006101000a81548160ff021916908315150217905550600660008154809291906107cd906124e7565b91905055503373ffffffffffffffffffffffffffffffffffffffff16817fbb39b8cc343f8779c9c78574ab79ac59ea2d942d8dd6776ae026770f831f61a6898934888860405161082195949392919061255c565b60405180910390a350505050506108366116ce565b5050565b60046020528060005260406000206000915090508060000160009054906101000a900473ffffffffffffffffffffffffffffffffffffffff16908060010180546108839061216f565b80601f01602080910402602001604051908101604052809291908181526020018280546108af9061216f565b80156108fc5780601f106108d1576101008083540402835291602001916108fc565b820191906000526020600020905b8154815290600101906020018083116108df57829003601f168201915b5050505050908060020154908060030160009054906101000a900460ff16905084565b60008585905011610965576040517f08c379a000000000000000000000000000000000000000000000000000000000815260040161095c906125f6565b60405180910390fd5b6003858560405161097792919061204f565b908152602001604051809103902060030160009054906101000a900460ff16156109d6576040517f08c379a00000000000000000000000000000000000000000000000000000000081526004016109cd90612662565b60405180910390fd5b600282826040516109e892919061204f565b908152602001604051809103902060020160009054906101000a900460ff16610a46576040517f08c379a0000000000000000000000000000000000000000000000000000000008152600401610a3d906126ce565b60405180910390fd5b60405180608001604052803373ffffffffffffffffffffffffffffffffffffffff16815260200183838080601f016020809104026020016040519081016040528093929190818152602001838380828437600081840152601f19601f8201169050808301925050505050505081526020018481526020016001151581525060038686604051610ad692919061204f565b908152602001604051809103902060008201518160000160006101000a81548173ffffffffffffffffffffffffffffffffffffffff021916908373ffffffffffffffffffffffffffffffffffffffff1602179055506020820151816001019081610b4091906123e6565b506040820151816002015560608201518160030160006101000a81548160ff0219169083151502179055509050503373ffffffffffffffffffffffffffffffffffffffff167f9b790d370d8c9bf68b39af740742782615635030a791cea37af1660ee47428ab8686868686604051610bbc9594939291906126ee565b60405180910390a25050505050565b60065481565b60008383905011610c17576040517f08c379a0000000000000000000000000000000000000000000000000000000008152600401610c0e90612783565b60405180910390fd5b60028383604051610c2992919061204f565b908152602001604051809103902060020160009054906101000a900460ff1615610c88576040517f08c379a0000000000000000000000000000000000000000000000000000000008152600401610c7f906127ef565b60405180910390fd5b60405180606001604052803373ffffffffffffffffffffffffffffffffffffffff1681526020018281526020016001151581525060028484604051610cce92919061204f565b908152602001604051809103902060008201518160000160006101000a81548173ffffffffffffffffffffffffffffffffffffffff021916908373ffffffffffffffffffffffffffffffffffffffff1602179055506020820151816001015560408201518160020160006101000a81548160ff0219169083151502179055509050503373ffffffffffffffffffffffffffffffffffffffff167f495b93f154d2531fecac92f68a6c980915501066b8469b2e290667ee8fb52065848484604051610d9a9392919061280f565b60405180910390a2505050565b600060056000858585604051602001610dc293929190611fb9565b60405160208183030381529060405280519060200120815260200190815260200160002060009054906101000a900460ff1690509392505050565b610e056116d7565b610e0f600061175e565b565b60006060600080600060038787604051610e2c92919061204f565b908152602001604051809103902090508060000160009054906101000a900473ffffffffffffffffffffffffffffffffffffffff168160010182600201548360030160009054906101000a900460ff16828054610e889061216f565b80601f0160208091040260200160405190810160405280929190818152602001828054610eb49061216f565b8015610f015780601f10610ed657610100808354040283529160200191610f01565b820191906000526020600020905b815481529060010190602001808311610ee457829003601f168201915b5050505050925094509450945094505092959194509250565b610f226116d7565b600073ffffffffffffffffffffffffffffffffffffffff168173ffffffffffffffffffffffffffffffffffffffff1603610f91576040517f08c379a0000000000000000000000000000000000000000000000000000000008152600401610f889061288d565b60405180910390fd5b80600760006101000a81548173ffffffffffffffffffffffffffffffffffffffff021916908373ffffffffffffffffffffffffffffffffffffffff1602179055507f73238e3ae0a71b401b31ae67204506d074de41bd5c084082fba9b64b1c7fa28f816040516110019190612902565b60405180910390a150565b60008060009054906101000a900473ffffffffffffffffffffffffffffffffffffffff16905090565b6000606060008060006004600087815260200190815260200160002090508060000160009054906101000a900473ffffffffffffffffffffffffffffffffffffffff168160010182600201548360030160009054906101000a900460ff1682805461109f9061216f565b80601f01602080910402602001604051908101604052809291908181526020018280546110cb9061216f565b80156111185780601f106110ed57610100808354040283529160200191611118565b820191906000526020600020905b8154815290600101906020018083116110fb57829003601f168201915b505050505092509450945094509450509193509193565b6003818051602081018201805184825260208301602085012081835280955050505050506000915090508060000160009054906101000a900473ffffffffffffffffffffffffffffffffffffffff169080600101805461118e9061216f565b80601f01602080910402602001604051908101604052809291908181526020018280546111ba9061216f565b80156112075780601f106111dc57610100808354040283529160200191611207565b820191906000526020600020905b8154815290600101906020018083116111ea57829003601f168201915b5050505050908060020154908060030160009054906101000a900460ff16905084565b6002818051602081018201805184825260208301602085012081835280955050505050506000915090508060000160009054906101000a900473ffffffffffffffffffffffffffffffffffffffff16908060010154908060020160009054906101000a900460ff16905083565b60006004600083815260200190815260200160002060030160009054906101000a900460ff169050919050565b6112cc6116d7565b600073ffffffffffffffffffffffffffffffffffffffff168173ffffffffffffffffffffffffffffffffffffffff160361133e5760006040517f1e4fbdf70000000000000000000000000000000000000000000000000000000081526004016113359190611cbc565b60405180910390fd5b6113478161175e565b50565b6000806000806002868660405161136292919061204f565b908152602001604051809103902090508060000160009054906101000a900473ffffffffffffffffffffffffffffffffffffffff1681600101548260020160009054906101000a900460ff16935093509350509250925092565b60056020528060005260406000206000915054906101000a900460ff1681565b600760009054906101000a900473ffffffffffffffffffffffffffffffffffffffff1681565b60026001540361143e576040517f3ee5aeb500000000000000000000000000000000000000000000000000000000815260040160405180910390fd5b6002600181905550565b60006064602883611459919061291d565b611463919061298e565b905060006064603284611476919061291d565b611480919061298e565b9050600081838561149191906129bf565b61149b91906129bf565b905060008673ffffffffffffffffffffffffffffffffffffffff16846040516114c390612a24565b60006040518083038185875af1925050503d8060008114611500576040519150601f19603f3d011682016040523d82523d6000602084013e611505565b606091505b5050905080611549576040517f08c379a000000000000000000000000000000000000000000000000000000000815260040161154090612a85565b60405180910390fd5b60008673ffffffffffffffffffffffffffffffffffffffff168460405161156f90612a24565b60006040518083038185875af1925050503d80600081146115ac576040519150601f19603f3d011682016040523d82523d6000602084013e6115b1565b606091505b50509050806115f5576040517f08c379a00000000000000000000000000000000000000000000000000000000081526004016115ec90612af1565b60405180910390fd5b6000600760009054906101000a900473ffffffffffffffffffffffffffffffffffffffff1673ffffffffffffffffffffffffffffffffffffffff168460405161163d90612a24565b60006040518083038185875af1925050503d806000811461167a576040519150601f19603f3d011682016040523d82523d6000602084013e61167f565b606091505b50509050806116c3576040517f08c379a00000000000000000000000000000000000000000000000000000000081526004016116ba90612b5d565b60405180910390fd5b505050505050505050565b60018081905550565b6116df611822565b73ffffffffffffffffffffffffffffffffffffffff166116fd61100c565b73ffffffffffffffffffffffffffffffffffffffff161461175c57611720611822565b6040517f118cdaa70000000000000000000000000000000000000000000000000000000081526004016117539190611cbc565b60405180910390fd5b565b60008060009054906101000a900473ffffffffffffffffffffffffffffffffffffffff169050816000806101000a81548173ffffffffffffffffffffffffffffffffffffffff021916908373ffffffffffffffffffffffffffffffffffffffff1602179055508173ffffffffffffffffffffffffffffffffffffffff168173ffffffffffffffffffffffffffffffffffffffff167f8be0079c531659141344cd1fd0a4f28419497f9722a3daafe3b4186f6b6457e060405160405180910390a35050565b600033905090565b6000604051905090565b600080fd5b600080fd5b600080fd5b600080fd5b600080fd5b60008083601f8401126118635761186261183e565b5b8235905067ffffffffffffffff8111156118805761187f611843565b5b60208301915083600182028301111561189c5761189b611848565b5b9250929050565b600080602083850312156118ba576118b9611834565b5b600083013567ffffffffffffffff8111156118d8576118d7611839565b5b6118e48582860161184d565b92509250509250929050565b6000819050919050565b611903816118f0565b811461190e57600080fd5b50565b600081359050611920816118fa565b92915050565b60006020828403121561193c5761193b611834565b5b600061194a84828501611911565b91505092915050565b600073ffffffffffffffffffffffffffffffffffffffff82169050919050565b600061197e82611953565b9050919050565b61198e81611973565b82525050565b600081519050919050565b600082825260208201905092915050565b60005b838110156119ce5780820151818401526020810190506119b3565b60008484015250505050565b6000601f19601f8301169050919050565b60006119f682611994565b611a00818561199f565b9350611a108185602086016119b0565b611a19816119da565b840191505092915050565b611a2d816118f0565b82525050565b60008115159050919050565b611a4881611a33565b82525050565b6000608082019050611a636000830187611985565b8181036020830152611a7581866119eb565b9050611a846040830185611a24565b611a916060830184611a3f565b95945050505050565b600080600080600060608688031215611ab657611ab5611834565b5b600086013567ffffffffffffffff811115611ad457611ad3611839565b5b611ae08882890161184d565b95509550506020611af388828901611911565b935050604086013567ffffffffffffffff811115611b1457611b13611839565b5b611b208882890161184d565b92509250509295509295909350565b6000602082019050611b446000830184611a24565b92915050565b600080600060408486031215611b6357611b62611834565b5b600084013567ffffffffffffffff811115611b8157611b80611839565b5b611b8d8682870161184d565b93509350506020611ba086828701611911565b9150509250925092565b611bb381611973565b8114611bbe57600080fd5b50565b600081359050611bd081611baa565b92915050565b600080600060408486031215611bef57611bee611834565b5b6000611bfd86828701611bc1565b935050602084013567ffffffffffffffff811115611c1e57611c1d611839565b5b611c2a8682870161184d565b92509250509250925092565b6000602082019050611c4b6000830184611a3f565b92915050565b6000611c5c82611953565b9050919050565b611c6c81611c51565b8114611c7757600080fd5b50565b600081359050611c8981611c63565b92915050565b600060208284031215611ca557611ca4611834565b5b6000611cb384828501611c7a565b91505092915050565b6000602082019050611cd16000830184611985565b92915050565b600080fd5b7f4e487b7100000000000000000000000000000000000000000000000000000000600052604160045260246000fd5b611d14826119da565b810181811067ffffffffffffffff82111715611d3357611d32611cdc565b5b80604052505050565b6000611d4661182a565b9050611d528282611d0b565b919050565b600067ffffffffffffffff821115611d7257611d71611cdc565b5b611d7b826119da565b9050602081019050919050565b82818337600083830152505050565b6000611daa611da584611d57565b611d3c565b905082815260208101848484011115611dc657611dc5611cd7565b5b611dd1848285611d88565b509392505050565b600082601f830112611dee57611ded61183e565b5b8135611dfe848260208601611d97565b91505092915050565b600060208284031215611e1d57611e1c611834565b5b600082013567ffffffffffffffff811115611e3b57611e3a611839565b5b611e4784828501611dd9565b91505092915050565b6000606082019050611e656000830186611985565b611e726020830185611a24565b611e7f6040830184611a3f565b949350505050565b600060208284031215611e9d57611e9c611834565b5b6000611eab84828501611bc1565b91505092915050565b6000819050919050565b611ec781611eb4565b8114611ed257600080fd5b50565b600081359050611ee481611ebe565b92915050565b600060208284031215611f0057611eff611834565b5b6000611f0e84828501611ed5565b91505092915050565b611f2081611c51565b82525050565b6000602082019050611f3b6000830184611f17565b92915050565b60008160601b9050919050565b6000611f5982611f41565b9050919050565b6000611f6b82611f4e565b9050919050565b611f83611f7e82611973565b611f60565b82525050565b600081905092915050565b6000611fa08385611f89565b9350611fad838584611d88565b82840190509392505050565b6000611fc58286611f72565b601482019150611fd6828486611f94565b9150819050949350505050565b7f4c6963656e736520616c72656164792070757263686173656400000000000000600082015250565b600061201960198361199f565b915061202482611fe3565b602082019050919050565b600060208201905081810360008301526120488161200c565b9050919050565b600061205c828486611f94565b91508190509392505050565b7f4167656e7420646f6573206e6f74206578697374000000000000000000000000600082015250565b600061209e60148361199f565b91506120a982612068565b602082019050919050565b600060208201905081810360008301526120cd81612091565b9050919050565b7f496e73756666696369656e74207061796d656e74000000000000000000000000600082015250565b600061210a60148361199f565b9150612115826120d4565b602082019050919050565b60006020820190508181036000830152612139816120fd565b9050919050565b7f4e487b7100000000000000000000000000000000000000000000000000000000600052602260045260246000fd5b6000600282049050600182168061218757607f821691505b60208210810361219a57612199612140565b5b50919050565b60008190508160005260206000209050919050565b600081546121c28161216f565b6121cc8186611f89565b945060018216600081146121e757600181146121fc5761222f565b60ff198316865281151582028601935061222f565b612205856121a0565b60005b8381101561222757815481890152600182019150602081019050612208565b838801955050505b50505092915050565b600061224482846121b5565b915081905092915050565b60006020601f8301049050919050565b600082821b905092915050565b60006008830261229c7fffffffffffffffffffffffffffffffffffffffffffffffffffffffffffffffff8261225f565b6122a6868361225f565b95508019841693508086168417925050509392505050565b6000819050919050565b60006122e36122de6122d9846118f0565b6122be565b6118f0565b9050919050565b6000819050919050565b6122fd836122c8565b612311612309826122ea565b84845461226c565b825550505050565b600090565b612326612319565b6123318184846122f4565b505050565b5b818110156123555761234a60008261231e565b600181019050612337565b5050565b601f82111561239a5761236b816121a0565b6123748461224f565b81016020851015612383578190505b61239761238f8561224f565b830182612336565b50505b505050565b600082821c905092915050565b60006123bd6000198460080261239f565b1980831691505092915050565b60006123d683836123ac565b9150826002028217905092915050565b6123ef82611994565b67ffffffffffffffff81111561240857612407611cdc565b5b612412825461216f565b61241d828285612359565b600060209050601f831160018114612450576000841561243e578287015190505b61244885826123ca565b8655506124b0565b601f19841661245e866121a0565b60005b8281101561248657848901518255600182019150602085019450602081019050612461565b868310156124a3578489015161249f601f8916826123ac565b8355505b6001600288020188555050505b505050505050565b7f4e487b7100000000000000000000000000000000000000000000000000000000600052601160045260246000fd5b60006124f2826118f0565b91507fffffffffffffffffffffffffffffffffffffffffffffffffffffffffffffffff8203612524576125236124b8565b5b600182019050919050565b600061253b838561199f565b9350612548838584611d88565b612551836119da565b840190509392505050565b6000608082019050818103600083015261257781878961252f565b90506125866020830186611a24565b6125936040830185611985565b6125a06060830184611985565b9695505050505050565b7f4167656e742049442063616e6e6f7420626520656d7074790000000000000000600082015250565b60006125e060188361199f565b91506125eb826125aa565b602082019050919050565b6000602082019050818103600083015261260f816125d3565b9050919050565b7f4167656e7420616c726561647920657869737473000000000000000000000000600082015250565b600061264c60148361199f565b915061265782612616565b602082019050919050565b6000602082019050818103600083015261267b8161263f565b9050919050565b7f4461746173657420646f6573206e6f7420657869737400000000000000000000600082015250565b60006126b860168361199f565b91506126c382612682565b602082019050919050565b600060208201905081810360008301526126e7816126ab565b9050919050565b6000606082019050818103600083015261270981878961252f565b90506127186020830186611a24565b818103604083015261272b81848661252f565b90509695505050505050565b7f446174617365742049442063616e6e6f7420626520656d707479000000000000600082015250565b600061276d601a8361199f565b915061277882612737565b602082019050919050565b6000602082019050818103600083015261279c81612760565b9050919050565b7f4461746173657420616c72656164792065786973747300000000000000000000600082015250565b60006127d960168361199f565b91506127e4826127a3565b602082019050919050565b60006020820190508181036000830152612808816127cc565b9050919050565b6000604082019050818103600083015261282a81858761252f565b90506128396020830184611a24565b949350505050565b7f506c6174666f726d2077616c6c65742063616e6e6f74206265207a65726f0000600082015250565b6000612877601e8361199f565b915061288282612841565b602082019050919050565b600060208201905081810360008301526128a68161286a565b9050919050565b60006128c86128c36128be84611953565b6122be565b611953565b9050919050565b60006128da826128ad565b9050919050565b60006128ec826128cf565b9050919050565b6128fc816128e1565b82525050565b600060208201905061291760008301846128f3565b92915050565b6000612928826118f0565b9150612933836118f0565b9250828202612941816118f0565b91508282048414831517612958576129576124b8565b5b5092915050565b7f4e487b7100000000000000000000000000000000000000000000000000000000600052601260045260246000fd5b6000612999826118f0565b91506129a4836118f0565b9250826129b4576129b361295f565b5b828204905092915050565b60006129ca826118f0565b91506129d5836118f0565b92508282039050818111156129ed576129ec6124b8565b5b92915050565b600081905092915050565b50565b6000612a0e6000836129f3565b9150612a19826129fe565b600082019050919050565b6000612a2f82612a01565b9150819050919050565b7f43726561746f72207472616e73666572206661696c6564000000000000000000600082015250565b6000612a6f60178361199f565b9150612a7a82612a39565b602082019050919050565b60006020820190508181036000830152612a9e81612a62565b9050919050565b7f44414f207472616e73666572206661696c656400000000000000000000000000600082015250565b6000612adb60138361199f565b9150612ae682612aa5565b602082019050919050565b60006020820190508181036000830152612b0a81612ace565b9050919050565b7f506c6174666f726d207472616e73666572206661696c65640000000000000000600082015250565b6000612b4760188361199f565b9150612b5282612b11565b602082019050919050565b60006020820190508181036000830152612b7681612b3a565b905091905056fea26469706673582212204f7b6bd57ee69017ec9da40e7976e7512502cbeb6b9ece681a5f618f66da1c8864736f6c63430008140033",
  "linkReferences": {},
  "deployedLinkReferences": {}
}