{
  "_format": "hh-sol-artifact-1",
  "contractName": "BaserootMarketplace",
  "sourceName": "contracts/BaserootMarketplace.sol",
  "abi": [
    {
      "inputs": [
        {
          "internalType": "address",
          "name": "initialOwner",
          "type": "address"
        }
      ],
      "stateMutability": "nonpayable",
      "type": "constructor"
    },
    {
      "inputs": [
        {
          "internalType": "address",
          "name": "owner",
          "type": "address"
        }
      ],
      "name": "OwnableInvalidOwner",
      "type": "error"
    },
    {
      "inputs": [
        {
          "internalType": "address",
          "name": "account",
          "type": "address"
        }
      ],
      "name": "OwnableUnauthorizedAccount",
      "type": "error"
    },
    {
      "inputs": [],
      "name": "ReentrancyGuardReentrantCall",
      "type": "error"
    },
    {
      "anonymous": false,
      "inputs": [
        {
          "indexed": true,
          "internalType": "string",
          "name": "agentId",
          "type": "string"
        },
        {
          "indexed": true,
          "internalType": "address",
          "name": "creator",
          "type": "address"
        },
        {
          "indexed": false,
          "internalType": "uint256",
          "name": "price",
          "type": "uint256"
        },
        {
          "indexed": false,
          "internalType": "string",
          "name": "metadata",
          "type": "string"
        }
      ],
      "name": "AgentRegistered",
      "type": "event"
    },
    {
      "anonymous": false,
      "inputs": [
        {
          "indexed": true,
          "internalType": "string",
          "name": "agentId",
          "type": "string"
        },
        {
          "indexed": false,
          "internalType": "uint256",
          "name": "price",
          "type": "uint256"
        },
        {
          "indexed": false,
          "internalType": "string",
          "name": "metadata",
          "type": "string"
        },
        {
          "indexed": false,
          "internalType": "bool",
          "name": "isActive",
          "type": "bool"
        }
      ],
      "name": "AgentUpdated",
      "type": "event"
    },
    {
      "anonymous": false,
      "inputs": [
        {
          "indexed": true,
          "internalType": "string",
          "name": "datasetId",
          "type": "string"
        },
        {
          "indexed": true,
          "internalType": "address",
          "name": "provider",
          "type": "address"
        },
        {
          "indexed": false,
          "internalType": "uint256",
          "name": "price",
          "type": "uint256"
        }
      ],
      "name": "DatasetRegistered",
      "type": "event"
    },
    {
      "anonymous": false,
      "inputs": [
        {
          "indexed": true,
          "internalType": "address",
          "name": "previousOwner",
          "type": "address"
        },
        {
          "indexed": true,
          "internalType": "address",
          "name": "newOwner",
          "type": "address"
        }
      ],
      "name": "OwnershipTransferred",
      "type": "event"
    },
    {
      "anonymous": false,
      "inputs": [
        {
          "indexed": false,
          "internalType": "uint256",
          "name": "newFeePercent",
          "type": "uint256"
        }
      ],
      "name": "PlatformFeeUpdated",
      "type": "event"
    },
    {
      "anonymous": false,
      "inputs": [
        {
          "indexed": true,
          "internalType": "string",
          "name": "agentId",
          "type": "string"
        },
        {
          "indexed": true,
          "internalType": "address",
          "name": "user",
          "type": "address"
        },
        {
          "indexed": false,
          "internalType": "uint256",
          "name": "amount",
          "type": "uint256"
        },
        {
          "indexed": false,
          "internalType": "uint256",
          "name": "creditId",
          "type": "uint256"
        }
      ],
      "name": "ServicePaid",
      "type": "event"
    },
    {
      "inputs": [],
      "name": "agentCount",
      "outputs": [
        {
          "internalType": "uint256",
          "name": "",
          "type": "uint256"
        }
      ],
      "stateMutability": "view",
      "type": "function"
    },
    {
      "inputs": [
        {
          "internalType": "string",
          "name": "",
          "type": "string"
        }
      ],
      "name": "agents",
      "outputs": [
        {
          "internalType": "string",
          "name": "id",
          "type": "string"
        },
        {
          "internalType": "address payable",
          "name": "creator",
          "type": "address"
        },
        {
          "internalType": "uint256",
          "name": "price",
          "type": "uint256"
        },
        {
          "internalType": "string",
          "name": "metadata",
          "type": "string"
        },
        {
          "internalType": "bool",
          "name": "isActive",
          "type": "bool"
        }
      ],
      "stateMutability": "view",
      "type": "function"
    },
    {
      "inputs": [
        {
          "internalType": "string",
          "name": "",
          "type": "string"
        }
      ],
      "name": "datasets",
      "outputs": [
        {
          "internalType": "string",
          "name": "id",
          "type": "string"
        },
        {
          "internalType": "address payable",
          "name": "provider",
          "type": "address"
        },
        {
          "internalType": "uint256",
          "name": "pricePerUse",
          "type": "uint256"
        },
        {
          "internalType": "bool",
          "name": "isActive",
          "type": "bool"
        }
      ],
      "stateMutability": "view",
      "type": "function"
    },
    {
      "inputs": [],
      "name": "owner",
      "outputs": [
        {
          "internalType": "address",
          "name": "",
          "type": "address"
        }
      ],
      "stateMutability": "view",
      "type": "function"
    },
    {
      "inputs": [
        {
          "internalType": "string",
          "name": "_agentId",
          "type": "string"
        },
        {
          "internalType": "address payable",
          "name": "_creator",
          "type": "address"
        }
      ],
      "name": "pay",
      "outputs": [],
      "stateMutability": "payable",
      "type": "function"
    },
    {
      "inputs": [
        {
          "internalType": "string",
          "name": "_agentId",
          "type": "string"
        }
      ],
      "name": "payForService",
      "outputs": [],
      "stateMutability": "payable",
      "type": "function"
    },
    {
      "inputs": [],
      "name": "platformFeePercent",
      "outputs": [
        {
          "internalType": "uint256",
          "name": "",
          "type": "uint256"
        }
      ],
      "stateMutability": "view",
      "type": "function"
    },
    {
      "inputs": [
        {
          "internalType": "string",
          "name": "_agentId",
          "type": "string"
        },
        {
          "internalType": "uint256",
          "name": "_price",
          "type": "uint256"
        },
        {
          "internalType": "string",
          "name": "_metadata",
          "type": "string"
        },
        {
          "internalType": "string[]",
          "name": "_datasetIds",
          "type": "string[]"
        }
      ],
      "name": "registerAgent",
      "outputs": [],
      "stateMutability": "nonpayable",
      "type": "function"
    },
    {
      "inputs": [
        {
          "internalType": "string",
          "name": "_datasetId",
          "type": "string"
        },
        {
          "internalType": "uint256",
          "name": "_pricePerUse",
          "type": "uint256"
        }
      ],
      "name": "registerDataset",
      "outputs": [],
      "stateMutability": "nonpayable",
      "type": "function"
    },
    {
      "inputs": [],
      "name": "renounceOwnership",
      "outputs": [],
      "stateMutability": "nonpayable",
      "type": "function"
    },
    {
      "inputs": [
        {
          "internalType": "uint256",
          "name": "_percent",
          "type": "uint256"
        }
      ],
      "name": "setPlatformFee",
      "outputs": [],
      "stateMutability": "nonpayable",
      "type": "function"
    },
    {
      "inputs": [
        {
          "internalType": "address",
          "name": "newOwner",
          "type": "address"
        }
      ],
      "name": "transferOwnership",
      "outputs": [],
      "stateMutability": "nonpayable",
      "type": "function"
    },
    {
      "inputs": [
        {
          "internalType": "string",
          "name": "_agentId",
          "type": "string"
        },
        {
          "internalType": "uint256",
          "name": "_price",
          "type": "uint256"
        },
        {
          "internalType": "string",
          "name": "_metadata",
          "type": "string"
        },
        {
          "internalType": "bool",
          "name": "_isActive",
          "type": "bool"
        }
      ],
      "name": "updateAgent",
      "outputs": [],
      "stateMutability": "nonpayable",
      "type": "function"
    },
    {
      "inputs": [],
      "name": "withdraw",
      "outputs": [],
      "stateMutability": "nonpayable",
      "type": "function"
    }
  ],
  "bytecode": "0x6080604052600a6003553480156200001657600080fd5b506040516200286b3803806200286b83398181016040528101906200003c919062000200565b80600073ffffffffffffffffffffffffffffffffffffffff168173ffffffffffffffffffffffffffffffffffffffff1603620000b25760006040517f1e4fbdf7000000000000000000000000000000000000000000000000000000008152600401620000a9919062000243565b60405180910390fd5b620000c381620000d260201b60201c565b50600180819055505062000260565b60008060009054906101000a900473ffffffffffffffffffffffffffffffffffffffff169050816000806101000a81548173ffffffffffffffffffffffffffffffffffffffff021916908373ffffffffffffffffffffffffffffffffffffffff1602179055508173ffffffffffffffffffffffffffffffffffffffff168173ffffffffffffffffffffffffffffffffffffffff167f8be0079c531659141344cd1fd0a4f28419497f9722a3daafe3b4186f6b6457e060405160405180910390a35050565b600080fd5b600073ffffffffffffffffffffffffffffffffffffffff82169050919050565b6000620001c8826200019b565b9050919050565b620001da81620001bb565b8114620001e657600080fd5b50565b600081519050620001fa81620001cf565b92915050565b60006020828403121562000219576200021862000196565b5b60006200022984828501620001e9565b91505092915050565b6200023d81620001bb565b82525050565b60006020820190506200025a600083018462000232565b92915050565b6125fb80620002706000396000f3fe6080604052600436106100dd5760003560e01c80638da5cb5b1161007f578063b7dc128411610059578063b7dc128414610242578063cf6ee0cb1461026d578063de570c97146102ae578063f2fde38b146102ee576100dd565b80638da5cb5b146101df578063a5a4fe4c1461020a578063a9ce953a14610226576100dd565b80634e2754f2116100bb5780634e2754f21461014b578063715018a614610174578063737d9a111461018b5780638c639a85146101b4576100dd565b806312e8e2c3146100e257806330b0d2c21461010b5780633ccfd60b14610134575b600080fd5b3480156100ee57600080fd5b506101096004803603810190610104919061145d565b610317565b005b34801561011757600080fd5b50610132600480360381019061012d9190611608565b6103a4565b005b34801561014057600080fd5b50610149610504565b005b34801561015757600080fd5b50610172600480360381019061016d91906116a7565b61055c565b005b34801561018057600080fd5b506101896106a6565b005b34801561019757600080fd5b506101b260048036038101906101ad91906117e9565b6106ba565b005b3480156101c057600080fd5b506101c961090f565b6040516101d691906118b3565b60405180910390f35b3480156101eb57600080fd5b506101f4610915565b604051610201919061190f565b60405180910390f35b610224600480360381019061021f9190611968565b61093e565b005b610240600480360381019061023b91906119c4565b610b5d565b005b34801561024e57600080fd5b50610257610cf2565b60405161026491906118b3565b60405180910390f35b34801561027957600080fd5b50610294600480360381019061028f91906119c4565b610cf8565b6040516102a5959493929190611aaa565b60405180910390f35b3480156102ba57600080fd5b506102d560048036038101906102d091906119c4565b610e81565b6040516102e59493929190611b0b565b60405180910390f35b3480156102fa57600080fd5b5061031560048036038101906103109190611b83565b610f7c565b005b61031f611002565b601e811115610363576040517f08c379a000000000000000000000000000000000000000000000000000000000815260040161035a90611bfc565b60405180910390fd5b806003819055507f45610d581145924dd7090a5017e5f2b1d6f42213bb2e95707ff86846bbfcb1ca8160405161039991906118b3565b60405180910390a150565b3373ffffffffffffffffffffffffffffffffffffffff166004856040516103cb9190611c58565b908152602001604051809103902060010160009054906101000a900473ffffffffffffffffffffffffffffffffffffffff1673ffffffffffffffffffffffffffffffffffffffff1614610453576040517f08c379a000000000000000000000000000000000000000000000000000000000815260040161044a90611cbb565b60405180910390fd5b60006004856040516104659190611c58565b908152602001604051809103902090508381600201819055508281600301908161048f9190611ee7565b50818160040160006101000a81548160ff021916908315150217905550846040516104ba9190611c58565b60405180910390207fc9b6fabf949b5af9645b3253b9e795b3b6740b7b56447269584cadf9f4bd63238585856040516104f593929190611fb9565b60405180910390a25050505050565b61050c611002565b610514610915565b73ffffffffffffffffffffffffffffffffffffffff166108fc479081150290604051600060405180830381858888f19350505050158015610559573d6000803e3d6000fd5b50565b60405180608001604052808381526020013373ffffffffffffffffffffffffffffffffffffffff168152602001828152602001600115158152506005836040516105a69190611c58565b908152602001604051809103902060008201518160000190816105c99190611ee7565b5060208201518160010160006101000a81548173ffffffffffffffffffffffffffffffffffffffff021916908373ffffffffffffffffffffffffffffffffffffffff1602179055506040820151816002015560608201518160030160006101000a81548160ff0219169083151502179055509050503373ffffffffffffffffffffffffffffffffffffffff16826040516106639190611c58565b60405180910390207f495b93f154d2531fecac92f68a6c980915501066b8469b2e290667ee8fb520658360405161069a91906118b3565b60405180910390a35050565b6106ae611002565b6106b86000611089565b565b600073ffffffffffffffffffffffffffffffffffffffff166004856040516106e29190611c58565b908152602001604051809103902060010160009054906101000a900473ffffffffffffffffffffffffffffffffffffffff1673ffffffffffffffffffffffffffffffffffffffff161461076a576040517f08c379a000000000000000000000000000000000000000000000000000000000815260040161076190612043565b60405180910390fd5b6002600081548092919061077d90612092565b91905055506040518060c001604052808581526020013373ffffffffffffffffffffffffffffffffffffffff168152602001848152602001838152602001600115158152602001828152506004856040516107d89190611c58565b908152602001604051809103902060008201518160000190816107fb9190611ee7565b5060208201518160010160006101000a81548173ffffffffffffffffffffffffffffffffffffffff021916908373ffffffffffffffffffffffffffffffffffffffff1602179055506040820151816002015560608201518160030190816108629190611ee7565b5060808201518160040160006101000a81548160ff02191690831515021790555060a082015181600501908051906020019061089f929190611339565b509050503373ffffffffffffffffffffffffffffffffffffffff16846040516108c89190611c58565b60405180910390207f9b790d370d8c9bf68b39af740742782615635030a791cea37af1660ee47428ab85856040516109019291906120da565b60405180910390a350505050565b60035481565b60008060009054906101000a900473ffffffffffffffffffffffffffffffffffffffff16905090565b61094661114d565b60003411610989576040517f08c379a00000000000000000000000000000000000000000000000000000000081526004016109809061217c565b60405180910390fd5b600073ffffffffffffffffffffffffffffffffffffffff166004836040516109b19190611c58565b908152602001604051809103902060010160009054906101000a900473ffffffffffffffffffffffffffffffffffffffff1673ffffffffffffffffffffffffffffffffffffffff1614610aae578073ffffffffffffffffffffffffffffffffffffffff16600483604051610a259190611c58565b908152602001604051809103902060010160009054906101000a900473ffffffffffffffffffffffffffffffffffffffff1673ffffffffffffffffffffffffffffffffffffffff1614610aad576040517f08c379a0000000000000000000000000000000000000000000000000000000008152600401610aa49061220e565b60405180910390fd5b5b610ab83482611193565b6000338342604051602001610acf93929190612297565b6040516020818303038152906040528051906020012060001c90503373ffffffffffffffffffffffffffffffffffffffff1683604051610b0f9190611c58565b60405180910390207fc5ec0595f8f5c7d42b6cb931ab91838a58e8fadf7fb0d2eec444b10f170006513484604051610b489291906122d0565b60405180910390a350610b59611328565b5050565b610b6561114d565b6000600482604051610b779190611c58565b908152602001604051809103902090508060040160009054906101000a900460ff16610bd8576040517f08c379a0000000000000000000000000000000000000000000000000000000008152600401610bcf90612345565b60405180910390fd5b8060020154341015610c1f576040517f08c379a0000000000000000000000000000000000000000000000000000000008152600401610c16906123b1565b60405180910390fd5b610c4d348260010160009054906101000a900473ffffffffffffffffffffffffffffffffffffffff16611193565b6000338342604051602001610c6493929190612297565b6040516020818303038152906040528051906020012060001c90503373ffffffffffffffffffffffffffffffffffffffff1683604051610ca49190611c58565b60405180910390207fc5ec0595f8f5c7d42b6cb931ab91838a58e8fadf7fb0d2eec444b10f170006513484604051610cdd9291906122d0565b60405180910390a35050610cef611328565b50565b60025481565b600481805160208101820180518482526020830160208501208183528095505050505050600091509050806000018054610d3190611d0a565b80601f0160208091040260200160405190810160405280929190818152602001828054610d5d90611d0a565b8015610daa5780601f10610d7f57610100808354040283529160200191610daa565b820191906000526020600020905b815481529060010190602001808311610d8d57829003601f168201915b5050505050908060010160009054906101000a900473ffffffffffffffffffffffffffffffffffffffff1690806002015490806003018054610deb90611d0a565b80601f0160208091040260200160405190810160405280929190818152602001828054610e1790611d0a565b8015610e645780601f10610e3957610100808354040283529160200191610e64565b820191906000526020600020905b815481529060010190602001808311610e4757829003601f168201915b5050505050908060040160009054906101000a900460ff16905085565b600581805160208101820180518482526020830160208501208183528095505050505050600091509050806000018054610eba90611d0a565b80601f0160208091040260200160405190810160405280929190818152602001828054610ee690611d0a565b8015610f335780601f10610f0857610100808354040283529160200191610f33565b820191906000526020600020905b815481529060010190602001808311610f1657829003601f168201915b5050505050908060010160009054906101000a900473ffffffffffffffffffffffffffffffffffffffff16908060020154908060030160009054906101000a900460ff16905084565b610f84611002565b600073ffffffffffffffffffffffffffffffffffffffff168173ffffffffffffffffffffffffffffffffffffffff1603610ff65760006040517f1e4fbdf7000000000000000000000000000000000000000000000000000000008152600401610fed919061190f565b60405180910390fd5b610fff81611089565b50565b61100a611331565b73ffffffffffffffffffffffffffffffffffffffff16611028610915565b73ffffffffffffffffffffffffffffffffffffffff16146110875761104b611331565b6040517f118cdaa700000000000000000000000000000000000000000000000000000000815260040161107e919061190f565b60405180910390fd5b565b60008060009054906101000a900473ffffffffffffffffffffffffffffffffffffffff169050816000806101000a81548173ffffffffffffffffffffffffffffffffffffffff021916908373ffffffffffffffffffffffffffffffffffffffff1602179055508173ffffffffffffffffffffffffffffffffffffffff168173ffffffffffffffffffffffffffffffffffffffff167f8be0079c531659141344cd1fd0a4f28419497f9722a3daafe3b4186f6b6457e060405160405180910390a35050565b600260015403611189576040517f3ee5aeb500000000000000000000000000000000000000000000000000000000815260040160405180910390fd5b6002600181905550565b60006064600354846111a591906123d1565b6111af9190612442565b9050600081846111bf9190612473565b905060006111cb610915565b73ffffffffffffffffffffffffffffffffffffffff16836040516111ee906124d8565b60006040518083038185875af1925050503d806000811461122b576040519150601f19603f3d011682016040523d82523d6000602084013e611230565b606091505b5050905080611274576040517f08c379a000000000000000000000000000000000000000000000000000000000815260040161126b90612539565b60405180910390fd5b60008473ffffffffffffffffffffffffffffffffffffffff168360405161129a906124d8565b60006040518083038185875af1925050503d80600081146112d7576040519150601f19603f3d011682016040523d82523d6000602084013e6112dc565b606091505b5050905080611320576040517f08c379a0000000000000000000000000000000000000000000000000000000008152600401611317906125a5565b60405180910390fd5b505050505050565b60018081905550565b600033905090565b828054828255906000526020600020908101928215611381579160200282015b828111156113805782518290816113709190611ee7565b5091602001919060010190611359565b5b50905061138e9190611392565b5090565b5b808211156113b257600081816113a991906113b6565b50600101611393565b5090565b5080546113c290611d0a565b6000825580601f106113d457506113f3565b601f0160209004906000526020600020908101906113f291906113f6565b5b50565b5b8082111561140f5760008160009055506001016113f7565b5090565b6000604051905090565b600080fd5b600080fd5b6000819050919050565b61143a81611427565b811461144557600080fd5b50565b60008135905061145781611431565b92915050565b6000602082840312156114735761147261141d565b5b600061148184828501611448565b91505092915050565b600080fd5b600080fd5b6000601f19601f8301169050919050565b7f4e487b7100000000000000000000000000000000000000000000000000000000600052604160045260246000fd5b6114dd82611494565b810181811067ffffffffffffffff821117156114fc576114fb6114a5565b5b80604052505050565b600061150f611413565b905061151b82826114d4565b919050565b600067ffffffffffffffff82111561153b5761153a6114a5565b5b61154482611494565b9050602081019050919050565b82818337600083830152505050565b600061157361156e84611520565b611505565b90508281526020810184848401111561158f5761158e61148f565b5b61159a848285611551565b509392505050565b600082601f8301126115b7576115b661148a565b5b81356115c7848260208601611560565b91505092915050565b60008115159050919050565b6115e5816115d0565b81146115f057600080fd5b50565b600081359050611602816115dc565b92915050565b600080600080608085870312156116225761162161141d565b5b600085013567ffffffffffffffff8111156116405761163f611422565b5b61164c878288016115a2565b945050602061165d87828801611448565b935050604085013567ffffffffffffffff81111561167e5761167d611422565b5b61168a878288016115a2565b925050606061169b878288016115f3565b91505092959194509250565b600080604083850312156116be576116bd61141d565b5b600083013567ffffffffffffffff8111156116dc576116db611422565b5b6116e8858286016115a2565b92505060206116f985828601611448565b9150509250929050565b600067ffffffffffffffff82111561171e5761171d6114a5565b5b602082029050602081019050919050565b600080fd5b600061174761174284611703565b611505565b9050808382526020820190506020840283018581111561176a5761176961172f565b5b835b818110156117b157803567ffffffffffffffff81111561178f5761178e61148a565b5b80860161179c89826115a2565b8552602085019450505060208101905061176c565b5050509392505050565b600082601f8301126117d0576117cf61148a565b5b81356117e0848260208601611734565b91505092915050565b600080600080608085870312156118035761180261141d565b5b600085013567ffffffffffffffff81111561182157611820611422565b5b61182d878288016115a2565b945050602061183e87828801611448565b935050604085013567ffffffffffffffff81111561185f5761185e611422565b5b61186b878288016115a2565b925050606085013567ffffffffffffffff81111561188c5761188b611422565b5b611898878288016117bb565b91505092959194509250565b6118ad81611427565b82525050565b60006020820190506118c860008301846118a4565b92915050565b600073ffffffffffffffffffffffffffffffffffffffff82169050919050565b60006118f9826118ce565b9050919050565b611909816118ee565b82525050565b60006020820190506119246000830184611900565b92915050565b6000611935826118ce565b9050919050565b6119458161192a565b811461195057600080fd5b50565b6000813590506119628161193c565b92915050565b6000806040838503121561197f5761197e61141d565b5b600083013567ffffffffffffffff81111561199d5761199c611422565b5b6119a9858286016115a2565b92505060206119ba85828601611953565b9150509250929050565b6000602082840312156119da576119d961141d565b5b600082013567ffffffffffffffff8111156119f8576119f7611422565b5b611a04848285016115a2565b91505092915050565b600081519050919050565b600082825260208201905092915050565b60005b83811015611a47578082015181840152602081019050611a2c565b60008484015250505050565b6000611a5e82611a0d565b611a688185611a18565b9350611a78818560208601611a29565b611a8181611494565b840191505092915050565b611a958161192a565b82525050565b611aa4816115d0565b82525050565b600060a0820190508181036000830152611ac48188611a53565b9050611ad36020830187611a8c565b611ae060408301866118a4565b8181036060830152611af28185611a53565b9050611b016080830184611a9b565b9695505050505050565b60006080820190508181036000830152611b258187611a53565b9050611b346020830186611a8c565b611b4160408301856118a4565b611b4e6060830184611a9b565b95945050505050565b611b60816118ee565b8114611b6b57600080fd5b50565b600081359050611b7d81611b57565b92915050565b600060208284031215611b9957611b9861141d565b5b6000611ba784828501611b6e565b91505092915050565b7f46656520746f6f20686967680000000000000000000000000000000000000000600082015250565b6000611be6600c83611a18565b9150611bf182611bb0565b602082019050919050565b60006020820190508181036000830152611c1581611bd9565b9050919050565b600081905092915050565b6000611c3282611a0d565b611c3c8185611c1c565b9350611c4c818560208601611a29565b80840191505092915050565b6000611c648284611c27565b915081905092915050565b7f4f6e6c792063726561746f722063616e20757064617465206167656e74000000600082015250565b6000611ca5601d83611a18565b9150611cb082611c6f565b602082019050919050565b60006020820190508181036000830152611cd481611c98565b9050919050565b7f4e487b7100000000000000000000000000000000000000000000000000000000600052602260045260246000fd5b60006002820490506001821680611d2257607f821691505b602082108103611d3557611d34611cdb565b5b50919050565b60008190508160005260206000209050919050565b60006020601f8301049050919050565b600082821b905092915050565b600060088302611d9d7fffffffffffffffffffffffffffffffffffffffffffffffffffffffffffffffff82611d60565b611da78683611d60565b95508019841693508086168417925050509392505050565b6000819050919050565b6000611de4611ddf611dda84611427565b611dbf565b611427565b9050919050565b6000819050919050565b611dfe83611dc9565b611e12611e0a82611deb565b848454611d6d565b825550505050565b600090565b611e27611e1a565b611e32818484611df5565b505050565b5b81811015611e5657611e4b600082611e1f565b600181019050611e38565b5050565b601f821115611e9b57611e6c81611d3b565b611e7584611d50565b81016020851015611e84578190505b611e98611e9085611d50565b830182611e37565b50505b505050565b600082821c905092915050565b6000611ebe60001984600802611ea0565b1980831691505092915050565b6000611ed78383611ead565b9150826002028217905092915050565b611ef082611a0d565b67ffffffffffffffff811115611f0957611f086114a5565b5b611f138254611d0a565b611f1e828285611e5a565b600060209050601f831160018114611f515760008415611f3f578287015190505b611f498582611ecb565b865550611fb1565b601f198416611f5f86611d3b565b60005b82811015611f8757848901518255600182019150602085019450602081019050611f62565b86831015611fa45784890151611fa0601f891682611ead565b8355505b6001600288020188555050505b505050505050565b6000606082019050611fce60008301866118a4565b8181036020830152611fe08185611a53565b9050611fef6040830184611a9b565b949350505050565b7f4167656e7420494420616c726561647920657869737473000000000000000000600082015250565b600061202d601783611a18565b915061203882611ff7565b602082019050919050565b6000602082019050818103600083015261205c81612020565b9050919050565b7f4e487b7100000000000000000000000000000000000000000000000000000000600052601160045260246000fd5b600061209d82611427565b91507fffffffffffffffffffffffffffffffffffffffffffffffffffffffffffffffff82036120cf576120ce612063565b5b600182019050919050565b60006040820190506120ef60008301856118a4565b81810360208301526121018184611a53565b90509392505050565b7f5061796d656e7420616d6f756e74206d7573742062652067726561746572207460008201527f68616e2030000000000000000000000000000000000000000000000000000000602082015250565b6000612166602583611a18565b91506121718261210a565b604082019050919050565b6000602082019050818103600083015261219581612159565b9050919050565b7f43726561746f72206d69736d617463682077697468207265676973746572656460008201527f206167656e740000000000000000000000000000000000000000000000000000602082015250565b60006121f8602683611a18565b91506122038261219c565b604082019050919050565b60006020820190508181036000830152612227816121eb565b9050919050565b60008160601b9050919050565b60006122468261222e565b9050919050565b60006122588261223b565b9050919050565b61227061226b826118ee565b61224d565b82525050565b6000819050919050565b61229161228c82611427565b612276565b82525050565b60006122a3828661225f565b6014820191506122b38285611c27565b91506122bf8284612280565b602082019150819050949350505050565b60006040820190506122e560008301856118a4565b6122f260208301846118a4565b9392505050565b7f4167656e74206973206e6f742061637469766500000000000000000000000000600082015250565b600061232f601383611a18565b915061233a826122f9565b602082019050919050565b6000602082019050818103600083015261235e81612322565b9050919050565b7f496e73756666696369656e74207061796d656e74000000000000000000000000600082015250565b600061239b601483611a18565b91506123a682612365565b602082019050919050565b600060208201905081810360008301526123ca8161238e565b9050919050565b60006123dc82611427565b91506123e783611427565b92508282026123f581611427565b9150828204841483151761240c5761240b612063565b5b5092915050565b7f4e487b7100000000000000000000000000000000000000000000000000000000600052601260045260246000fd5b600061244d82611427565b915061245883611427565b92508261246857612467612413565b5b828204905092915050565b600061247e82611427565b915061248983611427565b92508282039050818111156124a1576124a0612063565b5b92915050565b600081905092915050565b50565b60006124c26000836124a7565b91506124cd826124b2565b600082019050919050565b60006124e3826124b5565b9150819050919050565b7f506c6174666f726d20666565207472616e73666572206661696c656400000000600082015250565b6000612523601c83611a18565b915061252e826124ed565b602082019050919050565b6000602082019050818103600083015261255281612516565b9050919050565b7f43726561746f72207368617265207472616e73666572206661696c6564000000600082015250565b600061258f601d83611a18565b915061259a82612559565b602082019050919050565b600060208201905081810360008301526125be81612582565b905091905056fea2646970667358221220cabaff5954ec15f4d2523a2edefd9b7778f2080fb5d7a373a7d9e95c95b0f6df64736f6c63430008140033",
  "linkReferences": {},
  "deployedLinkReferences": {}
}